{
  "_format": "hh-sol-artifact-1",
  "contractName": "PTToken",
  "sourceName": "contracts/pharmatrace-token.sol",
  "abi": [
    {
      "inputs": [
        {
          "internalType": "uint256",
          "name": "maximum_supply",
          "type": "uint256"
        },
        {
          "internalType": "string",
          "name": "name",
          "type": "string"
        },
        {
          "internalType": "string",
          "name": "symbol",
          "type": "string"
        }
      ],
      "stateMutability": "nonpayable",
      "type": "constructor"
    },
    {
      "inputs": [],
      "name": "PTToken__MaximumSupplyHasBeenReached",
      "type": "error"
    },
    {
      "inputs": [],
      "name": "PTToken__OnlyControllersCanMint",
      "type": "error"
    },
    {
      "anonymous": false,
      "inputs": [
        {
          "indexed": true,
          "internalType": "address",
          "name": "owner",
          "type": "address"
        },
        {
          "indexed": true,
          "internalType": "address",
          "name": "controller",
          "type": "address"
        }
      ],
      "name": "AddController",
      "type": "event"
    },
    {
      "anonymous": false,
      "inputs": [
        {
          "indexed": true,
          "internalType": "address",
          "name": "owner",
          "type": "address"
        },
        {
          "indexed": true,
          "internalType": "address",
          "name": "spender",
          "type": "address"
        },
        {
          "indexed": false,
          "internalType": "uint256",
          "name": "value",
          "type": "uint256"
        }
      ],
      "name": "Approval",
      "type": "event"
    },
    {
      "anonymous": false,
      "inputs": [
        {
          "indexed": true,
          "internalType": "address",
          "name": "to",
          "type": "address"
        },
        {
          "indexed": true,
          "internalType": "uint256",
          "name": "amount",
          "type": "uint256"
        },
        {
          "indexed": true,
          "internalType": "uint256",
          "name": "balance",
          "type": "uint256"
        }
      ],
      "name": "Burn",
      "type": "event"
    },
    {
      "anonymous": false,
      "inputs": [
        {
          "indexed": true,
          "internalType": "address",
          "name": "buyer",
          "type": "address"
        },
        {
          "indexed": true,
          "internalType": "uint256",
          "name": "amount",
          "type": "uint256"
        }
      ],
      "name": "FallbackCalled",
      "type": "event"
    },
    {
      "anonymous": false,
      "inputs": [
        {
          "indexed": true,
          "internalType": "address",
          "name": "to",
          "type": "address"
        },
        {
          "indexed": true,
          "internalType": "uint256",
          "name": "amount",
          "type": "uint256"
        },
        {
          "indexed": true,
          "internalType": "uint256",
          "name": "balance",
          "type": "uint256"
        }
      ],
      "name": "Mint",
      "type": "event"
    },
    {
      "anonymous": false,
      "inputs": [
        {
          "indexed": true,
          "internalType": "address",
          "name": "previousOwner",
          "type": "address"
        },
        {
          "indexed": true,
          "internalType": "address",
          "name": "newOwner",
          "type": "address"
        }
      ],
      "name": "OwnershipTransferred",
      "type": "event"
    },
    {
      "anonymous": false,
      "inputs": [
        {
          "indexed": false,
          "internalType": "address",
          "name": "account",
          "type": "address"
        }
      ],
      "name": "Paused",
      "type": "event"
    },
    {
      "anonymous": false,
      "inputs": [
        {
          "indexed": true,
          "internalType": "address",
          "name": "buyer",
          "type": "address"
        },
        {
          "indexed": true,
          "internalType": "uint256",
          "name": "amount",
          "type": "uint256"
        }
      ],
      "name": "ReceivedCalled",
      "type": "event"
    },
    {
      "anonymous": false,
      "inputs": [
        {
          "indexed": true,
          "internalType": "address",
          "name": "owner",
          "type": "address"
        },
        {
          "indexed": true,
          "internalType": "address",
          "name": "controller",
          "type": "address"
        }
      ],
      "name": "RemoveController",
      "type": "event"
    },
    {
      "anonymous": false,
      "inputs": [
        {
          "indexed": true,
          "internalType": "address",
          "name": "from",
          "type": "address"
        },
        {
          "indexed": true,
          "internalType": "address",
          "name": "to",
          "type": "address"
        },
        {
          "indexed": false,
          "internalType": "uint256",
          "name": "value",
          "type": "uint256"
        }
      ],
      "name": "Transfer",
      "type": "event"
    },
    {
      "anonymous": false,
      "inputs": [
        {
          "indexed": false,
          "internalType": "address",
          "name": "account",
          "type": "address"
        }
      ],
      "name": "Unpaused",
      "type": "event"
    },
    {
      "stateMutability": "payable",
      "type": "fallback"
    },
    {
      "inputs": [
        {
          "internalType": "address",
          "name": "controller",
          "type": "address"
        }
      ],
      "name": "addController",
      "outputs": [],
      "stateMutability": "nonpayable",
      "type": "function"
    },
    {
      "inputs": [
        {
          "internalType": "address",
          "name": "owner",
          "type": "address"
        },
        {
          "internalType": "address",
          "name": "spender",
          "type": "address"
        }
      ],
      "name": "allowance",
      "outputs": [
        {
          "internalType": "uint256",
          "name": "",
          "type": "uint256"
        }
      ],
      "stateMutability": "view",
      "type": "function"
    },
    {
      "inputs": [
        {
          "internalType": "address",
          "name": "spender",
          "type": "address"
        },
        {
          "internalType": "uint256",
          "name": "amount",
          "type": "uint256"
        }
      ],
      "name": "approve",
      "outputs": [
        {
          "internalType": "bool",
          "name": "",
          "type": "bool"
        }
      ],
      "stateMutability": "nonpayable",
      "type": "function"
    },
    {
      "inputs": [
        {
          "internalType": "address",
          "name": "account",
          "type": "address"
        }
      ],
      "name": "balanceOf",
      "outputs": [
        {
          "internalType": "uint256",
          "name": "",
          "type": "uint256"
        }
      ],
      "stateMutability": "view",
      "type": "function"
    },
    {
      "inputs": [
        {
          "internalType": "uint256",
          "name": "amount",
          "type": "uint256"
        }
      ],
      "name": "burn",
      "outputs": [],
      "stateMutability": "nonpayable",
      "type": "function"
    },
    {
      "inputs": [
        {
          "internalType": "address",
          "name": "account",
          "type": "address"
        },
        {
          "internalType": "uint256",
          "name": "amount",
          "type": "uint256"
        }
      ],
      "name": "burnFrom",
      "outputs": [],
      "stateMutability": "nonpayable",
      "type": "function"
    },
    {
      "inputs": [
        {
          "internalType": "address",
          "name": "controller",
          "type": "address"
        }
      ],
      "name": "checkController",
      "outputs": [
        {
          "internalType": "bool",
          "name": "",
          "type": "bool"
        }
      ],
      "stateMutability": "view",
      "type": "function"
    },
    {
      "inputs": [],
      "name": "decimals",
      "outputs": [
        {
          "internalType": "uint8",
          "name": "",
          "type": "uint8"
        }
      ],
      "stateMutability": "view",
      "type": "function"
    },
    {
      "inputs": [
        {
          "internalType": "address",
          "name": "spender",
          "type": "address"
        },
        {
          "internalType": "uint256",
          "name": "subtractedValue",
          "type": "uint256"
        }
      ],
      "name": "decreaseAllowance",
      "outputs": [
        {
          "internalType": "bool",
          "name": "",
          "type": "bool"
        }
      ],
      "stateMutability": "nonpayable",
      "type": "function"
    },
    {
      "inputs": [
        {
          "internalType": "address",
          "name": "spender",
          "type": "address"
        },
        {
          "internalType": "uint256",
          "name": "addedValue",
          "type": "uint256"
        }
      ],
      "name": "increaseAllowance",
      "outputs": [
        {
          "internalType": "bool",
          "name": "",
          "type": "bool"
        }
      ],
      "stateMutability": "nonpayable",
      "type": "function"
    },
    {
      "inputs": [],
      "name": "maxSupply",
      "outputs": [
        {
          "internalType": "uint256",
          "name": "",
          "type": "uint256"
        }
      ],
      "stateMutability": "view",
      "type": "function"
    },
    {
      "inputs": [
        {
          "internalType": "address",
          "name": "to",
          "type": "address"
        },
        {
          "internalType": "uint256",
          "name": "amount",
          "type": "uint256"
        }
      ],
      "name": "mint",
      "outputs": [],
      "stateMutability": "nonpayable",
      "type": "function"
    },
    {
      "inputs": [],
      "name": "name",
      "outputs": [
        {
          "internalType": "string",
          "name": "",
          "type": "string"
        }
      ],
      "stateMutability": "view",
      "type": "function"
    },
    {
      "inputs": [],
      "name": "owner",
      "outputs": [
        {
          "internalType": "address",
          "name": "",
          "type": "address"
        }
      ],
      "stateMutability": "view",
      "type": "function"
    },
    {
      "inputs": [],
      "name": "pauseContract",
      "outputs": [],
      "stateMutability": "nonpayable",
      "type": "function"
    },
    {
      "inputs": [],
      "name": "paused",
      "outputs": [
        {
          "internalType": "bool",
          "name": "",
          "type": "bool"
        }
      ],
      "stateMutability": "view",
      "type": "function"
    },
    {
      "inputs": [
        {
          "internalType": "address",
          "name": "controller",
          "type": "address"
        }
      ],
      "name": "removeController",
      "outputs": [],
      "stateMutability": "nonpayable",
      "type": "function"
    },
    {
      "inputs": [],
      "name": "renounceOwnership",
      "outputs": [],
      "stateMutability": "nonpayable",
      "type": "function"
    },
    {
      "inputs": [],
      "name": "symbol",
      "outputs": [
        {
          "internalType": "string",
          "name": "",
          "type": "string"
        }
      ],
      "stateMutability": "view",
      "type": "function"
    },
    {
      "inputs": [],
      "name": "totalSupply",
      "outputs": [
        {
          "internalType": "uint256",
          "name": "",
          "type": "uint256"
        }
      ],
      "stateMutability": "view",
      "type": "function"
    },
    {
      "inputs": [
        {
          "internalType": "address",
          "name": "to",
          "type": "address"
        },
        {
          "internalType": "uint256",
          "name": "amount",
          "type": "uint256"
        }
      ],
      "name": "transfer",
      "outputs": [
        {
          "internalType": "bool",
          "name": "",
          "type": "bool"
        }
      ],
      "stateMutability": "nonpayable",
      "type": "function"
    },
    {
      "inputs": [
        {
          "internalType": "address",
          "name": "from",
          "type": "address"
        },
        {
          "internalType": "address",
          "name": "to",
          "type": "address"
        },
        {
          "internalType": "uint256",
          "name": "amount",
          "type": "uint256"
        }
      ],
      "name": "transferFrom",
      "outputs": [
        {
          "internalType": "bool",
          "name": "",
          "type": "bool"
        }
      ],
      "stateMutability": "nonpayable",
      "type": "function"
    },
    {
      "inputs": [
        {
          "internalType": "address",
          "name": "newOwner",
          "type": "address"
        }
      ],
      "name": "transferOwnership",
      "outputs": [],
      "stateMutability": "nonpayable",
      "type": "function"
    },
    {
      "inputs": [],
      "name": "unpauseContract",
      "outputs": [],
      "stateMutability": "nonpayable",
      "type": "function"
    },
    {
      "stateMutability": "payable",
      "type": "receive"
    }
  ],
  "bytecode": "0x60a06040523480156200001157600080fd5b5060405162001a9538038062001a9583398101604081905262000034916200041a565b8151829082906200004d906003906020850190620002a7565b50805162000063906004906020840190620002a7565b50506005805460ff191690555060016006556200008033620000d9565b6200009483670de0b6b3a7640000620004a4565b608052336000818152600960205260409020805460ff19166001179055620000d090620000ca85670de0b6b3a7640000620004a4565b6200012b565b5050506200051e565b600780546001600160a01b038381166001600160a01b0319831681179093556040519116919082907f8be0079c531659141344cd1fd0a4f28419497f9722a3daafe3b4186f6b6457e090600090a35050565b6001600160a01b038216620001875760405162461bcd60e51b815260206004820152601f60248201527f45524332303a206d696e7420746f20746865207a65726f20616464726573730060448201526064015b60405180910390fd5b620001956000838362000222565b8060026000828254620001a99190620004c6565b90915550506001600160a01b03821660009081526020819052604081208054839290620001d8908490620004c6565b90915550506040518181526001600160a01b038316906000907fddf252ad1be2c89b69c2b068fc378daa952ba7f163c4a11628f55a4df523b3ef9060200160405180910390a35050565b6200023a838383620002a260201b62000aff1760201c565b60055460ff1615620002a25760405162461bcd60e51b815260206004820152602a60248201527f45524332305061757361626c653a20746f6b656e207472616e736665722077686044820152691a5b19481c185d5cd95960b21b60648201526084016200017e565b505050565b828054620002b590620004e1565b90600052602060002090601f016020900481019282620002d9576000855562000324565b82601f10620002f457805160ff191683800117855562000324565b8280016001018555821562000324579182015b828111156200032457825182559160200191906001019062000307565b506200033292915062000336565b5090565b5b8082111562000332576000815560010162000337565b634e487b7160e01b600052604160045260246000fd5b600082601f8301126200037557600080fd5b81516001600160401b03808211156200039257620003926200034d565b604051601f8301601f19908116603f01168101908282118183101715620003bd57620003bd6200034d565b81604052838152602092508683858801011115620003da57600080fd5b600091505b83821015620003fe5785820183015181830184015290820190620003df565b83821115620004105760008385830101525b9695505050505050565b6000806000606084860312156200043057600080fd5b835160208501519093506001600160401b03808211156200045057600080fd5b6200045e8783880162000363565b935060408601519150808211156200047557600080fd5b50620004848682870162000363565b9150509250925092565b634e487b7160e01b600052601160045260246000fd5b6000816000190483118215151615620004c157620004c16200048e565b500290565b60008219821115620004dc57620004dc6200048e565b500190565b600181811c90821680620004f657607f821691505b602082108114156200051857634e487b7160e01b600052602260045260246000fd5b50919050565b60805161155462000541600039600081816104a4015261067c01526115546000f3fe60806040526004361061014f5760003560e01c8063715018a6116100b6578063a9059cbb1161006f578063a9059cbb14610460578063b33712c514610480578063d5abeb0114610495578063dd62ed3e146104c8578063f2fde38b146104e8578063f6a74ed714610508576101a7565b8063715018a6146103ae57806379cc6790146103c35780638da5cb5b146103e357806395d89b411461040b578063a457c2d714610420578063a7fc7a0714610440576101a7565b8063395093511161010857806339509351146102e957806340c10f191461030957806342966c681461032b578063439766ce1461034b5780635c975abb1461036057806370a0823114610378576101a7565b806306fdde03146101fa578063095ea7b31461022557806318160ddd1461025557806321fa496e1461027457806323b872dd146102ad578063313ce567146102cd576101a7565b366101a757336000908152600a60205260408120805434929061017390849061133f565b9091555050604051349033907f985c6b576d54b73e8b271365890eadef9d88dfe168128904b21fa0b128fd78ea90600090a3005b336000908152600a6020526040812080543492906101c690849061133f565b9091555050604051349033907f4fdfaf7cd2ae67f3639149bddef2addc991d3f26e0121df03517ec62523649ca90600090a3005b34801561020657600080fd5b5061020f610528565b60405161021c9190611357565b60405180910390f35b34801561023157600080fd5b506102456102403660046113c8565b6105ba565b604051901515815260200161021c565b34801561026157600080fd5b50600b545b60405190815260200161021c565b34801561028057600080fd5b5061024561028f3660046113f2565b6001600160a01b031660009081526009602052604090205460ff1690565b3480156102b957600080fd5b506102456102c836600461140d565b6105d2565b3480156102d957600080fd5b506040516012815260200161021c565b3480156102f557600080fd5b506102456103043660046113c8565b6105f6565b34801561031557600080fd5b506103296103243660046113c8565b610618565b005b34801561033757600080fd5b50610329610346366004611449565b61077c565b34801561035757600080fd5b50610329610789565b34801561036c57600080fd5b5060055460ff16610245565b34801561038457600080fd5b506102666103933660046113f2565b6001600160a01b031660009081526020819052604090205490565b3480156103ba57600080fd5b5061032961079b565b3480156103cf57600080fd5b506103296103de3660046113c8565b6107ad565b3480156103ef57600080fd5b506007546040516001600160a01b03909116815260200161021c565b34801561041757600080fd5b5061020f610875565b34801561042c57600080fd5b5061024561043b3660046113c8565b610884565b34801561044c57600080fd5b5061032961045b3660046113f2565b6108ff565b34801561046c57600080fd5b5061024561047b3660046113c8565b6109a1565b34801561048c57600080fd5b506103296109af565b3480156104a157600080fd5b507f0000000000000000000000000000000000000000000000000000000000000000610266565b3480156104d457600080fd5b506102666104e3366004611462565b6109bf565b3480156104f457600080fd5b506103296105033660046113f2565b6109ea565b34801561051457600080fd5b506103296105233660046113f2565b610a60565b60606003805461053790611495565b80601f016020809104026020016040519081016040528092919081815260200182805461056390611495565b80156105b05780601f10610585576101008083540402835291602001916105b0565b820191906000526020600020905b81548152906001019060200180831161059357829003601f168201915b5050505050905090565b6000336105c8818585610b04565b5060019392505050565b6000336105e0858285610c28565b6105eb858585610ca2565b506001949350505050565b6000336105c881858561060983836109bf565b610613919061133f565b610b04565b600260065414156106445760405162461bcd60e51b815260040161063b906114d0565b60405180910390fd5b60026006553360009081526009602052604090205460ff161561067a57604051639c2753d160e01b815260040160405180910390fd5b7f000000000000000000000000000000000000000000000000000000000000000081600c546106a9919061133f565b116106c75760405163105e6eb960e11b815260040160405180910390fd5b600b546106d49082610e7b565b600b55600c546106e49082610e7b565b600c556001600160a01b03821660009081526008602052604090205461070a9082610e7b565b6001600160a01b03831660009081526008602052604090205561072d8282610e8e565b6001600160a01b0382166000818152600860205260408082205490519092849290917f4c209b5fc8ad50758f13e2e1088ba56a560dff690a1c6fef26394f4c03821c4f9190a450506001600655565b6107863382610f7a565b50565b6107916110d4565b61079961112e565b565b6107a36110d4565b6107996000611188565b600260065414156107d05760405162461bcd60e51b815260040161063b906114d0565b60026006553360009081526009602052604090205460ff16156107fc576107f78282610f7a565b610806565b61080682826111da565b6001600160a01b03821660009081526008602052604090205461082990826111ef565b6001600160a01b038316600081815260086020526040808220849055518492917f49995e5dd6158cf69ad3e9777c46755a1a826a446c6416992167462dad033b2a91a450506001600655565b60606004805461053790611495565b6000338161089282866109bf565b9050838110156108f25760405162461bcd60e51b815260206004820152602560248201527f45524332303a2064656372656173656420616c6c6f77616e63652062656c6f77604482015264207a65726f60d81b606482015260840161063b565b6105eb8286868403610b04565b6109076110d4565b6002600654141561092a5760405162461bcd60e51b815260040161063b906114d0565b60026006556001600160a01b0381166000818152600960205260409020805460ff191660011790556109646007546001600160a01b031690565b6001600160a01b03167fec493e5f7bb2653b285a1e0af9af1c883375111370296bb332c8c5e30776895960405160405180910390a3506001600655565b6000336105c8818585610ca2565b6109b76110d4565b6107996111fb565b6001600160a01b03918216600090815260016020908152604080832093909416825291909152205490565b6109f26110d4565b6001600160a01b038116610a575760405162461bcd60e51b815260206004820152602660248201527f4f776e61626c653a206e6577206f776e657220697320746865207a65726f206160448201526564647265737360d01b606482015260840161063b565b61078681611188565b610a686110d4565b60026006541415610a8b5760405162461bcd60e51b815260040161063b906114d0565b60026006556001600160a01b0381166000818152600960205260409020805460ff19169055610ac26007546001600160a01b031690565b6001600160a01b03167f98da1b1dd7d69af3ffee8826b8a31d3e98874a91a2e90e819fb6df0cfa91ca4d60405160405180910390a3506001600655565b505050565b6001600160a01b038316610b665760405162461bcd60e51b8152602060048201526024808201527f45524332303a20617070726f76652066726f6d20746865207a65726f206164646044820152637265737360e01b606482015260840161063b565b6001600160a01b038216610bc75760405162461bcd60e51b815260206004820152602260248201527f45524332303a20617070726f766520746f20746865207a65726f206164647265604482015261737360f01b606482015260840161063b565b6001600160a01b0383811660008181526001602090815260408083209487168084529482529182902085905590518481527f8c5be1e5ebec7d5bd14f71427d1e84f3dd0314c0f7b2291e5b200ac8c7c3b925910160405180910390a3505050565b6000610c3484846109bf565b90506000198114610c9c5781811015610c8f5760405162461bcd60e51b815260206004820152601d60248201527f45524332303a20696e73756666696369656e7420616c6c6f77616e6365000000604482015260640161063b565b610c9c8484848403610b04565b50505050565b6001600160a01b038316610d065760405162461bcd60e51b815260206004820152602560248201527f45524332303a207472616e736665722066726f6d20746865207a65726f206164604482015264647265737360d81b606482015260840161063b565b6001600160a01b038216610d685760405162461bcd60e51b815260206004820152602360248201527f45524332303a207472616e7366657220746f20746865207a65726f206164647260448201526265737360e81b606482015260840161063b565b610d73838383611234565b6001600160a01b03831660009081526020819052604090205481811015610deb5760405162461bcd60e51b815260206004820152602660248201527f45524332303a207472616e7366657220616d6f756e7420657863656564732062604482015265616c616e636560d01b606482015260840161063b565b6001600160a01b03808516600090815260208190526040808220858503905591851681529081208054849290610e2290849061133f565b92505081905550826001600160a01b0316846001600160a01b03167fddf252ad1be2c89b69c2b068fc378daa952ba7f163c4a11628f55a4df523b3ef84604051610e6e91815260200190565b60405180910390a3610c9c565b6000610e87828461133f565b9392505050565b6001600160a01b038216610ee45760405162461bcd60e51b815260206004820152601f60248201527f45524332303a206d696e7420746f20746865207a65726f206164647265737300604482015260640161063b565b610ef060008383611234565b8060026000828254610f02919061133f565b90915550506001600160a01b03821660009081526020819052604081208054839290610f2f90849061133f565b90915550506040518181526001600160a01b038316906000907fddf252ad1be2c89b69c2b068fc378daa952ba7f163c4a11628f55a4df523b3ef9060200160405180910390a35b5050565b6001600160a01b038216610fda5760405162461bcd60e51b815260206004820152602160248201527f45524332303a206275726e2066726f6d20746865207a65726f206164647265736044820152607360f81b606482015260840161063b565b610fe682600083611234565b6001600160a01b0382166000908152602081905260409020548181101561105a5760405162461bcd60e51b815260206004820152602260248201527f45524332303a206275726e20616d6f756e7420657863656564732062616c616e604482015261636560f01b606482015260840161063b565b6001600160a01b0383166000908152602081905260408120838303905560028054849290611089908490611507565b90915550506040518281526000906001600160a01b038516907fddf252ad1be2c89b69c2b068fc378daa952ba7f163c4a11628f55a4df523b3ef9060200160405180910390a3505050565b6007546001600160a01b031633146107995760405162461bcd60e51b815260206004820181905260248201527f4f776e61626c653a2063616c6c6572206973206e6f7420746865206f776e6572604482015260640161063b565b61113661129a565b6005805460ff191660011790557f62e78cea01bee320cd4e420270b5ea74000d11b0c9f74754ebdbfc544b05a25861116b3390565b6040516001600160a01b03909116815260200160405180910390a1565b600780546001600160a01b038381166001600160a01b0319831681179093556040519116919082907f8be0079c531659141344cd1fd0a4f28419497f9722a3daafe3b4186f6b6457e090600090a35050565b6111e5823383610c28565b610f768282610f7a565b6000610e878284611507565b6112036112e0565b6005805460ff191690557f5db9ee0a495bf2e6ff9c91a7834c1ba4fdd244a5e8aa4e537bd38aeae4b073aa3361116b565b60055460ff1615610aff5760405162461bcd60e51b815260206004820152602a60248201527f45524332305061757361626c653a20746f6b656e207472616e736665722077686044820152691a5b19481c185d5cd95960b21b606482015260840161063b565b60055460ff16156107995760405162461bcd60e51b815260206004820152601060248201526f14185d5cd8589b194e881c185d5cd95960821b604482015260640161063b565b60055460ff166107995760405162461bcd60e51b815260206004820152601460248201527314185d5cd8589b194e881b9bdd081c185d5cd95960621b604482015260640161063b565b634e487b7160e01b600052601160045260246000fd5b6000821982111561135257611352611329565b500190565b600060208083528351808285015260005b8181101561138457858101830151858201604001528201611368565b81811115611396576000604083870101525b50601f01601f1916929092016040019392505050565b80356001600160a01b03811681146113c357600080fd5b919050565b600080604083850312156113db57600080fd5b6113e4836113ac565b946020939093013593505050565b60006020828403121561140457600080fd5b610e87826113ac565b60008060006060848603121561142257600080fd5b61142b846113ac565b9250611439602085016113ac565b9150604084013590509250925092565b60006020828403121561145b57600080fd5b5035919050565b6000806040838503121561147557600080fd5b61147e836113ac565b915061148c602084016113ac565b90509250929050565b600181811c908216806114a957607f821691505b602082108114156114ca57634e487b7160e01b600052602260045260246000fd5b50919050565b6020808252601f908201527f5265656e7472616e637947756172643a207265656e7472616e742063616c6c00604082015260600190565b60008282101561151957611519611329565b50039056fea26469706673582212200008afd7826ab85e22894a88aeb722131a7305cfa12877936d614eb86a99ea4064736f6c63430008090033",
  "linkReferences": {},
  "deployedLinkReferences": {}
}