{
  "_format": "hh-sol-artifact-1",
  "contractName": "DaiToken",
  "sourceName": "contracts/core/DaiToken.sol",
  "abi": [
    {
      "inputs": [
        {
          "internalType": "string",
          "name": "_name",
          "type": "string"
        },
        {
          "internalType": "string",
          "name": "_symbol",
          "type": "string"
        },
        {
          "internalType": "uint8",
          "name": "_dec",
          "type": "uint8"
        },
        {
          "internalType": "uint256",
          "name": "_initialSupply",
          "type": "uint256"
        }
      ],
      "stateMutability": "nonpayable",
      "type": "constructor"
    },
    {
      "anonymous": false,
      "inputs": [
        {
          "indexed": true,
          "internalType": "address",
          "name": "owner",
          "type": "address"
        },
        {
          "indexed": true,
          "internalType": "address",
          "name": "spender",
          "type": "address"
        },
        {
          "indexed": false,
          "internalType": "uint256",
          "name": "value",
          "type": "uint256"
        }
      ],
      "name": "Approval",
      "type": "event"
    },
    {
      "anonymous": false,
      "inputs": [
        {
          "indexed": true,
          "internalType": "address",
          "name": "previousOwner",
          "type": "address"
        },
        {
          "indexed": true,
          "internalType": "address",
          "name": "newOwner",
          "type": "address"
        }
      ],
      "name": "OwnershipTransferred",
      "type": "event"
    },
    {
      "anonymous": false,
      "inputs": [
        {
          "indexed": true,
          "internalType": "address",
          "name": "from",
          "type": "address"
        },
        {
          "indexed": true,
          "internalType": "address",
          "name": "to",
          "type": "address"
        },
        {
          "indexed": false,
          "internalType": "uint256",
          "name": "value",
          "type": "uint256"
        }
      ],
      "name": "Transfer",
      "type": "event"
    },
    {
      "inputs": [
        {
          "internalType": "address",
          "name": "owner",
          "type": "address"
        },
        {
          "internalType": "address",
          "name": "spender",
          "type": "address"
        }
      ],
      "name": "allowance",
      "outputs": [
        {
          "internalType": "uint256",
          "name": "",
          "type": "uint256"
        }
      ],
      "stateMutability": "view",
      "type": "function"
    },
    {
      "inputs": [
        {
          "internalType": "address",
          "name": "spender",
          "type": "address"
        },
        {
          "internalType": "uint256",
          "name": "amount",
          "type": "uint256"
        }
      ],
      "name": "approve",
      "outputs": [
        {
          "internalType": "bool",
          "name": "",
          "type": "bool"
        }
      ],
      "stateMutability": "nonpayable",
      "type": "function"
    },
    {
      "inputs": [
        {
          "internalType": "address",
          "name": "account",
          "type": "address"
        }
      ],
      "name": "balanceOf",
      "outputs": [
        {
          "internalType": "uint256",
          "name": "",
          "type": "uint256"
        }
      ],
      "stateMutability": "view",
      "type": "function"
    },
    {
      "inputs": [],
      "name": "dec",
      "outputs": [
        {
          "internalType": "uint8",
          "name": "",
          "type": "uint8"
        }
      ],
      "stateMutability": "view",
      "type": "function"
    },
    {
      "inputs": [],
      "name": "decimals",
      "outputs": [
        {
          "internalType": "uint8",
          "name": "",
          "type": "uint8"
        }
      ],
      "stateMutability": "view",
      "type": "function"
    },
    {
      "inputs": [
        {
          "internalType": "address",
          "name": "spender",
          "type": "address"
        },
        {
          "internalType": "uint256",
          "name": "subtractedValue",
          "type": "uint256"
        }
      ],
      "name": "decreaseAllowance",
      "outputs": [
        {
          "internalType": "bool",
          "name": "",
          "type": "bool"
        }
      ],
      "stateMutability": "nonpayable",
      "type": "function"
    },
    {
      "inputs": [
        {
          "internalType": "address",
          "name": "spender",
          "type": "address"
        },
        {
          "internalType": "uint256",
          "name": "addedValue",
          "type": "uint256"
        }
      ],
      "name": "increaseAllowance",
      "outputs": [
        {
          "internalType": "bool",
          "name": "",
          "type": "bool"
        }
      ],
      "stateMutability": "nonpayable",
      "type": "function"
    },
    {
      "inputs": [],
      "name": "name",
      "outputs": [
        {
          "internalType": "string",
          "name": "",
          "type": "string"
        }
      ],
      "stateMutability": "view",
      "type": "function"
    },
    {
      "inputs": [],
      "name": "owner",
      "outputs": [
        {
          "internalType": "address",
          "name": "",
          "type": "address"
        }
      ],
      "stateMutability": "view",
      "type": "function"
    },
    {
      "inputs": [],
      "name": "renounceOwnership",
      "outputs": [],
      "stateMutability": "nonpayable",
      "type": "function"
    },
    {
      "inputs": [],
      "name": "symbol",
      "outputs": [
        {
          "internalType": "string",
          "name": "",
          "type": "string"
        }
      ],
      "stateMutability": "view",
      "type": "function"
    },
    {
      "inputs": [],
      "name": "totalSupply",
      "outputs": [
        {
          "internalType": "uint256",
          "name": "",
          "type": "uint256"
        }
      ],
      "stateMutability": "view",
      "type": "function"
    },
    {
      "inputs": [
        {
          "internalType": "address",
          "name": "to",
          "type": "address"
        },
        {
          "internalType": "uint256",
          "name": "amount",
          "type": "uint256"
        }
      ],
      "name": "transfer",
      "outputs": [
        {
          "internalType": "bool",
          "name": "",
          "type": "bool"
        }
      ],
      "stateMutability": "nonpayable",
      "type": "function"
    },
    {
      "inputs": [
        {
          "internalType": "address",
          "name": "from",
          "type": "address"
        },
        {
          "internalType": "address",
          "name": "to",
          "type": "address"
        },
        {
          "internalType": "uint256",
          "name": "amount",
          "type": "uint256"
        }
      ],
      "name": "transferFrom",
      "outputs": [
        {
          "internalType": "bool",
          "name": "",
          "type": "bool"
        }
      ],
      "stateMutability": "nonpayable",
      "type": "function"
    },
    {
      "inputs": [
        {
          "internalType": "address",
          "name": "newOwner",
          "type": "address"
        }
      ],
      "name": "transferOwnership",
      "outputs": [],
      "stateMutability": "nonpayable",
      "type": "function"
    }
  ],
  "bytecode": "0x60806040523480156200001157600080fd5b5060405162002030380380620020308339818101604052810190620000379190620006e2565b83838160039080519060200190620000519291906200041c565b5080600490805190602001906200006a9291906200041c565b5050506200008d62000081620001c860201b60201c565b620001d060201b60201c565b620000c17fda8db585430123e52377d66aa9e25e3eefe8e810122ec69f3565a60c6806d5e760001b6200029660201b60201c565b620000f57f136d5ab131eb5f4842e1804f3e0f373a2b807ec019108b38db18e23cf9dd3a5d60001b6200029660201b60201c565b620001297f339ff71f0d203d76523efef87757ede9edffb8b27bb64312209957b21c4a1d2f60001b6200029660201b60201c565b81600560146101000a81548160ff021916908360ff160217905550620001787f4ea129092d8da8279f869d1a192691181ea913cfba1571e405695ca25f5e000860001b6200029660201b60201c565b620001ac7fb05662e2a400c39df618b2915c148bab1ba6e8de9b1750bbd6064e9a8dca00d260001b6200029660201b60201c565b620001be33826200029960201b60201c565b5050505062000934565b600033905090565b6000600560009054906101000a900473ffffffffffffffffffffffffffffffffffffffff16905081600560006101000a81548173ffffffffffffffffffffffffffffffffffffffff021916908373ffffffffffffffffffffffffffffffffffffffff1602179055508173ffffffffffffffffffffffffffffffffffffffff168173ffffffffffffffffffffffffffffffffffffffff167f8be0079c531659141344cd1fd0a4f28419497f9722a3daafe3b4186f6b6457e060405160405180910390a35050565b50565b600073ffffffffffffffffffffffffffffffffffffffff168273ffffffffffffffffffffffffffffffffffffffff1614156200030c576040517f08c379a00000000000000000000000000000000000000000000000000000000081526004016200030390620007f3565b60405180910390fd5b62000320600083836200041260201b60201c565b806002600082825462000334919062000844565b92505081905550806000808473ffffffffffffffffffffffffffffffffffffffff1673ffffffffffffffffffffffffffffffffffffffff16815260200190815260200160002060008282546200038b919062000844565b925050819055508173ffffffffffffffffffffffffffffffffffffffff16600073ffffffffffffffffffffffffffffffffffffffff167fddf252ad1be2c89b69c2b068fc378daa952ba7f163c4a11628f55a4df523b3ef83604051620003f29190620008b2565b60405180910390a36200040e600083836200041760201b60201c565b5050565b505050565b505050565b8280546200042a90620008fe565b90600052602060002090601f0160209004810192826200044e57600085556200049a565b82601f106200046957805160ff19168380011785556200049a565b828001600101855582156200049a579182015b82811115620004995782518255916020019190600101906200047c565b5b509050620004a99190620004ad565b5090565b5b80821115620004c8576000816000905550600101620004ae565b5090565b6000604051905090565b600080fd5b600080fd5b600080fd5b600080fd5b6000601f19601f8301169050919050565b7f4e487b7100000000000000000000000000000000000000000000000000000000600052604160045260246000fd5b6200053582620004ea565b810181811067ffffffffffffffff82111715620005575762000556620004fb565b5b80604052505050565b60006200056c620004cc565b90506200057a82826200052a565b919050565b600067ffffffffffffffff8211156200059d576200059c620004fb565b5b620005a882620004ea565b9050602081019050919050565b60005b83811015620005d5578082015181840152602081019050620005b8565b83811115620005e5576000848401525b50505050565b600062000602620005fc846200057f565b62000560565b905082815260208101848484011115620006215762000620620004e5565b5b6200062e848285620005b5565b509392505050565b600082601f8301126200064e576200064d620004e0565b5b815162000660848260208601620005eb565b91505092915050565b600060ff82169050919050565b620006818162000669565b81146200068d57600080fd5b50565b600081519050620006a18162000676565b92915050565b6000819050919050565b620006bc81620006a7565b8114620006c857600080fd5b50565b600081519050620006dc81620006b1565b92915050565b60008060008060808587031215620006ff57620006fe620004d6565b5b600085015167ffffffffffffffff81111562000720576200071f620004db565b5b6200072e8782880162000636565b945050602085015167ffffffffffffffff811115620007525762000751620004db565b5b620007608782880162000636565b9350506040620007738782880162000690565b92505060606200078687828801620006cb565b91505092959194509250565b600082825260208201905092915050565b7f45524332303a206d696e7420746f20746865207a65726f206164647265737300600082015250565b6000620007db601f8362000792565b9150620007e882620007a3565b602082019050919050565b600060208201905081810360008301526200080e81620007cc565b9050919050565b7f4e487b7100000000000000000000000000000000000000000000000000000000600052601160045260246000fd5b60006200085182620006a7565b91506200085e83620006a7565b9250827fffffffffffffffffffffffffffffffffffffffffffffffffffffffffffffffff0382111562000896576200089562000815565b5b828201905092915050565b620008ac81620006a7565b82525050565b6000602082019050620008c96000830184620008a1565b92915050565b7f4e487b7100000000000000000000000000000000000000000000000000000000600052602260045260246000fd5b600060028204905060018216806200091757607f821691505b602082108114156200092e576200092d620008cf565b5b50919050565b6116ec80620009446000396000f3fe608060405234801561001057600080fd5b50600436106100f55760003560e01c8063715018a611610097578063a9059cbb11610066578063a9059cbb1461028a578063b3bcfa82146102ba578063dd62ed3e146102d8578063f2fde38b14610308576100f5565b8063715018a6146102145780638da5cb5b1461021e57806395d89b411461023c578063a457c2d71461025a576100f5565b806323b872dd116100d357806323b872dd14610166578063313ce5671461019657806339509351146101b457806370a08231146101e4576100f5565b806306fdde03146100fa578063095ea7b31461011857806318160ddd14610148575b600080fd5b610102610324565b60405161010f9190610e7e565b60405180910390f35b610132600480360381019061012d9190610f39565b6103b6565b60405161013f9190610f94565b60405180910390f35b6101506103d9565b60405161015d9190610fbe565b60405180910390f35b610180600480360381019061017b9190610fd9565b6103e3565b60405161018d9190610f94565b60405180910390f35b61019e610412565b6040516101ab9190611048565b60405180910390f35b6101ce60048036038101906101c99190610f39565b6104ad565b6040516101db9190610f94565b60405180910390f35b6101fe60048036038101906101f99190611063565b6104e4565b60405161020b9190610fbe565b60405180910390f35b61021c61052c565b005b610226610540565b604051610233919061109f565b60405180910390f35b61024461056a565b6040516102519190610e7e565b60405180910390f35b610274600480360381019061026f9190610f39565b6105fc565b6040516102819190610f94565b60405180910390f35b6102a4600480360381019061029f9190610f39565b610673565b6040516102b19190610f94565b60405180910390f35b6102c2610696565b6040516102cf9190611048565b60405180910390f35b6102f260048036038101906102ed91906110ba565b6106a9565b6040516102ff9190610fbe565b60405180910390f35b610322600480360381019061031d9190611063565b610730565b005b60606003805461033390611129565b80601f016020809104026020016040519081016040528092919081815260200182805461035f90611129565b80156103ac5780601f10610381576101008083540402835291602001916103ac565b820191906000526020600020905b81548152906001019060200180831161038f57829003601f168201915b5050505050905090565b6000806103c16107b4565b90506103ce8185856107bc565b600191505092915050565b6000600254905090565b6000806103ee6107b4565b90506103fb858285610987565b610406858585610a13565b60019150509392505050565b60006104407f1ad2f4059f37d3e156f2848589e011a3b528bb07bd68ec560507d00b44d903e860001b610c94565b61046c7fba8af308e0e8d78c5104690d2b4c6e73a75a2e265c8f039ff23ecb5d2c9eea5360001b610c94565b6104987f8f8b0e7685fa3640022431b17a70a2022c498290c66df9394053839f45953b6c60001b610c94565b600560149054906101000a900460ff16905090565b6000806104b86107b4565b90506104d98185856104ca85896106a9565b6104d4919061118a565b6107bc565b600191505092915050565b60008060008373ffffffffffffffffffffffffffffffffffffffff1673ffffffffffffffffffffffffffffffffffffffff168152602001908152602001600020549050919050565b610534610c97565b61053e6000610d15565b565b6000600560009054906101000a900473ffffffffffffffffffffffffffffffffffffffff16905090565b60606004805461057990611129565b80601f01602080910402602001604051908101604052809291908181526020018280546105a590611129565b80156105f25780601f106105c7576101008083540402835291602001916105f2565b820191906000526020600020905b8154815290600101906020018083116105d557829003601f168201915b5050505050905090565b6000806106076107b4565b9050600061061582866106a9565b90508381101561065a576040517f08c379a000000000000000000000000000000000000000000000000000000000815260040161065190611252565b60405180910390fd5b61066782868684036107bc565b60019250505092915050565b60008061067e6107b4565b905061068b818585610a13565b600191505092915050565b600560149054906101000a900460ff1681565b6000600160008473ffffffffffffffffffffffffffffffffffffffff1673ffffffffffffffffffffffffffffffffffffffff16815260200190815260200160002060008373ffffffffffffffffffffffffffffffffffffffff1673ffffffffffffffffffffffffffffffffffffffff16815260200190815260200160002054905092915050565b610738610c97565b600073ffffffffffffffffffffffffffffffffffffffff168173ffffffffffffffffffffffffffffffffffffffff1614156107a8576040517f08c379a000000000000000000000000000000000000000000000000000000000815260040161079f906112e4565b60405180910390fd5b6107b181610d15565b50565b600033905090565b600073ffffffffffffffffffffffffffffffffffffffff168373ffffffffffffffffffffffffffffffffffffffff16141561082c576040517f08c379a000000000000000000000000000000000000000000000000000000000815260040161082390611376565b60405180910390fd5b600073ffffffffffffffffffffffffffffffffffffffff168273ffffffffffffffffffffffffffffffffffffffff16141561089c576040517f08c379a000000000000000000000000000000000000000000000000000000000815260040161089390611408565b60405180910390fd5b80600160008573ffffffffffffffffffffffffffffffffffffffff1673ffffffffffffffffffffffffffffffffffffffff16815260200190815260200160002060008473ffffffffffffffffffffffffffffffffffffffff1673ffffffffffffffffffffffffffffffffffffffff168152602001908152602001600020819055508173ffffffffffffffffffffffffffffffffffffffff168373ffffffffffffffffffffffffffffffffffffffff167f8c5be1e5ebec7d5bd14f71427d1e84f3dd0314c0f7b2291e5b200ac8c7c3b9258360405161097a9190610fbe565b60405180910390a3505050565b600061099384846106a9565b90507fffffffffffffffffffffffffffffffffffffffffffffffffffffffffffffffff8114610a0d57818110156109ff576040517f08c379a00000000000000000000000000000000000000000000000000000000081526004016109f690611474565b60405180910390fd5b610a0c84848484036107bc565b5b50505050565b600073ffffffffffffffffffffffffffffffffffffffff168373ffffffffffffffffffffffffffffffffffffffff161415610a83576040517f08c379a0000000000000000000000000000000000000000000000000000000008152600401610a7a90611506565b60405180910390fd5b600073ffffffffffffffffffffffffffffffffffffffff168273ffffffffffffffffffffffffffffffffffffffff161415610af3576040517f08c379a0000000000000000000000000000000000000000000000000000000008152600401610aea90611598565b60405180910390fd5b610afe838383610ddb565b60008060008573ffffffffffffffffffffffffffffffffffffffff1673ffffffffffffffffffffffffffffffffffffffff16815260200190815260200160002054905081811015610b84576040517f08c379a0000000000000000000000000000000000000000000000000000000008152600401610b7b9061162a565b60405180910390fd5b8181036000808673ffffffffffffffffffffffffffffffffffffffff1673ffffffffffffffffffffffffffffffffffffffff16815260200190815260200160002081905550816000808573ffffffffffffffffffffffffffffffffffffffff1673ffffffffffffffffffffffffffffffffffffffff1681526020019081526020016000206000828254610c17919061118a565b925050819055508273ffffffffffffffffffffffffffffffffffffffff168473ffffffffffffffffffffffffffffffffffffffff167fddf252ad1be2c89b69c2b068fc378daa952ba7f163c4a11628f55a4df523b3ef84604051610c7b9190610fbe565b60405180910390a3610c8e848484610de0565b50505050565b50565b610c9f6107b4565b73ffffffffffffffffffffffffffffffffffffffff16610cbd610540565b73ffffffffffffffffffffffffffffffffffffffff1614610d13576040517f08c379a0000000000000000000000000000000000000000000000000000000008152600401610d0a90611696565b60405180910390fd5b565b6000600560009054906101000a900473ffffffffffffffffffffffffffffffffffffffff16905081600560006101000a81548173ffffffffffffffffffffffffffffffffffffffff021916908373ffffffffffffffffffffffffffffffffffffffff1602179055508173ffffffffffffffffffffffffffffffffffffffff168173ffffffffffffffffffffffffffffffffffffffff167f8be0079c531659141344cd1fd0a4f28419497f9722a3daafe3b4186f6b6457e060405160405180910390a35050565b505050565b505050565b600081519050919050565b600082825260208201905092915050565b60005b83811015610e1f578082015181840152602081019050610e04565b83811115610e2e576000848401525b50505050565b6000601f19601f8301169050919050565b6000610e5082610de5565b610e5a8185610df0565b9350610e6a818560208601610e01565b610e7381610e34565b840191505092915050565b60006020820190508181036000830152610e988184610e45565b905092915050565b600080fd5b600073ffffffffffffffffffffffffffffffffffffffff82169050919050565b6000610ed082610ea5565b9050919050565b610ee081610ec5565b8114610eeb57600080fd5b50565b600081359050610efd81610ed7565b92915050565b6000819050919050565b610f1681610f03565b8114610f2157600080fd5b50565b600081359050610f3381610f0d565b92915050565b60008060408385031215610f5057610f4f610ea0565b5b6000610f5e85828601610eee565b9250506020610f6f85828601610f24565b9150509250929050565b60008115159050919050565b610f8e81610f79565b82525050565b6000602082019050610fa96000830184610f85565b92915050565b610fb881610f03565b82525050565b6000602082019050610fd36000830184610faf565b92915050565b600080600060608486031215610ff257610ff1610ea0565b5b600061100086828701610eee565b935050602061101186828701610eee565b925050604061102286828701610f24565b9150509250925092565b600060ff82169050919050565b6110428161102c565b82525050565b600060208201905061105d6000830184611039565b92915050565b60006020828403121561107957611078610ea0565b5b600061108784828501610eee565b91505092915050565b61109981610ec5565b82525050565b60006020820190506110b46000830184611090565b92915050565b600080604083850312156110d1576110d0610ea0565b5b60006110df85828601610eee565b92505060206110f085828601610eee565b9150509250929050565b7f4e487b7100000000000000000000000000000000000000000000000000000000600052602260045260246000fd5b6000600282049050600182168061114157607f821691505b60208210811415611155576111546110fa565b5b50919050565b7f4e487b7100000000000000000000000000000000000000000000000000000000600052601160045260246000fd5b600061119582610f03565b91506111a083610f03565b9250827fffffffffffffffffffffffffffffffffffffffffffffffffffffffffffffffff038211156111d5576111d461115b565b5b828201905092915050565b7f45524332303a2064656372656173656420616c6c6f77616e63652062656c6f7760008201527f207a65726f000000000000000000000000000000000000000000000000000000602082015250565b600061123c602583610df0565b9150611247826111e0565b604082019050919050565b6000602082019050818103600083015261126b8161122f565b9050919050565b7f4f776e61626c653a206e6577206f776e657220697320746865207a65726f206160008201527f6464726573730000000000000000000000000000000000000000000000000000602082015250565b60006112ce602683610df0565b91506112d982611272565b604082019050919050565b600060208201905081810360008301526112fd816112c1565b9050919050565b7f45524332303a20617070726f76652066726f6d20746865207a65726f2061646460008201527f7265737300000000000000000000000000000000000000000000000000000000602082015250565b6000611360602483610df0565b915061136b82611304565b604082019050919050565b6000602082019050818103600083015261138f81611353565b9050919050565b7f45524332303a20617070726f766520746f20746865207a65726f20616464726560008201527f7373000000000000000000000000000000000000000000000000000000000000602082015250565b60006113f2602283610df0565b91506113fd82611396565b604082019050919050565b60006020820190508181036000830152611421816113e5565b9050919050565b7f45524332303a20696e73756666696369656e7420616c6c6f77616e6365000000600082015250565b600061145e601d83610df0565b915061146982611428565b602082019050919050565b6000602082019050818103600083015261148d81611451565b9050919050565b7f45524332303a207472616e736665722066726f6d20746865207a65726f20616460008201527f6472657373000000000000000000000000000000000000000000000000000000602082015250565b60006114f0602583610df0565b91506114fb82611494565b604082019050919050565b6000602082019050818103600083015261151f816114e3565b9050919050565b7f45524332303a207472616e7366657220746f20746865207a65726f206164647260008201527f6573730000000000000000000000000000000000000000000000000000000000602082015250565b6000611582602383610df0565b915061158d82611526565b604082019050919050565b600060208201905081810360008301526115b181611575565b9050919050565b7f45524332303a207472616e7366657220616d6f756e742065786365656473206260008201527f616c616e63650000000000000000000000000000000000000000000000000000602082015250565b6000611614602683610df0565b915061161f826115b8565b604082019050919050565b6000602082019050818103600083015261164381611607565b9050919050565b7f4f776e61626c653a2063616c6c6572206973206e6f7420746865206f776e6572600082015250565b6000611680602083610df0565b915061168b8261164a565b602082019050919050565b600060208201905081810360008301526116af81611673565b905091905056fea264697066735822122065c0d9d1546247b06635d22e3ce5893959df074bdf016250617f09ef9b4d1dc964736f6c634300080a0033",
  "linkReferences": {},
  "deployedLinkReferences": {}
}