{
  "_format": "hh-sol-artifact-1",
  "contractName": "NFTFarm",
  "sourceName": "contracts/core/NFTFarm.sol",
  "abi": [
    {
      "inputs": [
        {
          "internalType": "uint256",
          "name": "_emissionRate",
          "type": "uint256"
        },
        {
          "internalType": "contract DaiToken",
          "name": "_token",
          "type": "address"
        },
        {
          "internalType": "contract Crops",
          "name": "_crops",
          "type": "address"
        }
      ],
      "stateMutability": "nonpayable",
      "type": "constructor"
    },
    {
      "inputs": [],
      "name": "NFTFarm__InsufficientPoint",
      "type": "error"
    },
    {
      "inputs": [
        {
          "internalType": "uint256",
          "name": "ids",
          "type": "uint256"
        },
        {
          "internalType": "uint256",
          "name": "totals",
          "type": "uint256"
        },
        {
          "internalType": "uint256",
          "name": "prices",
          "type": "uint256"
        }
      ],
      "name": "NFTFarm__InvalidArrayLenght",
      "type": "error"
    },
    {
      "inputs": [
        {
          "internalType": "uint256",
          "name": "nftIndexes",
          "type": "uint256"
        },
        {
          "internalType": "uint256",
          "name": "quantities",
          "type": "uint256"
        }
      ],
      "name": "NFTFarm__InvalidClamArrayLenght",
      "type": "error"
    },
    {
      "inputs": [],
      "name": "NFTFarm__NotEnoughCrops",
      "type": "error"
    },
    {
      "inputs": [],
      "name": "NFTFarm__StackAmountNotZero",
      "type": "error"
    },
    {
      "anonymous": false,
      "inputs": [
        {
          "indexed": true,
          "internalType": "uint256",
          "name": "ids",
          "type": "uint256"
        },
        {
          "indexed": true,
          "internalType": "uint256",
          "name": "totals",
          "type": "uint256"
        }
      ],
      "name": "AddNFTs",
      "type": "event"
    },
    {
      "anonymous": false,
      "inputs": [
        {
          "indexed": true,
          "internalType": "uint256",
          "name": "nftIndexes",
          "type": "uint256"
        },
        {
          "indexed": true,
          "internalType": "uint256",
          "name": "quantities",
          "type": "uint256"
        }
      ],
      "name": "ClaimNFTs",
      "type": "event"
    },
    {
      "anonymous": false,
      "inputs": [
        {
          "indexed": true,
          "internalType": "address",
          "name": "previousOwner",
          "type": "address"
        },
        {
          "indexed": true,
          "internalType": "address",
          "name": "newOwner",
          "type": "address"
        }
      ],
      "name": "OwnershipTransferred",
      "type": "event"
    },
    {
      "anonymous": false,
      "inputs": [
        {
          "indexed": true,
          "internalType": "uint256",
          "name": "amount",
          "type": "uint256"
        }
      ],
      "name": "StakeTokens",
      "type": "event"
    },
    {
      "anonymous": false,
      "inputs": [
        {
          "indexed": true,
          "internalType": "address",
          "name": "user",
          "type": "address"
        },
        {
          "indexed": true,
          "internalType": "uint256",
          "name": "pointsDebt",
          "type": "uint256"
        }
      ],
      "name": "UnstakeTokens",
      "type": "event"
    },
    {
      "inputs": [
        {
          "internalType": "uint256[]",
          "name": "_ids",
          "type": "uint256[]"
        },
        {
          "internalType": "uint256[]",
          "name": "_totals",
          "type": "uint256[]"
        },
        {
          "internalType": "uint256[]",
          "name": "_prices",
          "type": "uint256[]"
        }
      ],
      "name": "addNFTs",
      "outputs": [],
      "stateMutability": "nonpayable",
      "type": "function"
    },
    {
      "inputs": [
        {
          "internalType": "uint256[]",
          "name": "_nftIndexes",
          "type": "uint256[]"
        },
        {
          "internalType": "uint256[]",
          "name": "_quantities",
          "type": "uint256[]"
        }
      ],
      "name": "claimNFTs",
      "outputs": [],
      "stateMutability": "nonpayable",
      "type": "function"
    },
    {
      "inputs": [],
      "name": "crops",
      "outputs": [
        {
          "internalType": "contract Crops",
          "name": "",
          "type": "address"
        }
      ],
      "stateMutability": "view",
      "type": "function"
    },
    {
      "inputs": [],
      "name": "emissionRate",
      "outputs": [
        {
          "internalType": "uint256",
          "name": "",
          "type": "uint256"
        }
      ],
      "stateMutability": "view",
      "type": "function"
    },
    {
      "inputs": [],
      "name": "nftCount",
      "outputs": [
        {
          "internalType": "uint256",
          "name": "",
          "type": "uint256"
        }
      ],
      "stateMutability": "view",
      "type": "function"
    },
    {
      "inputs": [
        {
          "internalType": "uint256",
          "name": "",
          "type": "uint256"
        }
      ],
      "name": "nftInfo",
      "outputs": [
        {
          "internalType": "uint256",
          "name": "id",
          "type": "uint256"
        },
        {
          "internalType": "uint256",
          "name": "remaining",
          "type": "uint256"
        },
        {
          "internalType": "uint256",
          "name": "price",
          "type": "uint256"
        }
      ],
      "stateMutability": "view",
      "type": "function"
    },
    {
      "inputs": [
        {
          "internalType": "address",
          "name": "",
          "type": "address"
        },
        {
          "internalType": "address",
          "name": "",
          "type": "address"
        },
        {
          "internalType": "uint256[]",
          "name": "",
          "type": "uint256[]"
        },
        {
          "internalType": "uint256[]",
          "name": "",
          "type": "uint256[]"
        },
        {
          "internalType": "bytes",
          "name": "",
          "type": "bytes"
        }
      ],
      "name": "onERC1155BatchReceived",
      "outputs": [
        {
          "internalType": "bytes4",
          "name": "",
          "type": "bytes4"
        }
      ],
      "stateMutability": "nonpayable",
      "type": "function"
    },
    {
      "inputs": [
        {
          "internalType": "address",
          "name": "",
          "type": "address"
        },
        {
          "internalType": "address",
          "name": "",
          "type": "address"
        },
        {
          "internalType": "uint256",
          "name": "",
          "type": "uint256"
        },
        {
          "internalType": "uint256",
          "name": "",
          "type": "uint256"
        },
        {
          "internalType": "bytes",
          "name": "",
          "type": "bytes"
        }
      ],
      "name": "onERC1155Received",
      "outputs": [
        {
          "internalType": "bytes4",
          "name": "",
          "type": "bytes4"
        }
      ],
      "stateMutability": "nonpayable",
      "type": "function"
    },
    {
      "inputs": [],
      "name": "owner",
      "outputs": [
        {
          "internalType": "address",
          "name": "",
          "type": "address"
        }
      ],
      "stateMutability": "view",
      "type": "function"
    },
    {
      "inputs": [
        {
          "internalType": "address",
          "name": "userAddress",
          "type": "address"
        }
      ],
      "name": "pointsBalance",
      "outputs": [
        {
          "internalType": "uint256",
          "name": "",
          "type": "uint256"
        }
      ],
      "stateMutability": "view",
      "type": "function"
    },
    {
      "inputs": [],
      "name": "renounceOwnership",
      "outputs": [],
      "stateMutability": "nonpayable",
      "type": "function"
    },
    {
      "inputs": [
        {
          "internalType": "uint256",
          "name": "_amount",
          "type": "uint256"
        }
      ],
      "name": "stakeTokens",
      "outputs": [],
      "stateMutability": "nonpayable",
      "type": "function"
    },
    {
      "inputs": [
        {
          "internalType": "bytes4",
          "name": "interfaceId",
          "type": "bytes4"
        }
      ],
      "name": "supportsInterface",
      "outputs": [
        {
          "internalType": "bool",
          "name": "",
          "type": "bool"
        }
      ],
      "stateMutability": "view",
      "type": "function"
    },
    {
      "inputs": [],
      "name": "token",
      "outputs": [
        {
          "internalType": "contract DaiToken",
          "name": "",
          "type": "address"
        }
      ],
      "stateMutability": "view",
      "type": "function"
    },
    {
      "inputs": [
        {
          "internalType": "address",
          "name": "newOwner",
          "type": "address"
        }
      ],
      "name": "transferOwnership",
      "outputs": [],
      "stateMutability": "nonpayable",
      "type": "function"
    },
    {
      "inputs": [],
      "name": "unstakeTokens",
      "outputs": [],
      "stateMutability": "nonpayable",
      "type": "function"
    },
    {
      "inputs": [
        {
          "internalType": "address",
          "name": "",
          "type": "address"
        }
      ],
      "name": "userInfo",
      "outputs": [
        {
          "internalType": "uint256",
          "name": "stakedAmount",
          "type": "uint256"
        },
        {
          "internalType": "uint256",
          "name": "lastUpdateAt",
          "type": "uint256"
        },
        {
          "internalType": "uint256",
          "name": "pointsDebt",
          "type": "uint256"
        }
      ],
      "stateMutability": "view",
      "type": "function"
    }
  ],
  "bytecode": "0x608060405234801561001057600080fd5b5060405161129e38038061129e83398101604081905261002f916100d7565b6100383361006f565b600192909255600280546001600160a01b039283166001600160a01b0319918216179091556003805492909316911617905561011a565b600080546001600160a01b038381166001600160a01b0319831681178455604051919092169283917f8be0079c531659141344cd1fd0a4f28419497f9722a3daafe3b4186f6b6457e09190a35050565b6001600160a01b03811681146100d457600080fd5b50565b6000806000606084860312156100ec57600080fd5b8351925060208401516100fe816100bf565b604085015190925061010f816100bf565b809150509250925092565b611175806101296000396000f3fe608060405234801561001057600080fd5b506004361061010b5760003560e01c8063715018a6116100a2578063a5ce413b11610071578063a5ce413b14610242578063bc197c811461024a578063f23a6e6114610282578063f2fde38b146102a1578063fc0c546a146102b457600080fd5b8063715018a61461020d5780637547c7a3146102155780638da5cb5b1461022857806396afc4501461023957600080fd5b806323c9bc52116100de57806323c9bc52146101a757806325ca4cff146101d25780634b427e64146101e5578063574e700f146101fa57600080fd5b806301ffc9a7146101105780630af2c6ca146101385780631959a0021461014a5780631f8bc79014610194575b600080fd5b61012361011e366004610bdd565b6102c7565b60405190151581526020015b60405180910390f35b6004545b60405190815260200161012f565b610179610158366004610c23565b60056020526000908152604090208054600182015460029092015490919083565b6040805193845260208401929092529082015260600161012f565b6101796101a2366004610c3e565b6102fe565b6003546101ba906001600160a01b031681565b6040516001600160a01b03909116815260200161012f565b61013c6101e0366004610c23565b610331565b6101f86101f3366004610ca2565b610390565b005b6101f8610208366004610d0d565b610670565b6101f8610834565b6101f8610223366004610c3e565b610848565b6000546001600160a01b03166101ba565b61013c60015481565b6101f8610955565b610269610258366004610eda565b63bc197c8160e01b95945050505050565b6040516001600160e01b0319909116815260200161012f565b610269610290366004610f83565b63f23a6e6160e01b95945050505050565b6101f86102af366004610c23565b610a90565b6002546101ba906001600160a01b031681565b60006001600160e01b03198216630271189760e51b14806102f857506301ffc9a760e01b6001600160e01b03198316145b92915050565b6004818154811061030e57600080fd5b600091825260209091206003909102018054600182015460029092015490925083565b6001600160a01b03811660009081526005602090815260408083208151606081018352815481526001820154938101939093526002810154918301919091529061037a90610b09565b81600201546103899190610ffd565b9392505050565b8281146103dd5760405162461bcd60e51b8152602060048201526016602482015275092dcc6dee4e4cac6e840c2e4e4c2f240d8cadccee8d60531b60448201526064015b60405180910390fd5b8281141561040857604051636876092560e01b815260048101849052602481018290526044016103d4565b60005b6001600160401b0381168411156105d057600060048686846001600160401b031681811061043b5761043b611015565b905060200201358154811061045257610452611015565b9060005260206000209060030201905060008484846001600160401b031681811061047f5761047f611015565b905060200201358260020154610495919061102b565b905060006104a233610331565b90508585856001600160401b03168181106104bf576104bf611015565b90506020020135836001015410156104ea57604051633d4f504360e11b815260040160405180910390fd5b81811061050a5760405163571b791b60e11b815260040160405180910390fd5b33600090815260056020908152604091829020825160608101845281548152600182015492810192909252600201549181019190915261054a838361104a565b60408083019182524260208085019182523360009081526005909152919091208351815590516001820155905160029091015586866001600160401b03871681811061059857610598611015565b905060200201358460010160008282546105b2919061104a565b925050819055505050505080806105c890611061565b91505061040b565b50600354604051631759616b60e11b81526001600160a01b0390911690632eb2c2d69061060b903090339089908990899089906004016110be565b600060405180830381600087803b15801561062557600080fd5b505af1158015610639573d6000803e3d6000fd5b50506040518392508591507f9fd4a33a7cbee3d9f21e207bf96003ffe9f38dc14e86ed40d90b5c57678be3f790600090a350505050565b610678610b33565b84831415806106875750828114155b156106b6576040516358744bdb60e01b81526004810186905260248101849052604481018290526064016103d4565b600354604051631759616b60e11b81526001600160a01b0390911690632eb2c2d6906106f090339030908b908b908b908b906004016110be565b600060405180830381600087803b15801561070a57600080fd5b505af115801561071e573d6000803e3d6000fd5b5050505060005b6001600160401b0381168611156107fe57600460405180606001604052808989856001600160401b031681811061075e5761075e611015565b9050602002013581526020018787856001600160401b031681811061078557610785611015565b9050602002013581526020018585856001600160401b03168181106107ac576107ac611015565b60209081029290920135909252835460018181018655600095865294829020845160039092020190815590830151938101939093555060400151600290910155806107f681611061565b915050610725565b50604051839086907fcb87aa06d2795b703d649af7782f4a7af688683e63d3855f3bdb1092ae21495290600090a3505050505050565b61083c610b33565b6108466000610b8d565b565b806108665760405163f739ca4960e01b815260040160405180910390fd5b6002546040516323b872dd60e01b8152336004820152306024820152604481018390526001600160a01b03909116906323b872dd906064016020604051808303816000875af11580156108bd573d6000803e3d6000fd5b505050506040513d601f19601f820116820180604052508101906108e1919061111d565b503360009081526005602052604090208054156109075761090133610331565b60028201555b8181600001600082825461091b9190610ffd565b909155505042600182015560405182907ff3c756dc29398342d2e11fb528b2eca687af69d47cb5222de3ad764b27fee6bb90600090a25050565b3360009081526005602090815260409182902082516060810184528154808252600183015493820193909352600290910154928101929092526109ab5760405163f739ca4960e01b815260040160405180910390fd5b600254815160405163a9059cbb60e01b815233600482015260248101919091526001600160a01b039091169063a9059cbb906044016020604051808303816000875af11580156109ff573d6000803e3d6000fd5b505050506040513d601f19601f82011682018060405250810190610a23919061111d565b50610a2d33610331565b6040808301918252600080845242602080860191825233808452600590915283832086518155915160018301559351600290910181905591519192917ff74a79d13d6fdbdf26b2c779e6a24490a43e65d60cc7e064740f8d40b2b5ea2c9190a350565b610a98610b33565b6001600160a01b038116610afd5760405162461bcd60e51b815260206004820152602660248201527f4f776e61626c653a206e6577206f776e657220697320746865207a65726f206160448201526564647265737360d01b60648201526084016103d4565b610b0681610b8d565b50565b8051600154600091610b1a9161102b565b6020830151610b29904261104a565b6102f8919061102b565b6000546001600160a01b031633146108465760405162461bcd60e51b815260206004820181905260248201527f4f776e61626c653a2063616c6c6572206973206e6f7420746865206f776e657260448201526064016103d4565b600080546001600160a01b038381166001600160a01b0319831681178455604051919092169283917f8be0079c531659141344cd1fd0a4f28419497f9722a3daafe3b4186f6b6457e09190a35050565b600060208284031215610bef57600080fd5b81356001600160e01b03198116811461038957600080fd5b80356001600160a01b0381168114610c1e57600080fd5b919050565b600060208284031215610c3557600080fd5b61038982610c07565b600060208284031215610c5057600080fd5b5035919050565b60008083601f840112610c6957600080fd5b5081356001600160401b03811115610c8057600080fd5b6020830191508360208260051b8501011115610c9b57600080fd5b9250929050565b60008060008060408587031215610cb857600080fd5b84356001600160401b0380821115610ccf57600080fd5b610cdb88838901610c57565b90965094506020870135915080821115610cf457600080fd5b50610d0187828801610c57565b95989497509550505050565b60008060008060008060608789031215610d2657600080fd5b86356001600160401b0380821115610d3d57600080fd5b610d498a838b01610c57565b90985096506020890135915080821115610d6257600080fd5b610d6e8a838b01610c57565b90965094506040890135915080821115610d8757600080fd5b50610d9489828a01610c57565b979a9699509497509295939492505050565b634e487b7160e01b600052604160045260246000fd5b604051601f8201601f191681016001600160401b0381118282101715610de457610de4610da6565b604052919050565b600082601f830112610dfd57600080fd5b813560206001600160401b03821115610e1857610e18610da6565b8160051b610e27828201610dbc565b9283528481018201928281019087851115610e4157600080fd5b83870192505b84831015610e6057823582529183019190830190610e47565b979650505050505050565b600082601f830112610e7c57600080fd5b81356001600160401b03811115610e9557610e95610da6565b610ea8601f8201601f1916602001610dbc565b818152846020838601011115610ebd57600080fd5b816020850160208301376000918101602001919091529392505050565b600080600080600060a08688031215610ef257600080fd5b610efb86610c07565b9450610f0960208701610c07565b935060408601356001600160401b0380821115610f2557600080fd5b610f3189838a01610dec565b94506060880135915080821115610f4757600080fd5b610f5389838a01610dec565b93506080880135915080821115610f6957600080fd5b50610f7688828901610e6b565b9150509295509295909350565b600080600080600060a08688031215610f9b57600080fd5b610fa486610c07565b9450610fb260208701610c07565b9350604086013592506060860135915060808601356001600160401b03811115610fdb57600080fd5b610f7688828901610e6b565b634e487b7160e01b600052601160045260246000fd5b6000821982111561101057611010610fe7565b500190565b634e487b7160e01b600052603260045260246000fd5b600081600019048311821515161561104557611045610fe7565b500290565b60008282101561105c5761105c610fe7565b500390565b60006001600160401b038083168181141561107e5761107e610fe7565b6001019392505050565b81835260006001600160fb1b038311156110a157600080fd5b8260051b8083602087013760009401602001938452509192915050565b6001600160a01b0387811682528616602082015260a0604082018190526000906110eb9083018688611088565b82810360608401526110fe818587611088565b8381036080909401939093525050600081526020019695505050505050565b60006020828403121561112f57600080fd5b8151801515811461038957600080fdfea2646970667358221220d20bf39bdf24ed94f5a2e1c27c3ea929cb14fc123526cc4c9c04e78117104d3a64736f6c634300080a0033",
  "linkReferences": {},
  "deployedLinkReferences": {}
}