{
  "_format": "hh-sol-artifact-1",
  "contractName": "NFTFarm",
  "sourceName": "contracts/core/NFTFarm.sol",
  "abi": [
    {
      "inputs": [
        {
          "internalType": "uint256",
          "name": "_emissionRate",
          "type": "uint256"
        },
        {
          "internalType": "contract DaiToken",
          "name": "_token",
          "type": "address"
        },
        {
          "internalType": "contract Crops",
          "name": "_crops",
          "type": "address"
        }
      ],
      "stateMutability": "nonpayable",
      "type": "constructor"
    },
    {
      "inputs": [],
      "name": "NFTFarm__InsufficientPoint",
      "type": "error"
    },
    {
      "inputs": [
        {
          "internalType": "uint256",
          "name": "ids",
          "type": "uint256"
        },
        {
          "internalType": "uint256",
          "name": "totals",
          "type": "uint256"
        },
        {
          "internalType": "uint256",
          "name": "prices",
          "type": "uint256"
        }
      ],
      "name": "NFTFarm__InvalidArrayLenght",
      "type": "error"
    },
    {
      "inputs": [
        {
          "internalType": "uint256",
          "name": "nftIndexes",
          "type": "uint256"
        },
        {
          "internalType": "uint256",
          "name": "quantities",
          "type": "uint256"
        }
      ],
      "name": "NFTFarm__InvalidClamArrayLenght",
      "type": "error"
    },
    {
      "inputs": [],
      "name": "NFTFarm__NotEnoughCrops",
      "type": "error"
    },
    {
      "inputs": [],
      "name": "NFTFarm__StackAmountNotZero",
      "type": "error"
    },
    {
      "inputs": [],
      "name": "NFTFarm__TransferFail",
      "type": "error"
    },
    {
      "anonymous": false,
      "inputs": [
        {
          "indexed": true,
          "internalType": "uint256",
          "name": "ids",
          "type": "uint256"
        },
        {
          "indexed": true,
          "internalType": "uint256",
          "name": "totals",
          "type": "uint256"
        }
      ],
      "name": "AddNFTs",
      "type": "event"
    },
    {
      "anonymous": false,
      "inputs": [
        {
          "indexed": true,
          "internalType": "uint256",
          "name": "nftIndexes",
          "type": "uint256"
        },
        {
          "indexed": true,
          "internalType": "uint256",
          "name": "quantities",
          "type": "uint256"
        }
      ],
      "name": "ClaimNFTs",
      "type": "event"
    },
    {
      "anonymous": false,
      "inputs": [
        {
          "indexed": true,
          "internalType": "address",
          "name": "previousOwner",
          "type": "address"
        },
        {
          "indexed": true,
          "internalType": "address",
          "name": "newOwner",
          "type": "address"
        }
      ],
      "name": "OwnershipTransferred",
      "type": "event"
    },
    {
      "anonymous": false,
      "inputs": [
        {
          "indexed": true,
          "internalType": "uint256",
          "name": "amount",
          "type": "uint256"
        }
      ],
      "name": "StakeTokens",
      "type": "event"
    },
    {
      "anonymous": false,
      "inputs": [
        {
          "indexed": true,
          "internalType": "address",
          "name": "user",
          "type": "address"
        },
        {
          "indexed": true,
          "internalType": "uint256",
          "name": "pointsDebt",
          "type": "uint256"
        }
      ],
      "name": "UnstakeTokens",
      "type": "event"
    },
    {
      "inputs": [
        {
          "internalType": "uint256[]",
          "name": "_ids",
          "type": "uint256[]"
        },
        {
          "internalType": "uint256[]",
          "name": "_totals",
          "type": "uint256[]"
        },
        {
          "internalType": "uint256[]",
          "name": "_prices",
          "type": "uint256[]"
        }
      ],
      "name": "addNFTs",
      "outputs": [],
      "stateMutability": "nonpayable",
      "type": "function"
    },
    {
      "inputs": [
        {
          "internalType": "uint256[]",
          "name": "_nftIndexes",
          "type": "uint256[]"
        },
        {
          "internalType": "uint256[]",
          "name": "_quantities",
          "type": "uint256[]"
        }
      ],
      "name": "claimNFTs",
      "outputs": [],
      "stateMutability": "nonpayable",
      "type": "function"
    },
    {
      "inputs": [],
      "name": "crops",
      "outputs": [
        {
          "internalType": "contract Crops",
          "name": "",
          "type": "address"
        }
      ],
      "stateMutability": "view",
      "type": "function"
    },
    {
      "inputs": [],
      "name": "emissionRate",
      "outputs": [
        {
          "internalType": "uint256",
          "name": "",
          "type": "uint256"
        }
      ],
      "stateMutability": "view",
      "type": "function"
    },
    {
      "inputs": [],
      "name": "nftCount",
      "outputs": [
        {
          "internalType": "uint256",
          "name": "",
          "type": "uint256"
        }
      ],
      "stateMutability": "view",
      "type": "function"
    },
    {
      "inputs": [
        {
          "internalType": "uint256",
          "name": "",
          "type": "uint256"
        }
      ],
      "name": "nftInfo",
      "outputs": [
        {
          "internalType": "uint256",
          "name": "id",
          "type": "uint256"
        },
        {
          "internalType": "uint256",
          "name": "remaining",
          "type": "uint256"
        },
        {
          "internalType": "uint256",
          "name": "price",
          "type": "uint256"
        }
      ],
      "stateMutability": "view",
      "type": "function"
    },
    {
      "inputs": [
        {
          "internalType": "address",
          "name": "",
          "type": "address"
        },
        {
          "internalType": "address",
          "name": "",
          "type": "address"
        },
        {
          "internalType": "uint256[]",
          "name": "",
          "type": "uint256[]"
        },
        {
          "internalType": "uint256[]",
          "name": "",
          "type": "uint256[]"
        },
        {
          "internalType": "bytes",
          "name": "",
          "type": "bytes"
        }
      ],
      "name": "onERC1155BatchReceived",
      "outputs": [
        {
          "internalType": "bytes4",
          "name": "",
          "type": "bytes4"
        }
      ],
      "stateMutability": "nonpayable",
      "type": "function"
    },
    {
      "inputs": [
        {
          "internalType": "address",
          "name": "",
          "type": "address"
        },
        {
          "internalType": "address",
          "name": "",
          "type": "address"
        },
        {
          "internalType": "uint256",
          "name": "",
          "type": "uint256"
        },
        {
          "internalType": "uint256",
          "name": "",
          "type": "uint256"
        },
        {
          "internalType": "bytes",
          "name": "",
          "type": "bytes"
        }
      ],
      "name": "onERC1155Received",
      "outputs": [
        {
          "internalType": "bytes4",
          "name": "",
          "type": "bytes4"
        }
      ],
      "stateMutability": "nonpayable",
      "type": "function"
    },
    {
      "inputs": [],
      "name": "owner",
      "outputs": [
        {
          "internalType": "address",
          "name": "",
          "type": "address"
        }
      ],
      "stateMutability": "view",
      "type": "function"
    },
    {
      "inputs": [
        {
          "internalType": "address",
          "name": "userAddress",
          "type": "address"
        }
      ],
      "name": "pointsBalance",
      "outputs": [
        {
          "internalType": "uint256",
          "name": "",
          "type": "uint256"
        }
      ],
      "stateMutability": "view",
      "type": "function"
    },
    {
      "inputs": [],
      "name": "renounceOwnership",
      "outputs": [],
      "stateMutability": "nonpayable",
      "type": "function"
    },
    {
      "inputs": [
        {
          "internalType": "uint256",
          "name": "_amount",
          "type": "uint256"
        }
      ],
      "name": "stakeTokens",
      "outputs": [],
      "stateMutability": "nonpayable",
      "type": "function"
    },
    {
      "inputs": [
        {
          "internalType": "bytes4",
          "name": "interfaceId",
          "type": "bytes4"
        }
      ],
      "name": "supportsInterface",
      "outputs": [
        {
          "internalType": "bool",
          "name": "",
          "type": "bool"
        }
      ],
      "stateMutability": "view",
      "type": "function"
    },
    {
      "inputs": [],
      "name": "token",
      "outputs": [
        {
          "internalType": "contract DaiToken",
          "name": "",
          "type": "address"
        }
      ],
      "stateMutability": "view",
      "type": "function"
    },
    {
      "inputs": [
        {
          "internalType": "address",
          "name": "newOwner",
          "type": "address"
        }
      ],
      "name": "transferOwnership",
      "outputs": [],
      "stateMutability": "nonpayable",
      "type": "function"
    },
    {
      "inputs": [],
      "name": "unstakeTokens",
      "outputs": [],
      "stateMutability": "nonpayable",
      "type": "function"
    },
    {
      "inputs": [
        {
          "internalType": "address",
          "name": "",
          "type": "address"
        }
      ],
      "name": "userInfo",
      "outputs": [
        {
          "internalType": "uint256",
          "name": "stakedAmount",
          "type": "uint256"
        },
        {
          "internalType": "uint256",
          "name": "lastUpdateAt",
          "type": "uint256"
        },
        {
          "internalType": "uint256",
          "name": "pointsDebt",
          "type": "uint256"
        }
      ],
      "stateMutability": "view",
      "type": "function"
    }
  ],
  "bytecode": "0x60806040523480156200001157600080fd5b506040516200376c3803806200376c833981810160405281019062000037919062000422565b620000576200004b6200025560201b60201c565b6200025d60201b60201c565b6200008b7f350badf17b5f61d54c6a25879b8761509d8f6abe83fb2c2f46d97745025feb8660001b6200032160201b60201c565b620000bf7fad94680bd393f351e09e1447d18a519b966f4b85dce0842010fcb64cb1cb4ab960001b6200032160201b60201c565b620000f37f4629ad871df35a32dbbba52f78f187a10f72ace03795542fd728777dd7b05eea60001b6200032160201b60201c565b826001819055506200012e7fcbfca0ce99d458b25f22b6feed42c3dcba877693b448eccf91985ba84425cf0360001b6200032160201b60201c565b620001627fa4bc108a0074e83620a003330710d31a1677414e8c779f5a0cdf902430b10d6060001b6200032160201b60201c565b81600260006101000a81548173ffffffffffffffffffffffffffffffffffffffff021916908373ffffffffffffffffffffffffffffffffffffffff160217905550620001d77f085fa250cebd1c4207ff4f2c8274e2113aeb247e975fd6ccc0765d9ec464dad060001b6200032160201b60201c565b6200020b7f636a2796119d345763b90c705da2b58d3f7729db80905bd81ef7c84d5a6dead760001b6200032160201b60201c565b80600360006101000a81548173ffffffffffffffffffffffffffffffffffffffff021916908373ffffffffffffffffffffffffffffffffffffffff1602179055505050506200047e565b600033905090565b60008060009054906101000a900473ffffffffffffffffffffffffffffffffffffffff169050816000806101000a81548173ffffffffffffffffffffffffffffffffffffffff021916908373ffffffffffffffffffffffffffffffffffffffff1602179055508173ffffffffffffffffffffffffffffffffffffffff168173ffffffffffffffffffffffffffffffffffffffff167f8be0079c531659141344cd1fd0a4f28419497f9722a3daafe3b4186f6b6457e060405160405180910390a35050565b50565b600080fd5b6000819050919050565b6200033e8162000329565b81146200034a57600080fd5b50565b6000815190506200035e8162000333565b92915050565b600073ffffffffffffffffffffffffffffffffffffffff82169050919050565b6000620003918262000364565b9050919050565b6000620003a58262000384565b9050919050565b620003b78162000398565b8114620003c357600080fd5b50565b600081519050620003d781620003ac565b92915050565b6000620003ea8262000384565b9050919050565b620003fc81620003dd565b81146200040857600080fd5b50565b6000815190506200041c81620003f1565b92915050565b6000806000606084860312156200043e576200043d62000324565b5b60006200044e868287016200034d565b93505060206200046186828701620003c6565b925050604062000474868287016200040b565b9150509250925092565b6132de806200048e6000396000f3fe608060405234801561001057600080fd5b506004361061010b5760003560e01c8063715018a6116100a2578063a5ce413b11610071578063a5ce413b146102aa578063bc197c81146102b4578063f23a6e61146102e4578063f2fde38b14610314578063fc0c546a146103305761010b565b8063715018a6146102485780637547c7a3146102525780638da5cb5b1461026e57806396afc4501461028c5761010b565b806323c9bc52116100de57806323c9bc52146101c257806325ca4cff146101e05780634b427e6414610210578063574e700f1461022c5761010b565b806301ffc9a7146101105780630af2c6ca146101405780631959a0021461015e5780631f8bc79014610190575b600080fd5b61012a6004803603810190610125919061265d565b61034e565b60405161013791906126a5565b60405180910390f35b6101486103c8565b60405161015591906126d9565b60405180910390f35b61017860048036038101906101739190612752565b610459565b6040516101879392919061277f565b60405180910390f35b6101aa60048036038101906101a591906127e2565b610483565b6040516101b99392919061277f565b60405180910390f35b6101ca6104bd565b6040516101d7919061286e565b60405180910390f35b6101fa60048036038101906101f59190612752565b6104e3565b60405161020791906126d9565b60405180910390f35b61022a600480360381019061022591906128ee565b61064d565b005b6102466004803603810190610241919061296f565b6110a0565b005b610250611548565b005b61026c600480360381019061026791906127e2565b61155c565b005b610276611bd4565b6040516102839190612a32565b60405180910390f35b610294611bfd565b6040516102a191906126d9565b60405180910390f35b6102b2611c03565b005b6102ce60048036038101906102c99190612c51565b6122ad565b6040516102db9190612d2f565b60405180910390f35b6102fe60048036038101906102f99190612d4a565b6122c2565b60405161030b9190612d2f565b60405180910390f35b61032e60048036038101906103299190612752565b6122d7565b005b61033861235b565b6040516103459190612e02565b60405180910390f35b60007f4e2312e0000000000000000000000000000000000000000000000000000000007bffffffffffffffffffffffffffffffffffffffffffffffffffffffff1916827bffffffffffffffffffffffffffffffffffffffffffffffffffffffff191614806103c157506103c082612381565b5b9050919050565b60006103f67fd9457cbeff8e18ec5a735efd7785f8f78f59bbb9e93b126e49a1c392265806ef60001b6123eb565b6104227f35c85afa05d9d0ed9be1d716e4e5d13e1afb551cc3f5724b8c5fde965a86783860001b6123eb565b61044e7f97f56647143f5f95ddfea8f8b8d199872cd207b4d2227dc176451bdec00ef32360001b6123eb565b600480549050905090565b60056020528060005260406000206000915090508060000154908060010154908060020154905083565b6004818154811061049357600080fd5b90600052602060002090600302016000915090508060000154908060010154908060020154905083565b600360009054906101000a900473ffffffffffffffffffffffffffffffffffffffff1681565b60006105117ffd17a5423f1c25cd78c825b57def40a655a8afaa1e117546bc3d1de75b0c1c7660001b6123eb565b61053d7f315cc3fd4d04b4c51fb1ebe6664902adb6b80d7d9d4a35bf579ce74e9fc84ccd60001b6123eb565b6105697fb918b339997b3ec0ee02a7b395ea6b17efbf4e4e61d26098648ceb88115f4de760001b6123eb565b6000600560008473ffffffffffffffffffffffffffffffffffffffff1673ffffffffffffffffffffffffffffffffffffffff16815260200190815260200160002090506105d87f7ed32276489cb3566972d194c2ebb1ad99bd504881a4ab14e0addf578b6f44cb60001b6123eb565b6106047fa856cd6a830d3d8442ab63c43e8f2792865ba6a86a2993eeea43f4815fb2694d60001b6123eb565b6106368160405180606001604052908160008201548152602001600182015481526020016002820154815250506123ee565b81600201546106459190612e4c565b915050919050565b6106797f9efefdc76c33ffa0a1d0e42626fffe8446d141c8b60a848850067540a7129c9b60001b6123eb565b6106a57fcee28df87ec04f996efd23606aba26154e9a60f2261412f19682035937b66fdc60001b6123eb565b6106d17ffd1f399a681a5cd5a839c900e8703b00beedd20096c321ee966e14dc432e98bd60001b6123eb565b81819050848490501461077b5761070a7fdf3408038d0962778fc06dfc455697303cc412105958ce50d6961c92fdd4bb1d60001b6123eb565b6107367f038fc16e224d71c8bb8554aa71e639722c52a3c9717934bd4194a034cfb18a7160001b6123eb565b83839050828290506040517f68760925000000000000000000000000000000000000000000000000000000008152600401610772929190612ea2565b60405180910390fd5b6107a77f6b347191b8086652c2ca85e5e959ef418fdfcfbfa67d17a6306483144cd34b9760001b6123eb565b6107d37fce9cf8f3ddb16a372cfba9abe8e33b735bfd2c88aae512372df47c9bfc4434f660001b6123eb565b6107ff7f7974f72978aefcbf8bfc370ff3dff51d90754b312b72a76e9f61122a8ac9f92d60001b6123eb565b60005b848490508167ffffffffffffffff161015610f1e576108437fe5015653672843249ec6d48e78a33f245c54bf9487d98a6e05f978a4428bc85760001b6123eb565b61086f7f2e8fa3dd3ee3a86503b091f28f40d87a7ee5cb0e1cd6af1cec17c6979797571f60001b6123eb565b6000600486868467ffffffffffffffff168181106108905761088f612ecb565b5b90506020020135815481106108a8576108a7612ecb565b5b90600052602060002090600302016040518060600160405290816000820154815260200160018201548152602001600282015481525050905061090d7fa363c7b9f298cca2e5eb5ea12e5a04e9123d47e62b79d99144597aeb45b0417a60001b6123eb565b6109397f0c86caa6536d64dbef1db28a021d5718a4e98bec1e261a54a2ae3e34875a3e5e60001b6123eb565b600084848467ffffffffffffffff1681811061095857610957612ecb565b5b90506020020135826040015161096e9190612efa565b905061099c7fea4a0b0d1fc3d13d2ebc8ec3c58c2a735e5a51078c7eb487a2a8d550584f254460001b6123eb565b6109c87f3ff7e534770c66b51d7d1a0f6d0ea1df87272ca8ec607786e1c6b156d096132c60001b6123eb565b60006109d3336104e3565b9050610a017f6566f205b490bb9b5e6e46b103ccb4bf02ad8e87535d1bc869e2114cc4e6f92b60001b6123eb565b610a2d7f1543ebcf4707c0c3ebd79bcd4b60ed622fdaf70d5f6f81d8e8b0c7b05ec25c0b60001b6123eb565b85858567ffffffffffffffff16818110610a4a57610a49612ecb565b5b9050602002013583602001511015610ae657610a887f5083f9eba6f29e5b98fc22a244be16d92a465c9ce310b360e18368349a14d23860001b6123eb565b610ab47f8d77343c735dfe05d93fe49761223c8576346f599a72ae641bebfb1305c69a8f60001b6123eb565b6040517f7a9ea08600000000000000000000000000000000000000000000000000000000815260040160405180910390fd5b610b127f8fb2a3bd2e2f67cdec2c8dd271533838cc38f72cbc1fff7ec8a82bc946acae3a60001b6123eb565b610b3e7faf8bce03a9059f4ab6f07b78c2f3143e33af18decbf1173d48ee09489b86895b60001b6123eb565b610b6a7f21bb44374bdef6182c2615d100964e7ce3eac0023ff5749f8396496795c1133e60001b6123eb565b818111610bfb57610b9d7f516083042849bcc93b01e821c6925048318a77cb93f7597e8d2106408ca88f8560001b6123eb565b610bc97f6cd0f3eb9bf1d7b09e32a3a52861a5e14d9c01b1204a3ead249124296ea3c22a60001b6123eb565b6040517fae36f23600000000000000000000000000000000000000000000000000000000815260040160405180910390fd5b610c277f3a041e56aec2e060f189da17725ccaefabe873371511b31939c9a5d17f66f9f060001b6123eb565b610c537f55b0def40879a4831a88baf7670ec9a93fe747c6a90e8b7d94ff967f0a3c69a860001b6123eb565b610c7f7f6d0d06e5ede4a2a31586c33cafc9cbbf858a7eb2ea670a4c195e8e00ffe16fcc60001b6123eb565b6000600560003373ffffffffffffffffffffffffffffffffffffffff1673ffffffffffffffffffffffffffffffffffffffff16815260200190815260200160002060405180606001604052908160008201548152602001600182015481526020016002820154815250509050610d177f5186fd761707fdaef8a861d1229e8a494ce9d9bb97203067afc600ddd7fd009360001b6123eb565b610d437f81dfeb15ac57051f6b17bcf8994b6055d97e13882370dfd0f2af81e9353c4a0160001b6123eb565b8282610d4f9190612f54565b816040018181525050610d847f02778d604ffb78d8f73ae60553aaca66f51784b42e18327d211b2805c4380e7460001b6123eb565b610db07f1150e3eee60898e86c03b406f6da5cb5a996199547b49910d4b9583a6528335360001b6123eb565b42816020018181525050610de67f83f4340c6057fb8649b2dbe825425d52d6357c470bd32f4e29f3477388dd200760001b6123eb565b610e127fce372e87b306792bc37a578c304f5aa713ddfe047bb765de9ae3cb69f939d38360001b6123eb565b80600560003373ffffffffffffffffffffffffffffffffffffffff1673ffffffffffffffffffffffffffffffffffffffff168152602001908152602001600020600082015181600001556020820151816001015560408201518160020155905050610e9f7f601587edfd532fb58192043fcf9a6d8abebb7b95a6cf4d2a4f7ad447fc22ae6160001b6123eb565b610ecb7f98d019b04211eba4ee64bb8f12287b594d19c5a96413da411c8e86f3dff652d960001b6123eb565b86868667ffffffffffffffff16818110610ee857610ee7612ecb565b5b9050602002013584602001818151610f009190612f54565b91508181525050505050508080610f1690612f9c565b915050610802565b50610f4b7f630acbc04024bbff664ca4cd4b3e15c7b98fa34d35d60b809ac6659581fcb5e660001b6123eb565b610f777ffeea0be01674bd62b8473584f91cf49b4d298d0c68d29ce1978628d93681194460001b6123eb565b600360009054906101000a900473ffffffffffffffffffffffffffffffffffffffff1673ffffffffffffffffffffffffffffffffffffffff16632eb2c2d63033878787876040518763ffffffff1660e01b8152600401610fdc96959493929190613076565b600060405180830381600087803b158015610ff657600080fd5b505af115801561100a573d6000803e3d6000fd5b5050505061103a7fa744422e01ae35031f8bb1e55c9cab889364cca592a8dec5fe04795026fd111160001b6123eb565b6110667fb27c4f07d162c6faea0f909d6116b41b4c4c9d0ca5f6526dd291b84a47bbc64f60001b6123eb565b81819050848490507f9fd4a33a7cbee3d9f21e207bf96003ffe9f38dc14e86ed40d90b5c57678be3f760405160405180910390a350505050565b6110a86124a7565b6110d47fe558febd7c7f47161bd8aaca91768b5bbc9d85f3ae8665b44a4c88780ea66e0960001b6123eb565b6111007fe7c50830249099e2a6a8d3f615b51aa708cb8e97d3005a1e6c74229fdc81490860001b6123eb565b61112c7fba3944b741465451a94576e1968c7dcd86a38d26addf5650a3688dabb2b9fbbe60001b6123eb565b83839050868690501415806111475750818190508484905014155b156111ee576111787fa36dcd58d2d3f389aa979cd00592db4456c4fd2fdb6335c67bbce73edeb4e40960001b6123eb565b6111a47feb1276c5d22d3b563904bf001079808b1233b0391db1f58520ed6738eac7192160001b6123eb565b8585905084849050838390506040517f58744bdb0000000000000000000000000000000000000000000000000000000081526004016111e59392919061277f565b60405180910390fd5b61121a7f035490a75081c3d4f329f743e75cb7148fd1123c793e01936d5c4896f2b5e73f60001b6123eb565b6112467f151b94aa169c4eccb99c5c371496a65fa45d74c5d2b3c6a7eac726922fefb9a360001b6123eb565b6112727f0ac76adce2934fa002af6f971bbc928e5d4d0c8bdba09569aa52499030275d1d60001b6123eb565b600360009054906101000a900473ffffffffffffffffffffffffffffffffffffffff1673ffffffffffffffffffffffffffffffffffffffff16632eb2c2d63330898989896040518763ffffffff1660e01b81526004016112d796959493929190613076565b600060405180830381600087803b1580156112f157600080fd5b505af1158015611305573d6000803e3d6000fd5b505050506113357ffa084bc85ef423077c48634de1e4462c1a5bc021b53a700cb2c525332aed079f60001b6123eb565b6113617f091f2ed8e82468e94d1119e96d6e9ef96d552398ed04492ad9f3927d3e85757760001b6123eb565b60005b868690508167ffffffffffffffff1610156114b3576113a57f043d0713c04b14c812a7bc3491a5101d643a65312ca49bf558244aeb5b1a34d760001b6123eb565b6113d17fe5739a1f668597d2b6740fb9c9abbb4507432b6b9f33603f5d837fd65d3914bf60001b6123eb565b6004604051806060016040528089898567ffffffffffffffff168181106113fb576113fa612ecb565b5b90506020020135815260200187878567ffffffffffffffff1681811061142457611423612ecb565b5b90506020020135815260200185858567ffffffffffffffff1681811061144d5761144c612ecb565b5b905060200201358152509080600181540180825580915050600190039060005260206000209060030201600090919091909150600082015181600001556020820151816001015560408201518160020155505080806114ab90612f9c565b915050611364565b506114e07f57e98a03010addd0806879fb346b914d57dbc65edd3a42bc860e17178f6d477160001b6123eb565b61150c7f58c83d8da6657ea8bf10df6a4b74ec0d16ab0cd63d693c25e18e2243a768fcbd60001b6123eb565b83839050868690507fcb87aa06d2795b703d649af7782f4a7af688683e63d3855f3bdb1092ae21495260405160405180910390a3505050505050565b6115506124a7565b61155a6000612525565b565b6115887fb2b05d97493734d7ef58a9c111b65e7ed3291af54c986fe1b2f2b6ac7789ade860001b6123eb565b6115b47f01c5c367be2995bab523931f625cb85c82820fc86d7d102646187daecaebf80f60001b6123eb565b6115e07f6005f89a35a55e7662cb8798d72bb0e4df2f8270458a32c2c7dff990b7d3116d60001b6123eb565b6000811415611673576116157f8d75eee714fe7e86cc25299a2923760490a2baf39947cd99199c4ccd695a20be60001b6123eb565b6116417f57186cf433899bb71fd7ec667a0cea32679cc962475181e95a76b85365d13f5260001b6123eb565b6040517ff739ca4900000000000000000000000000000000000000000000000000000000815260040160405180910390fd5b61169f7f61ce91c5e7f5aeda3b79980b6b8c6a0b8c52ab64881b41f1ea6861b04bb4ae9060001b6123eb565b6116cb7f52675f40da1753aa6ba5f588470be1a663e97a4cff45871feb75f6bb3d87f81360001b6123eb565b6116f77fa5e391e1fdee56d3abfc9f631a2fb7ce0b8767417763ff8f24c1c1bb21ba146c60001b6123eb565b6000600260009054906101000a900473ffffffffffffffffffffffffffffffffffffffff1673ffffffffffffffffffffffffffffffffffffffff166323b872dd3330856040518463ffffffff1660e01b8152600401611758939291906130e0565b6020604051808303816000875af1158015611777573d6000803e3d6000fd5b505050506040513d601f19601f8201168201806040525081019061179b9190613143565b90506117c97fa8d10d33b6b981610bdd96058b6f16f40d0f0b3b0b03a92f34d0b589a5c29ee860001b6123eb565b6117f57fc74163b09ea9ccaa5522e854ca6abf753725d29dae35f48cdae76add6d8aed3360001b6123eb565b80611884576118267f23cbff258465ff1771320436d5ae82fc904ab4338efcd84deb026d9140f3be1c60001b6123eb565b6118527f83a0b934e68070793febafb3471712163ff9dc5fb335bce8950adf7668b0f33a60001b6123eb565b6040517f720a77e000000000000000000000000000000000000000000000000000000000815260040160405180910390fd5b6118b07fe0979cf01942e6d34ab714a6420a130afc99c79af1fc1276ab39e3eff1c2999460001b6123eb565b6118dc7fba9759229647f9109e06ff31cc045102f799f0f30e93d8285153b86ee3f5a60560001b6123eb565b6119087fe2298baf709f6af4fd78d78da4979f8245a2076148c578d49e4859b515353e4060001b6123eb565b6000600560003373ffffffffffffffffffffffffffffffffffffffff1673ffffffffffffffffffffffffffffffffffffffff16815260200190815260200160002090506119777f40875d04424a215fb757fc88744a9b74eaf98d197a748fc3c1bc5d28229efdc660001b6123eb565b6119a37f0690a07475c4e0ee9fafcc003efd624690e3e4bcd3920f0eb8a8882ecfadf2b360001b6123eb565b6000816000015414611a49576119db7fb9a42c10932fd53aa5562390da679d07afc60de7efe9f5d36d42069fa56b3dae60001b6123eb565b611a077f3da4c79ebf27613abcbd3a438670547def327ecf13b538e1e5bacd7eb432284060001b6123eb565b611a337fb995ff1a9c10faebbb08f0d193fac8dc62eb7eb8cc75978e28809a099e2fa26f60001b6123eb565b611a3c336104e3565b8160020181905550611a76565b611a757fcca56d86c453273a5bb039b7fb4ed9df8fc3801c80c80fd2d1a2626521f39cf860001b6123eb565b5b611aa27f59c62d9e524ba133224b2e43c3c12ecb1f1ab5d64c863681d41c01c9ecc8ec8360001b6123eb565b611ace7fd8712738b5561dc33bc3923237a5a494ac33f896df51d3c0ce47e66f4f6a3bc760001b6123eb565b82816000016000828254611ae29190612e4c565b92505081905550611b157f19b63e1d1636cd68ee1069f4cefe779bc81f5b9201e1978cd0a5525b8963a2d860001b6123eb565b611b417feb2e3c1ec1bfd01f2fede4227934dd762a89ec65f10e634408d2a18be314fc8b60001b6123eb565b428160010181905550611b767f22e710967faab82b96a685e6562953684dca1fbb9137c5fb4f02b8ef3671b3a260001b6123eb565b611ba27fab0635faeaf956d004769dd4670a54fccd42298bc2f3fd98c0f0de1074b5202460001b6123eb565b827ff3c756dc29398342d2e11fb528b2eca687af69d47cb5222de3ad764b27fee6bb60405160405180910390a2505050565b60008060009054906101000a900473ffffffffffffffffffffffffffffffffffffffff16905090565b60015481565b611c2f7f6a38b1a3894f3277f7d639d46dd0e631312245ffbf1239ed4e7b4be59195291360001b6123eb565b611c5b7fc22158ae048a01e6d91d4e08c607c86bfeff8caa5e578eca917b8625c3b270b760001b6123eb565b611c877ff78f7cb6b32f99707fb4a5509dfd09ef8df0ca9402e4630c0f0370df102c366a60001b6123eb565b6000600560003373ffffffffffffffffffffffffffffffffffffffff1673ffffffffffffffffffffffffffffffffffffffff16815260200190815260200160002060405180606001604052908160008201548152602001600182015481526020016002820154815250509050611d1f7f4257cde32b2436088b079e08d362578ddcf5c4fbafd3d2aabaccb51d2555211d60001b6123eb565b611d4b7fd1970ff6755be5ce40ff9d8c58e22856066cd7fa3a34ec322a6c7e0d6c68be3a60001b6123eb565b600081600001511415611de257611d847f148fef2851eda6c2964f06901409477c87fcba3a359ea511fa26d0bf46c79e7860001b6123eb565b611db07f5f6a519a4f43bc462cd2a9e3e4042a35624ef2e83b085d59491400176f87042660001b6123eb565b6040517ff739ca4900000000000000000000000000000000000000000000000000000000815260040160405180910390fd5b611e0e7f79247f18fa3fc1a7002f99bdefbde089105ba600f10afce8af7f27df13ba253160001b6123eb565b611e3a7fc47dee3d366da8e9251935988262e117adc1b18526932a13d315b2073106099660001b6123eb565b611e667fa29a505ce52bf859464674778208c246e53e672aa2c753d51340fa963177f80d60001b6123eb565b6000600260009054906101000a900473ffffffffffffffffffffffffffffffffffffffff1673ffffffffffffffffffffffffffffffffffffffff1663a9059cbb3384600001516040518363ffffffff1660e01b8152600401611ec9929190613170565b6020604051808303816000875af1158015611ee8573d6000803e3d6000fd5b505050506040513d601f19601f82011682018060405250810190611f0c9190613143565b9050611f3a7f69b367f1fa6abb5c46ddf812fbfcec5f47156a8f35ee200e44127e94298c313260001b6123eb565b611f667f639a248d77f480e353bb736b115e23928f7e1f8d37df985e844453738696d3b660001b6123eb565b80611ff557611f977facccbff8bb18278b2e53b0103da20228502ec62871d670775f730879d06a22bc60001b6123eb565b611fc37fd2e0bd74f6f148299c84c0e4205a37220482f2815f1ce0162679a19c088b627d60001b6123eb565b6040517f720a77e000000000000000000000000000000000000000000000000000000000815260040160405180910390fd5b6120217ff04aabef87465f618c2c916c1fd0accc1142ec96d7af9796c3f87371ce21427260001b6123eb565b61204d7fbea53ec3771eaf72e61b97b25b8d145204f05ab92d1610c51eb657ab16827b2f60001b6123eb565b6120797f73e406e74aa9d6119bd8fb3d0893129877b462c0d469bb72c4c2f91d8606d60960001b6123eb565b612082336104e3565b8260400181815250506120b77fd6d89f1376c0f0f80d8d953463a75ab816dfe5f310da77961e13d8c1d0cda8f460001b6123eb565b6120e37ffee6d62b84ef7ba083ce06bc600e86243aad261cb45b9d92d5f0133b1025c37760001b6123eb565b600082600001818152505061211a7f97c84fc99bf56bd061eaf98ee573c2d57b70f43091d928d547b3c11185ed56d760001b6123eb565b6121467f47e4b3fbf38ff90bea50052a0fd0435f3a0a4d80d5c8b6c6262ef8108f15446a60001b6123eb565b4282602001818152505061217c7f154472f7fcd481be45adebd3dc94d5fbcf0d93ef956aea6ec1ef198ad24089ba60001b6123eb565b6121a87f48615ea326e98843ea0fb34e2870b0390f6dfde8ce8cef70552a1d450b57b73660001b6123eb565b81600560003373ffffffffffffffffffffffffffffffffffffffff1673ffffffffffffffffffffffffffffffffffffffff1681526020019081526020016000206000820151816000015560208201518160010155604082015181600201559050506122357fa8496e29ee8c65d93028dea637f35ac81b269e47954b5dcc27f469fda9ad75e960001b6123eb565b6122617f9019bf52657b4888560469e9bae1f9283fa82aa6eecfbb2ca0537f022eeea0e660001b6123eb565b81604001513373ffffffffffffffffffffffffffffffffffffffff167ff74a79d13d6fdbdf26b2c779e6a24490a43e65d60cc7e064740f8d40b2b5ea2c60405160405180910390a35050565b600063bc197c8160e01b905095945050505050565b600063f23a6e6160e01b905095945050505050565b6122df6124a7565b600073ffffffffffffffffffffffffffffffffffffffff168173ffffffffffffffffffffffffffffffffffffffff16141561234f576040517f08c379a00000000000000000000000000000000000000000000000000000000081526004016123469061321c565b60405180910390fd5b61235881612525565b50565b600260009054906101000a900473ffffffffffffffffffffffffffffffffffffffff1681565b60007f01ffc9a7000000000000000000000000000000000000000000000000000000007bffffffffffffffffffffffffffffffffffffffffffffffffffffffff1916827bffffffffffffffffffffffffffffffffffffffffffffffffffffffff1916149050919050565b50565b600061241c7f56ec34ecd1484a685b17a17a7b36e76a8f84c9e758fc7da104ad912c0cac17b660001b6123eb565b6124487f066dfc5005f3ad52bd5a1caf35e9369655ee0be20744c3919bb2a34ad4d3460660001b6123eb565b6124747faba942c5d573764f836aaa980ae2239ad59ba18c2c51ac4c2b3bfdff17aecee660001b6123eb565b81600001516001546124869190612efa565b8260200151426124969190612f54565b6124a09190612efa565b9050919050565b6124af6125e9565b73ffffffffffffffffffffffffffffffffffffffff166124cd611bd4565b73ffffffffffffffffffffffffffffffffffffffff1614612523576040517f08c379a000000000000000000000000000000000000000000000000000000000815260040161251a90613288565b60405180910390fd5b565b60008060009054906101000a900473ffffffffffffffffffffffffffffffffffffffff169050816000806101000a81548173ffffffffffffffffffffffffffffffffffffffff021916908373ffffffffffffffffffffffffffffffffffffffff1602179055508173ffffffffffffffffffffffffffffffffffffffff168173ffffffffffffffffffffffffffffffffffffffff167f8be0079c531659141344cd1fd0a4f28419497f9722a3daafe3b4186f6b6457e060405160405180910390a35050565b600033905090565b6000604051905090565b600080fd5b600080fd5b60007fffffffff0000000000000000000000000000000000000000000000000000000082169050919050565b61263a81612605565b811461264557600080fd5b50565b60008135905061265781612631565b92915050565b600060208284031215612673576126726125fb565b5b600061268184828501612648565b91505092915050565b60008115159050919050565b61269f8161268a565b82525050565b60006020820190506126ba6000830184612696565b92915050565b6000819050919050565b6126d3816126c0565b82525050565b60006020820190506126ee60008301846126ca565b92915050565b600073ffffffffffffffffffffffffffffffffffffffff82169050919050565b600061271f826126f4565b9050919050565b61272f81612714565b811461273a57600080fd5b50565b60008135905061274c81612726565b92915050565b600060208284031215612768576127676125fb565b5b60006127768482850161273d565b91505092915050565b600060608201905061279460008301866126ca565b6127a160208301856126ca565b6127ae60408301846126ca565b949350505050565b6127bf816126c0565b81146127ca57600080fd5b50565b6000813590506127dc816127b6565b92915050565b6000602082840312156127f8576127f76125fb565b5b6000612806848285016127cd565b91505092915050565b6000819050919050565b600061283461282f61282a846126f4565b61280f565b6126f4565b9050919050565b600061284682612819565b9050919050565b60006128588261283b565b9050919050565b6128688161284d565b82525050565b6000602082019050612883600083018461285f565b92915050565b600080fd5b600080fd5b600080fd5b60008083601f8401126128ae576128ad612889565b5b8235905067ffffffffffffffff8111156128cb576128ca61288e565b5b6020830191508360208202830111156128e7576128e6612893565b5b9250929050565b60008060008060408587031215612908576129076125fb565b5b600085013567ffffffffffffffff81111561292657612925612600565b5b61293287828801612898565b9450945050602085013567ffffffffffffffff81111561295557612954612600565b5b61296187828801612898565b925092505092959194509250565b6000806000806000806060878903121561298c5761298b6125fb565b5b600087013567ffffffffffffffff8111156129aa576129a9612600565b5b6129b689828a01612898565b9650965050602087013567ffffffffffffffff8111156129d9576129d8612600565b5b6129e589828a01612898565b9450945050604087013567ffffffffffffffff811115612a0857612a07612600565b5b612a1489828a01612898565b92509250509295509295509295565b612a2c81612714565b82525050565b6000602082019050612a476000830184612a23565b92915050565b6000601f19601f8301169050919050565b7f4e487b7100000000000000000000000000000000000000000000000000000000600052604160045260246000fd5b612a9682612a4d565b810181811067ffffffffffffffff82111715612ab557612ab4612a5e565b5b80604052505050565b6000612ac86125f1565b9050612ad48282612a8d565b919050565b600067ffffffffffffffff821115612af457612af3612a5e565b5b602082029050602081019050919050565b6000612b18612b1384612ad9565b612abe565b90508083825260208201905060208402830185811115612b3b57612b3a612893565b5b835b81811015612b645780612b5088826127cd565b845260208401935050602081019050612b3d565b5050509392505050565b600082601f830112612b8357612b82612889565b5b8135612b93848260208601612b05565b91505092915050565b600080fd5b600067ffffffffffffffff821115612bbc57612bbb612a5e565b5b612bc582612a4d565b9050602081019050919050565b82818337600083830152505050565b6000612bf4612bef84612ba1565b612abe565b905082815260208101848484011115612c1057612c0f612b9c565b5b612c1b848285612bd2565b509392505050565b600082601f830112612c3857612c37612889565b5b8135612c48848260208601612be1565b91505092915050565b600080600080600060a08688031215612c6d57612c6c6125fb565b5b6000612c7b8882890161273d565b9550506020612c8c8882890161273d565b945050604086013567ffffffffffffffff811115612cad57612cac612600565b5b612cb988828901612b6e565b935050606086013567ffffffffffffffff811115612cda57612cd9612600565b5b612ce688828901612b6e565b925050608086013567ffffffffffffffff811115612d0757612d06612600565b5b612d1388828901612c23565b9150509295509295909350565b612d2981612605565b82525050565b6000602082019050612d446000830184612d20565b92915050565b600080600080600060a08688031215612d6657612d656125fb565b5b6000612d748882890161273d565b9550506020612d858882890161273d565b9450506040612d96888289016127cd565b9350506060612da7888289016127cd565b925050608086013567ffffffffffffffff811115612dc857612dc7612600565b5b612dd488828901612c23565b9150509295509295909350565b6000612dec8261283b565b9050919050565b612dfc81612de1565b82525050565b6000602082019050612e176000830184612df3565b92915050565b7f4e487b7100000000000000000000000000000000000000000000000000000000600052601160045260246000fd5b6000612e57826126c0565b9150612e62836126c0565b9250827fffffffffffffffffffffffffffffffffffffffffffffffffffffffffffffffff03821115612e9757612e96612e1d565b5b828201905092915050565b6000604082019050612eb760008301856126ca565b612ec460208301846126ca565b9392505050565b7f4e487b7100000000000000000000000000000000000000000000000000000000600052603260045260246000fd5b6000612f05826126c0565b9150612f10836126c0565b9250817fffffffffffffffffffffffffffffffffffffffffffffffffffffffffffffffff0483118215151615612f4957612f48612e1d565b5b828202905092915050565b6000612f5f826126c0565b9150612f6a836126c0565b925082821015612f7d57612f7c612e1d565b5b828203905092915050565b600067ffffffffffffffff82169050919050565b6000612fa782612f88565b915067ffffffffffffffff821415612fc257612fc1612e1d565b5b600182019050919050565b600082825260208201905092915050565b600080fd5b6000612fef8385612fcd565b93507f07ffffffffffffffffffffffffffffffffffffffffffffffffffffffffffffff83111561302257613021612fde565b5b602083029250613033838584612bd2565b82840190509392505050565b600082825260208201905092915050565b50565b600061306060008361303f565b915061306b82613050565b600082019050919050565b600060a08201905061308b6000830189612a23565b6130986020830188612a23565b81810360408301526130ab818688612fe3565b905081810360608301526130c0818486612fe3565b905081810360808301526130d381613053565b9050979650505050505050565b60006060820190506130f56000830186612a23565b6131026020830185612a23565b61310f60408301846126ca565b949350505050565b6131208161268a565b811461312b57600080fd5b50565b60008151905061313d81613117565b92915050565b600060208284031215613159576131586125fb565b5b60006131678482850161312e565b91505092915050565b60006040820190506131856000830185612a23565b61319260208301846126ca565b9392505050565b600082825260208201905092915050565b7f4f776e61626c653a206e6577206f776e657220697320746865207a65726f206160008201527f6464726573730000000000000000000000000000000000000000000000000000602082015250565b6000613206602683613199565b9150613211826131aa565b604082019050919050565b60006020820190508181036000830152613235816131f9565b9050919050565b7f4f776e61626c653a2063616c6c6572206973206e6f7420746865206f776e6572600082015250565b6000613272602083613199565b915061327d8261323c565b602082019050919050565b600060208201905081810360008301526132a181613265565b905091905056fea264697066735822122046bc91cf6c8e3e5f2179872798cb02355df7ceef71419a385fbae0b3c2ebc25764736f6c634300080a0033",
  "linkReferences": {},
  "deployedLinkReferences": {}
}