{
  "_format": "hh-sol-artifact-1",
  "contractName": "PTNFT",
  "sourceName": "contracts/pharmaTrace-NFT.sol",
  "abi": [
    {
      "inputs": [
        {
          "internalType": "address",
          "name": "marketPlace",
          "type": "address"
        },
        {
          "internalType": "string",
          "name": "name",
          "type": "string"
        },
        {
          "internalType": "string",
          "name": "symbol",
          "type": "string"
        },
        {
          "internalType": "string",
          "name": "signingDomain",
          "type": "string"
        },
        {
          "internalType": "string",
          "name": "signatureVersion",
          "type": "string"
        }
      ],
      "stateMutability": "nonpayable",
      "type": "constructor"
    },
    {
      "inputs": [],
      "name": "PTNFT__NotOwner",
      "type": "error"
    },
    {
      "anonymous": false,
      "inputs": [
        {
          "indexed": true,
          "internalType": "address",
          "name": "owner",
          "type": "address"
        },
        {
          "indexed": true,
          "internalType": "address",
          "name": "approved",
          "type": "address"
        },
        {
          "indexed": true,
          "internalType": "uint256",
          "name": "tokenId",
          "type": "uint256"
        }
      ],
      "name": "Approval",
      "type": "event"
    },
    {
      "anonymous": false,
      "inputs": [
        {
          "indexed": true,
          "internalType": "address",
          "name": "owner",
          "type": "address"
        },
        {
          "indexed": true,
          "internalType": "address",
          "name": "operator",
          "type": "address"
        },
        {
          "indexed": false,
          "internalType": "bool",
          "name": "approved",
          "type": "bool"
        }
      ],
      "name": "ApprovalForAll",
      "type": "event"
    },
    {
      "anonymous": false,
      "inputs": [
        {
          "indexed": true,
          "internalType": "address",
          "name": "previousOwner",
          "type": "address"
        },
        {
          "indexed": true,
          "internalType": "address",
          "name": "newOwner",
          "type": "address"
        }
      ],
      "name": "OwnershipTransferred",
      "type": "event"
    },
    {
      "anonymous": false,
      "inputs": [
        {
          "indexed": false,
          "internalType": "address",
          "name": "account",
          "type": "address"
        }
      ],
      "name": "Paused",
      "type": "event"
    },
    {
      "anonymous": false,
      "inputs": [
        {
          "indexed": true,
          "internalType": "address",
          "name": "signer",
          "type": "address"
        },
        {
          "indexed": true,
          "internalType": "uint256",
          "name": "tokenId",
          "type": "uint256"
        },
        {
          "indexed": true,
          "internalType": "address",
          "name": "redeemer",
          "type": "address"
        }
      ],
      "name": "RedeemVoucher",
      "type": "event"
    },
    {
      "anonymous": false,
      "inputs": [
        {
          "indexed": true,
          "internalType": "bytes32",
          "name": "role",
          "type": "bytes32"
        },
        {
          "indexed": true,
          "internalType": "bytes32",
          "name": "previousAdminRole",
          "type": "bytes32"
        },
        {
          "indexed": true,
          "internalType": "bytes32",
          "name": "newAdminRole",
          "type": "bytes32"
        }
      ],
      "name": "RoleAdminChanged",
      "type": "event"
    },
    {
      "anonymous": false,
      "inputs": [
        {
          "indexed": true,
          "internalType": "bytes32",
          "name": "role",
          "type": "bytes32"
        },
        {
          "indexed": true,
          "internalType": "address",
          "name": "account",
          "type": "address"
        },
        {
          "indexed": true,
          "internalType": "address",
          "name": "sender",
          "type": "address"
        }
      ],
      "name": "RoleGranted",
      "type": "event"
    },
    {
      "anonymous": false,
      "inputs": [
        {
          "indexed": true,
          "internalType": "bytes32",
          "name": "role",
          "type": "bytes32"
        },
        {
          "indexed": true,
          "internalType": "address",
          "name": "account",
          "type": "address"
        },
        {
          "indexed": true,
          "internalType": "address",
          "name": "sender",
          "type": "address"
        }
      ],
      "name": "RoleRevoked",
      "type": "event"
    },
    {
      "anonymous": false,
      "inputs": [
        {
          "indexed": true,
          "internalType": "address",
          "name": "from",
          "type": "address"
        },
        {
          "indexed": true,
          "internalType": "address",
          "name": "to",
          "type": "address"
        },
        {
          "indexed": true,
          "internalType": "uint256",
          "name": "tokenId",
          "type": "uint256"
        }
      ],
      "name": "Transfer",
      "type": "event"
    },
    {
      "anonymous": false,
      "inputs": [
        {
          "indexed": false,
          "internalType": "address",
          "name": "account",
          "type": "address"
        }
      ],
      "name": "Unpaused",
      "type": "event"
    },
    {
      "inputs": [],
      "name": "DEFAULT_ADMIN_ROLE",
      "outputs": [
        {
          "internalType": "bytes32",
          "name": "",
          "type": "bytes32"
        }
      ],
      "stateMutability": "view",
      "type": "function"
    },
    {
      "inputs": [
        {
          "components": [
            {
              "internalType": "uint256",
              "name": "tokenId",
              "type": "uint256"
            },
            {
              "internalType": "string",
              "name": "uri",
              "type": "string"
            },
            {
              "internalType": "address",
              "name": "currency",
              "type": "address"
            },
            {
              "internalType": "uint256",
              "name": "minPrice",
              "type": "uint256"
            },
            {
              "internalType": "bool",
              "name": "isFixedPrice",
              "type": "bool"
            },
            {
              "internalType": "bytes",
              "name": "signature",
              "type": "bytes"
            }
          ],
          "internalType": "struct NFTVoucher",
          "name": "voucher",
          "type": "tuple"
        }
      ],
      "name": "_verify",
      "outputs": [
        {
          "internalType": "address",
          "name": "",
          "type": "address"
        }
      ],
      "stateMutability": "view",
      "type": "function"
    },
    {
      "inputs": [
        {
          "internalType": "address",
          "name": "to",
          "type": "address"
        },
        {
          "internalType": "uint256",
          "name": "tokenId",
          "type": "uint256"
        }
      ],
      "name": "approve",
      "outputs": [],
      "stateMutability": "nonpayable",
      "type": "function"
    },
    {
      "inputs": [
        {
          "internalType": "address",
          "name": "owner",
          "type": "address"
        }
      ],
      "name": "balanceOf",
      "outputs": [
        {
          "internalType": "uint256",
          "name": "",
          "type": "uint256"
        }
      ],
      "stateMutability": "view",
      "type": "function"
    },
    {
      "inputs": [
        {
          "internalType": "uint256",
          "name": "tokenId",
          "type": "uint256"
        }
      ],
      "name": "getApproved",
      "outputs": [
        {
          "internalType": "address",
          "name": "",
          "type": "address"
        }
      ],
      "stateMutability": "view",
      "type": "function"
    },
    {
      "inputs": [
        {
          "internalType": "address",
          "name": "spender",
          "type": "address"
        },
        {
          "internalType": "uint256",
          "name": "tokenId",
          "type": "uint256"
        }
      ],
      "name": "getApprovedOrOwner",
      "outputs": [
        {
          "internalType": "bool",
          "name": "",
          "type": "bool"
        }
      ],
      "stateMutability": "view",
      "type": "function"
    },
    {
      "inputs": [],
      "name": "getChainID",
      "outputs": [
        {
          "internalType": "uint256",
          "name": "",
          "type": "uint256"
        }
      ],
      "stateMutability": "view",
      "type": "function"
    },
    {
      "inputs": [
        {
          "internalType": "bytes32",
          "name": "role",
          "type": "bytes32"
        }
      ],
      "name": "getRoleAdmin",
      "outputs": [
        {
          "internalType": "bytes32",
          "name": "",
          "type": "bytes32"
        }
      ],
      "stateMutability": "view",
      "type": "function"
    },
    {
      "inputs": [
        {
          "internalType": "bytes32",
          "name": "role",
          "type": "bytes32"
        },
        {
          "internalType": "address",
          "name": "account",
          "type": "address"
        }
      ],
      "name": "grantRole",
      "outputs": [],
      "stateMutability": "nonpayable",
      "type": "function"
    },
    {
      "inputs": [
        {
          "internalType": "bytes32",
          "name": "role",
          "type": "bytes32"
        },
        {
          "internalType": "address",
          "name": "account",
          "type": "address"
        }
      ],
      "name": "hasRole",
      "outputs": [
        {
          "internalType": "bool",
          "name": "",
          "type": "bool"
        }
      ],
      "stateMutability": "view",
      "type": "function"
    },
    {
      "inputs": [
        {
          "internalType": "address",
          "name": "owner",
          "type": "address"
        },
        {
          "internalType": "address",
          "name": "operator",
          "type": "address"
        }
      ],
      "name": "isApprovedForAll",
      "outputs": [
        {
          "internalType": "bool",
          "name": "",
          "type": "bool"
        }
      ],
      "stateMutability": "view",
      "type": "function"
    },
    {
      "inputs": [],
      "name": "name",
      "outputs": [
        {
          "internalType": "string",
          "name": "",
          "type": "string"
        }
      ],
      "stateMutability": "view",
      "type": "function"
    },
    {
      "inputs": [],
      "name": "owner",
      "outputs": [
        {
          "internalType": "address",
          "name": "",
          "type": "address"
        }
      ],
      "stateMutability": "view",
      "type": "function"
    },
    {
      "inputs": [
        {
          "internalType": "uint256",
          "name": "tokenId",
          "type": "uint256"
        }
      ],
      "name": "ownerOf",
      "outputs": [
        {
          "internalType": "address",
          "name": "",
          "type": "address"
        }
      ],
      "stateMutability": "view",
      "type": "function"
    },
    {
      "inputs": [],
      "name": "pauseContract",
      "outputs": [],
      "stateMutability": "nonpayable",
      "type": "function"
    },
    {
      "inputs": [],
      "name": "paused",
      "outputs": [
        {
          "internalType": "bool",
          "name": "",
          "type": "bool"
        }
      ],
      "stateMutability": "view",
      "type": "function"
    },
    {
      "inputs": [
        {
          "internalType": "address",
          "name": "redeemer",
          "type": "address"
        },
        {
          "components": [
            {
              "internalType": "uint256",
              "name": "tokenId",
              "type": "uint256"
            },
            {
              "internalType": "string",
              "name": "uri",
              "type": "string"
            },
            {
              "internalType": "address",
              "name": "currency",
              "type": "address"
            },
            {
              "internalType": "uint256",
              "name": "minPrice",
              "type": "uint256"
            },
            {
              "internalType": "bool",
              "name": "isFixedPrice",
              "type": "bool"
            },
            {
              "internalType": "bytes",
              "name": "signature",
              "type": "bytes"
            }
          ],
          "internalType": "struct NFTVoucher",
          "name": "voucher",
          "type": "tuple"
        }
      ],
      "name": "redeem",
      "outputs": [
        {
          "internalType": "address",
          "name": "",
          "type": "address"
        }
      ],
      "stateMutability": "view",
      "type": "function"
    },
    {
      "inputs": [],
      "name": "renounceOwnership",
      "outputs": [],
      "stateMutability": "nonpayable",
      "type": "function"
    },
    {
      "inputs": [
        {
          "internalType": "bytes32",
          "name": "role",
          "type": "bytes32"
        },
        {
          "internalType": "address",
          "name": "account",
          "type": "address"
        }
      ],
      "name": "renounceRole",
      "outputs": [],
      "stateMutability": "nonpayable",
      "type": "function"
    },
    {
      "inputs": [
        {
          "internalType": "address",
          "name": "operator",
          "type": "address"
        },
        {
          "internalType": "uint256",
          "name": "tokenId",
          "type": "uint256"
        }
      ],
      "name": "revertApprovalForAll",
      "outputs": [],
      "stateMutability": "nonpayable",
      "type": "function"
    },
    {
      "inputs": [
        {
          "internalType": "bytes32",
          "name": "role",
          "type": "bytes32"
        },
        {
          "internalType": "address",
          "name": "account",
          "type": "address"
        }
      ],
      "name": "revokeRole",
      "outputs": [],
      "stateMutability": "nonpayable",
      "type": "function"
    },
    {
      "inputs": [
        {
          "internalType": "address",
          "name": "from",
          "type": "address"
        },
        {
          "internalType": "address",
          "name": "to",
          "type": "address"
        },
        {
          "internalType": "uint256",
          "name": "tokenId",
          "type": "uint256"
        }
      ],
      "name": "safeTransferFrom",
      "outputs": [],
      "stateMutability": "nonpayable",
      "type": "function"
    },
    {
      "inputs": [
        {
          "internalType": "address",
          "name": "from",
          "type": "address"
        },
        {
          "internalType": "address",
          "name": "to",
          "type": "address"
        },
        {
          "internalType": "uint256",
          "name": "tokenId",
          "type": "uint256"
        },
        {
          "internalType": "bytes",
          "name": "data",
          "type": "bytes"
        }
      ],
      "name": "safeTransferFrom",
      "outputs": [],
      "stateMutability": "nonpayable",
      "type": "function"
    },
    {
      "inputs": [
        {
          "internalType": "address",
          "name": "operator",
          "type": "address"
        },
        {
          "internalType": "bool",
          "name": "approved",
          "type": "bool"
        }
      ],
      "name": "setApprovalForAll",
      "outputs": [],
      "stateMutability": "nonpayable",
      "type": "function"
    },
    {
      "inputs": [
        {
          "internalType": "bytes4",
          "name": "interfaceId",
          "type": "bytes4"
        }
      ],
      "name": "supportsInterface",
      "outputs": [
        {
          "internalType": "bool",
          "name": "",
          "type": "bool"
        }
      ],
      "stateMutability": "view",
      "type": "function"
    },
    {
      "inputs": [],
      "name": "symbol",
      "outputs": [
        {
          "internalType": "string",
          "name": "",
          "type": "string"
        }
      ],
      "stateMutability": "view",
      "type": "function"
    },
    {
      "inputs": [
        {
          "internalType": "uint256",
          "name": "tokenId",
          "type": "uint256"
        }
      ],
      "name": "tokenURI",
      "outputs": [
        {
          "internalType": "string",
          "name": "",
          "type": "string"
        }
      ],
      "stateMutability": "view",
      "type": "function"
    },
    {
      "inputs": [
        {
          "internalType": "address",
          "name": "from",
          "type": "address"
        },
        {
          "internalType": "address",
          "name": "to",
          "type": "address"
        },
        {
          "internalType": "uint256",
          "name": "tokenId",
          "type": "uint256"
        }
      ],
      "name": "transferFrom",
      "outputs": [],
      "stateMutability": "nonpayable",
      "type": "function"
    },
    {
      "inputs": [
        {
          "internalType": "address",
          "name": "newOwner",
          "type": "address"
        }
      ],
      "name": "transferOwnership",
      "outputs": [],
      "stateMutability": "nonpayable",
      "type": "function"
    },
    {
      "inputs": [],
      "name": "unpauseContract",
      "outputs": [],
      "stateMutability": "nonpayable",
      "type": "function"
    }
  ],
  "bytecode": "0x6101406040523480156200001257600080fd5b5060405162002968380380620029688339810160408190526200003591620003cb565b8181858581600090805190602001906200005192919062000258565b5080516200006790600190602084019062000258565b5050825160209384012082519284019290922060e08390526101008190524660a0818152604080517f8b73c3c69bb8fe3d512ecc4cf759cc79239f7b179b0ffacaa9a75d522b39400f818901819052818301979097526060810194909452608080850193909352308483018190528151808603909301835260c09485019091528151919096012090529290925261012052506007805460ff191690556200010e336200014a565b60016009556200013f7f9f2df0fed2c77648de5860a4cc508cd0818c85b8b8a1ab4ceeef8d981c8956a686620001a4565b5050505050620004e2565b600780546001600160a01b03838116610100818102610100600160a81b031985161790945560405193909204169182907f8be0079c531659141344cd1fd0a4f28419497f9722a3daafe3b4186f6b6457e090600090a35050565b620001b08282620001b4565b5050565b60008281526008602090815260408083206001600160a01b038516845290915290205460ff16620001b05760008281526008602090815260408083206001600160a01b03851684529091529020805460ff19166001179055620002143390565b6001600160a01b0316816001600160a01b0316837f2f8788117e7eff1d82e926ec794901d17c78024a50270940304540a733656f0d60405160405180910390a45050565b8280546200026690620004a5565b90600052602060002090601f0160209004810192826200028a5760008555620002d5565b82601f10620002a557805160ff1916838001178555620002d5565b82800160010185558215620002d5579182015b82811115620002d5578251825591602001919060010190620002b8565b50620002e3929150620002e7565b5090565b5b80821115620002e35760008155600101620002e8565b634e487b7160e01b600052604160045260246000fd5b600082601f8301126200032657600080fd5b81516001600160401b0380821115620003435762000343620002fe565b604051601f8301601f19908116603f011681019082821181831017156200036e576200036e620002fe565b816040528381526020925086838588010111156200038b57600080fd5b600091505b83821015620003af578582018301518183018401529082019062000390565b83821115620003c15760008385830101525b9695505050505050565b600080600080600060a08688031215620003e457600080fd5b85516001600160a01b0381168114620003fc57600080fd5b60208701519095506001600160401b03808211156200041a57600080fd5b6200042889838a0162000314565b955060408801519150808211156200043f57600080fd5b6200044d89838a0162000314565b945060608801519150808211156200046457600080fd5b6200047289838a0162000314565b935060808801519150808211156200048957600080fd5b50620004988882890162000314565b9150509295509295909350565b600181811c90821680620004ba57607f821691505b60208210811415620004dc57634e487b7160e01b600052602260045260246000fd5b50919050565b60805160a05160c05160e0516101005161012051612436620005326000396000611b8701526000611bd601526000611bb101526000611b0a01526000611b3401526000611b5e01526124366000f3fe608060405234801561001057600080fd5b50600436106101da5760003560e01c8063761f61fb11610104578063b33712c5116100a2578063d547741f11610071578063d547741f146103d3578063e985e9c5146103e6578063f2fde38b14610422578063f36f292f1461043557600080fd5b8063b33712c514610392578063b88d4fde1461039a578063c87b56dd146103ad578063d1c2a10f146103c057600080fd5b806391d14854116100de57806391d148541461035c57806395d89b411461036f578063a217fddf14610377578063a22cb4651461037f57600080fd5b8063761f61fb1461032057806385c451f8146103335780638da5cb5b1461034657600080fd5b806336568abe1161017c5780635c975abb1161014b5780635c975abb146102e75780636352211e146102f257806370a0823114610305578063715018a61461031857600080fd5b806336568abe146102b357806342842e0e146102c6578063439766ce146102d9578063564b81ef146102e157600080fd5b8063095ea7b3116101b8578063095ea7b31461024757806323b872dd1461025c578063248a9ca31461026f5780632f2ff15d146102a057600080fd5b806301ffc9a7146101df57806306fdde0314610207578063081812fc1461021c575b600080fd5b6101f26101ed366004611d60565b610448565b60405190151581526020015b60405180910390f35b61020f610468565b6040516101fe9190611dd5565b61022f61022a366004611de8565b6104fa565b6040516001600160a01b0390911681526020016101fe565b61025a610255366004611e1d565b610521565b005b61025a61026a366004611e47565b61063c565b61029261027d366004611de8565b60009081526008602052604090206001015490565b6040519081526020016101fe565b61025a6102ae366004611e83565b61066d565b61025a6102c1366004611e83565b610692565b61025a6102d4366004611e47565b610710565b61025a61072b565b46610292565b60075460ff166101f2565b61022f610300366004611de8565b61073d565b610292610313366004611eaf565b61079d565b61025a610823565b61025a61032e366004611e1d565b610835565b61022f610341366004611ee2565b6108c7565b60075461010090046001600160a01b031661022f565b6101f261036a366004611e83565b6108d9565b61020f610904565b610292600081565b61025a61038d366004611f40565b610913565b61025a61091e565b61025a6103a8366004611f80565b61092e565b61020f6103bb366004611de8565b610966565b61022f6103ce36600461205c565b610a77565b61025a6103e1366004611e83565b610ad0565b6101f26103f4366004612091565b6001600160a01b03918216600090815260056020908152604080832093909416825291909152205460ff1690565b61025a610430366004611eaf565b610af5565b6101f2610443366004611e1d565b610b6e565b600061045382610b7a565b80610462575061046282610bca565b92915050565b606060008054610477906120bb565b80601f01602080910402602001604051908101604052809291908181526020018280546104a3906120bb565b80156104f05780601f106104c5576101008083540402835291602001916104f0565b820191906000526020600020905b8154815290600101906020018083116104d357829003601f168201915b5050505050905090565b600061050582610bef565b506000908152600460205260409020546001600160a01b031690565b600061052c8261073d565b9050806001600160a01b0316836001600160a01b0316141561059f5760405162461bcd60e51b815260206004820152602160248201527f4552433732313a20617070726f76616c20746f2063757272656e74206f776e656044820152603960f91b60648201526084015b60405180910390fd5b336001600160a01b03821614806105bb57506105bb81336103f4565b61062d5760405162461bcd60e51b815260206004820152603e60248201527f4552433732313a20617070726f76652063616c6c6572206973206e6f7420746f60448201527f6b656e206f776e6572206e6f7220617070726f76656420666f7220616c6c00006064820152608401610596565b6106378383610c4e565b505050565b6106463382610cbc565b6106625760405162461bcd60e51b8152600401610596906120f0565b610637838383610d3a565b60008281526008602052604090206001015461068881610ee1565b6106378383610eeb565b6001600160a01b03811633146107025760405162461bcd60e51b815260206004820152602f60248201527f416363657373436f6e74726f6c3a2063616e206f6e6c792072656e6f756e636560448201526e103937b632b9903337b91039b2b63360891b6064820152608401610596565b61070c8282610f71565b5050565b6106378383836040518060200160405280600081525061092e565b610733610fd8565b61073b611038565b565b6000818152600260205260408120546001600160a01b0316806104625760405162461bcd60e51b8152602060048201526018602482015277115490cdcc8c4e881a5b9d985b1a59081d1bdad95b88125160421b6044820152606401610596565b60006001600160a01b0382166108075760405162461bcd60e51b815260206004820152602960248201527f4552433732313a2061646472657373207a65726f206973206e6f7420612076616044820152683634b21037bbb732b960b91b6064820152608401610596565b506001600160a01b031660009081526003602052604090205490565b61082b610fd8565b61073b6000611092565b600260095414156108885760405162461bcd60e51b815260206004820152601f60248201527f5265656e7472616e637947756172643a207265656e7472616e742063616c6c006044820152606401610596565b60026009556108973382610cbc565b6108b45760405163d3ed1da360e01b815260040160405180910390fd5b6108be8282610c4e565b50506001600955565b60006108d282610a77565b9392505050565b60009182526008602090815260408084206001600160a01b0393909316845291905290205460ff1690565b606060018054610477906120bb565b61070c3383836110ec565b610926610fd8565b61073b6111bb565b6109383383610cbc565b6109545760405162461bcd60e51b8152600401610596906120f0565b610960848484846111f4565b50505050565b606061097182610bef565b6000828152600660205260408120805461098a906120bb565b80601f01602080910402602001604051908101604052809291908181526020018280546109b6906120bb565b8015610a035780601f106109d857610100808354040283529160200191610a03565b820191906000526020600020905b8154815290600101906020018083116109e657829003601f168201915b505050505090506000610a2160408051602081019091526000815290565b9050805160001415610a34575092915050565b815115610a66578082604051602001610a4e92919061213e565b60405160208183030381529060405292505050919050565b610a6f84611227565b949350505050565b600080610a838361129a565b90506108d281610a9660a086018661216d565b8080601f01602080910402602001604051908101604052809392919081815260200183838082843760009201919091525061135f92505050565b600082815260086020526040902060010154610aeb81610ee1565b6106378383610f71565b610afd610fd8565b6001600160a01b038116610b625760405162461bcd60e51b815260206004820152602660248201527f4f776e61626c653a206e6577206f776e657220697320746865207a65726f206160448201526564647265737360d01b6064820152608401610596565b610b6b81611092565b50565b60006108d28383610cbc565b60006001600160e01b031982166380ac58cd60e01b1480610bab57506001600160e01b03198216635b5e139f60e01b145b8061046257506301ffc9a760e01b6001600160e01b0319831614610462565b60006001600160e01b03198216637965db0b60e01b1480610462575061046282610b7a565b6000818152600260205260409020546001600160a01b0316610b6b5760405162461bcd60e51b8152602060048201526018602482015277115490cdcc8c4e881a5b9d985b1a59081d1bdad95b88125160421b6044820152606401610596565b600081815260046020526040902080546001600160a01b0319166001600160a01b0384169081179091558190610c838261073d565b6001600160a01b03167f8c5be1e5ebec7d5bd14f71427d1e84f3dd0314c0f7b2291e5b200ac8c7c3b92560405160405180910390a45050565b600080610cc88361073d565b9050806001600160a01b0316846001600160a01b03161480610d0f57506001600160a01b0380821660009081526005602090815260408083209388168352929052205460ff165b80610a6f5750836001600160a01b0316610d28846104fa565b6001600160a01b031614949350505050565b826001600160a01b0316610d4d8261073d565b6001600160a01b031614610db15760405162461bcd60e51b815260206004820152602560248201527f4552433732313a207472616e736665722066726f6d20696e636f72726563742060448201526437bbb732b960d91b6064820152608401610596565b6001600160a01b038216610e135760405162461bcd60e51b8152602060048201526024808201527f4552433732313a207472616e7366657220746f20746865207a65726f206164646044820152637265737360e01b6064820152608401610596565b610e1e838383611383565b610e29600082610c4e565b6001600160a01b0383166000908152600360205260408120805460019290610e529084906121ca565b90915550506001600160a01b0382166000908152600360205260408120805460019290610e809084906121e1565b909155505060008181526002602052604080822080546001600160a01b0319166001600160a01b0386811691821790925591518493918716917fddf252ad1be2c89b69c2b068fc378daa952ba7f163c4a11628f55a4df523b3ef91a4505050565b610b6b81336113ea565b610ef582826108d9565b61070c5760008281526008602090815260408083206001600160a01b03851684529091529020805460ff19166001179055610f2d3390565b6001600160a01b0316816001600160a01b0316837f2f8788117e7eff1d82e926ec794901d17c78024a50270940304540a733656f0d60405160405180910390a45050565b610f7b82826108d9565b1561070c5760008281526008602090815260408083206001600160a01b0385168085529252808320805460ff1916905551339285917ff6391f5c32d9c69d2a47ea670b442974b53935d1edc7fd64eb21e047a839171b9190a45050565b6007546001600160a01b0361010090910416331461073b5760405162461bcd60e51b815260206004820181905260248201527f4f776e61626c653a2063616c6c6572206973206e6f7420746865206f776e65726044820152606401610596565b61104061144e565b6007805460ff191660011790557f62e78cea01bee320cd4e420270b5ea74000d11b0c9f74754ebdbfc544b05a2586110753390565b6040516001600160a01b03909116815260200160405180910390a1565b600780546001600160a01b03838116610100818102610100600160a81b031985161790945560405193909204169182907f8be0079c531659141344cd1fd0a4f28419497f9722a3daafe3b4186f6b6457e090600090a35050565b816001600160a01b0316836001600160a01b0316141561114e5760405162461bcd60e51b815260206004820152601960248201527f4552433732313a20617070726f766520746f2063616c6c6572000000000000006044820152606401610596565b6001600160a01b03838116600081815260056020908152604080832094871680845294825291829020805460ff191686151590811790915591519182527f17307eab39ab6107e8899845ad3d59bd9653f200f220920489ca2b5937696c31910160405180910390a3505050565b6111c3611494565b6007805460ff191690557f5db9ee0a495bf2e6ff9c91a7834c1ba4fdd244a5e8aa4e537bd38aeae4b073aa33611075565b6111ff848484610d3a565b61120b848484846114dd565b6109605760405162461bcd60e51b8152600401610596906121f9565b606061123282610bef565b600061124960408051602081019091526000815290565b9050600081511161126957604051806020016040528060008152506108d2565b80611273846115ea565b60405160200161128492919061213e565b6040516020818303038152906040529392505050565b60006104627f789849df14df0a5e9c311ef104d55be9849a6177951bb9166963a3b18e51be2b83356112cf602086018661216d565b6040516112dd92919061224b565b60405180910390208560400160208101906112f89190611eaf565b606087013561130d60a0890160808a0161225b565b60408051602081019790975286019490945260608501929092526001600160a01b0316608084015260a0830152151560c082015260e001604051602081830303815290604052805190602001206116e8565b600080600061136e8585611736565b9150915061137b816117a6565b509392505050565b60075460ff16156106375760405162461bcd60e51b815260206004820152602b60248201527f4552433732315061757361626c653a20746f6b656e207472616e73666572207760448201526a1a1a5b19481c185d5cd95960aa1b6064820152608401610596565b6113f482826108d9565b61070c5761140c816001600160a01b03166014611961565b611417836020611961565b604051602001611428929190612276565b60408051601f198184030181529082905262461bcd60e51b825261059691600401611dd5565b60075460ff161561073b5760405162461bcd60e51b815260206004820152601060248201526f14185d5cd8589b194e881c185d5cd95960821b6044820152606401610596565b60075460ff1661073b5760405162461bcd60e51b815260206004820152601460248201527314185d5cd8589b194e881b9bdd081c185d5cd95960621b6044820152606401610596565b60006001600160a01b0384163b156115df57604051630a85bd0160e11b81526001600160a01b0385169063150b7a02906115219033908990889088906004016122eb565b602060405180830381600087803b15801561153b57600080fd5b505af192505050801561156b575060408051601f3d908101601f1916820190925261156891810190612328565b60015b6115c5573d808015611599576040519150601f19603f3d011682016040523d82523d6000602084013e61159e565b606091505b5080516115bd5760405162461bcd60e51b8152600401610596906121f9565b805181602001fd5b6001600160e01b031916630a85bd0160e11b149050610a6f565b506001949350505050565b60608161160e5750506040805180820190915260018152600360fc1b602082015290565b8160005b8115611638578061162281612345565b91506116319050600a83612376565b9150611612565b60008167ffffffffffffffff81111561165357611653611f6a565b6040519080825280601f01601f19166020018201604052801561167d576020820181803683370190505b5090505b8415610a6f576116926001836121ca565b915061169f600a8661238a565b6116aa9060306121e1565b60f81b8183815181106116bf576116bf61239e565b60200101906001600160f81b031916908160001a9053506116e1600a86612376565b9450611681565b60006104626116f5611afd565b8360405161190160f01b6020820152602281018390526042810182905260009060620160405160208183030381529060405280519060200120905092915050565b60008082516041141561176d5760208301516040840151606085015160001a61176187828585611c24565b9450945050505061179f565b825160401415611797576020830151604084015161178c868383611d11565b93509350505061179f565b506000905060025b9250929050565b60008160048111156117ba576117ba6123b4565b14156117c35750565b60018160048111156117d7576117d76123b4565b14156118255760405162461bcd60e51b815260206004820152601860248201527f45434453413a20696e76616c6964207369676e617475726500000000000000006044820152606401610596565b6002816004811115611839576118396123b4565b14156118875760405162461bcd60e51b815260206004820152601f60248201527f45434453413a20696e76616c6964207369676e6174757265206c656e677468006044820152606401610596565b600381600481111561189b5761189b6123b4565b14156118f45760405162461bcd60e51b815260206004820152602260248201527f45434453413a20696e76616c6964207369676e6174757265202773272076616c604482015261756560f01b6064820152608401610596565b6004816004811115611908576119086123b4565b1415610b6b5760405162461bcd60e51b815260206004820152602260248201527f45434453413a20696e76616c6964207369676e6174757265202776272076616c604482015261756560f01b6064820152608401610596565b606060006119708360026123ca565b61197b9060026121e1565b67ffffffffffffffff81111561199357611993611f6a565b6040519080825280601f01601f1916602001820160405280156119bd576020820181803683370190505b509050600360fc1b816000815181106119d8576119d861239e565b60200101906001600160f81b031916908160001a905350600f60fb1b81600181518110611a0757611a0761239e565b60200101906001600160f81b031916908160001a9053506000611a2b8460026123ca565b611a369060016121e1565b90505b6001811115611aae576f181899199a1a9b1b9c1cb0b131b232b360811b85600f1660108110611a6a57611a6a61239e565b1a60f81b828281518110611a8057611a8061239e565b60200101906001600160f81b031916908160001a90535060049490941c93611aa7816123e9565b9050611a39565b5083156108d25760405162461bcd60e51b815260206004820181905260248201527f537472696e67733a20686578206c656e67746820696e73756666696369656e746044820152606401610596565b6000306001600160a01b037f000000000000000000000000000000000000000000000000000000000000000016148015611b5657507f000000000000000000000000000000000000000000000000000000000000000046145b15611b8057507f000000000000000000000000000000000000000000000000000000000000000090565b50604080517f00000000000000000000000000000000000000000000000000000000000000006020808301919091527f0000000000000000000000000000000000000000000000000000000000000000828401527f000000000000000000000000000000000000000000000000000000000000000060608301524660808301523060a0808401919091528351808403909101815260c0909201909252805191012090565b6000807f7fffffffffffffffffffffffffffffff5d576e7357a4501ddfe92f46681b20a0831115611c5b5750600090506003611d08565b8460ff16601b14158015611c7357508460ff16601c14155b15611c845750600090506004611d08565b6040805160008082526020820180845289905260ff881692820192909252606081018690526080810185905260019060a0016020604051602081039080840390855afa158015611cd8573d6000803e3d6000fd5b5050604051601f1901519150506001600160a01b038116611d0157600060019250925050611d08565b9150600090505b94509492505050565b6000806001600160ff1b03831681611d2e60ff86901c601b6121e1565b9050611d3c87828885611c24565b935093505050935093915050565b6001600160e01b031981168114610b6b57600080fd5b600060208284031215611d7257600080fd5b81356108d281611d4a565b60005b83811015611d98578181015183820152602001611d80565b838111156109605750506000910152565b60008151808452611dc1816020860160208601611d7d565b601f01601f19169290920160200192915050565b6020815260006108d26020830184611da9565b600060208284031215611dfa57600080fd5b5035919050565b80356001600160a01b0381168114611e1857600080fd5b919050565b60008060408385031215611e3057600080fd5b611e3983611e01565b946020939093013593505050565b600080600060608486031215611e5c57600080fd5b611e6584611e01565b9250611e7360208501611e01565b9150604084013590509250925092565b60008060408385031215611e9657600080fd5b82359150611ea660208401611e01565b90509250929050565b600060208284031215611ec157600080fd5b6108d282611e01565b600060c08284031215611edc57600080fd5b50919050565b60008060408385031215611ef557600080fd5b611efe83611e01565b9150602083013567ffffffffffffffff811115611f1a57600080fd5b611f2685828601611eca565b9150509250929050565b80358015158114611e1857600080fd5b60008060408385031215611f5357600080fd5b611f5c83611e01565b9150611ea660208401611f30565b634e487b7160e01b600052604160045260246000fd5b60008060008060808587031215611f9657600080fd5b611f9f85611e01565b9350611fad60208601611e01565b925060408501359150606085013567ffffffffffffffff80821115611fd157600080fd5b818701915087601f830112611fe557600080fd5b813581811115611ff757611ff7611f6a565b604051601f8201601f19908116603f0116810190838211818310171561201f5761201f611f6a565b816040528281528a602084870101111561203857600080fd5b82602086016020830137600060208483010152809550505050505092959194509250565b60006020828403121561206e57600080fd5b813567ffffffffffffffff81111561208557600080fd5b610a6f84828501611eca565b600080604083850312156120a457600080fd5b6120ad83611e01565b9150611ea660208401611e01565b600181811c908216806120cf57607f821691505b60208210811415611edc57634e487b7160e01b600052602260045260246000fd5b6020808252602e908201527f4552433732313a2063616c6c6572206973206e6f7420746f6b656e206f776e6560408201526d1c881b9bdc88185c1c1c9bdd995960921b606082015260800190565b60008351612150818460208801611d7d565b835190830190612164818360208801611d7d565b01949350505050565b6000808335601e1984360301811261218457600080fd5b83018035915067ffffffffffffffff82111561219f57600080fd5b60200191503681900382131561179f57600080fd5b634e487b7160e01b600052601160045260246000fd5b6000828210156121dc576121dc6121b4565b500390565b600082198211156121f4576121f46121b4565b500190565b60208082526032908201527f4552433732313a207472616e7366657220746f206e6f6e20455243373231526560408201527131b2b4bb32b91034b6b83632b6b2b73a32b960711b606082015260800190565b8183823760009101908152919050565b60006020828403121561226d57600080fd5b6108d282611f30565b7f416363657373436f6e74726f6c3a206163636f756e74200000000000000000008152600083516122ae816017850160208801611d7d565b7001034b99036b4b9b9b4b733903937b6329607d1b60179184019182015283516122df816028840160208801611d7d565b01602801949350505050565b6001600160a01b038581168252841660208201526040810183905260806060820181905260009061231e90830184611da9565b9695505050505050565b60006020828403121561233a57600080fd5b81516108d281611d4a565b6000600019821415612359576123596121b4565b5060010190565b634e487b7160e01b600052601260045260246000fd5b60008261238557612385612360565b500490565b60008261239957612399612360565b500690565b634e487b7160e01b600052603260045260246000fd5b634e487b7160e01b600052602160045260246000fd5b60008160001904831182151516156123e4576123e46121b4565b500290565b6000816123f8576123f86121b4565b50600019019056fea26469706673582212204620cff8776cb1208eec5e98031856868c785b2a20941e65c290e8c13c8dd0ec64736f6c63430008090033",
  "linkReferences": {},
  "deployedLinkReferences": {}
}