{
  "_format": "hh-sol-artifact-1",
  "contractName": "PTNFTMarketPlace",
  "sourceName": "contracts/marketplace.sol",
  "abi": [
    {
      "inputs": [],
      "stateMutability": "nonpayable",
      "type": "constructor"
    },
    {
      "inputs": [],
      "name": "PTNFTMarketPlace__AllowedCryptoNotExist",
      "type": "error"
    },
    {
      "inputs": [
        {
          "internalType": "address",
          "name": "",
          "type": "address"
        },
        {
          "internalType": "uint256",
          "name": "",
          "type": "uint256"
        }
      ],
      "name": "PTNFTMarketPlace__AlreadyListed",
      "type": "error"
    },
    {
      "inputs": [],
      "name": "PTNFTMarketPlace__FailToWithDrawAmount",
      "type": "error"
    },
    {
      "inputs": [],
      "name": "PTNFTMarketPlace__FixedPirceMarketItem",
      "type": "error"
    },
    {
      "inputs": [],
      "name": "PTNFTMarketPlace__InsufficientApprovalFund",
      "type": "error"
    },
    {
      "inputs": [],
      "name": "PTNFTMarketPlace__InsufficientFund",
      "type": "error"
    },
    {
      "inputs": [
        {
          "internalType": "address",
          "name": "",
          "type": "address"
        },
        {
          "internalType": "uint256",
          "name": "",
          "type": "uint256"
        }
      ],
      "name": "PTNFTMarketPlace__ItemIdInvalid",
      "type": "error"
    },
    {
      "inputs": [],
      "name": "PTNFTMarketPlace__MarketItemExpired",
      "type": "error"
    },
    {
      "inputs": [],
      "name": "PTNFTMarketPlace__NFTContractAddressIsRequired",
      "type": "error"
    },
    {
      "inputs": [],
      "name": "PTNFTMarketPlace__NoAmountForWithDraw",
      "type": "error"
    },
    {
      "inputs": [],
      "name": "PTNFTMarketPlace__NoOfferExist",
      "type": "error"
    },
    {
      "inputs": [],
      "name": "PTNFTMarketPlace__NotAvailableForOffer",
      "type": "error"
    },
    {
      "inputs": [],
      "name": "PTNFTMarketPlace__NotOwner",
      "type": "error"
    },
    {
      "inputs": [],
      "name": "PTNFTMarketPlace__OfferTimeExpired",
      "type": "error"
    },
    {
      "inputs": [],
      "name": "PTNFTMarketPlace__PermissionRequired",
      "type": "error"
    },
    {
      "inputs": [],
      "name": "PTNFTMarketPlace__ValueShouldGreaterThenZero",
      "type": "error"
    },
    {
      "anonymous": false,
      "inputs": [
        {
          "indexed": true,
          "internalType": "uint256",
          "name": "tokenId",
          "type": "uint256"
        },
        {
          "indexed": false,
          "internalType": "address",
          "name": "owner",
          "type": "address"
        },
        {
          "indexed": true,
          "internalType": "address",
          "name": "contractAddress",
          "type": "address"
        },
        {
          "indexed": false,
          "internalType": "uint256",
          "name": "offerAmount",
          "type": "uint256"
        },
        {
          "indexed": true,
          "internalType": "address payable",
          "name": "offerBy",
          "type": "address"
        },
        {
          "indexed": false,
          "internalType": "enum OfferState",
          "name": "status",
          "type": "uint8"
        }
      ],
      "name": "AcceptOffer",
      "type": "event"
    },
    {
      "anonymous": false,
      "inputs": [
        {
          "indexed": true,
          "internalType": "uint256",
          "name": "tokenId",
          "type": "uint256"
        },
        {
          "indexed": false,
          "internalType": "address",
          "name": "owner",
          "type": "address"
        },
        {
          "indexed": true,
          "internalType": "address",
          "name": "contractAddress",
          "type": "address"
        },
        {
          "indexed": false,
          "internalType": "uint256",
          "name": "offerAmount",
          "type": "uint256"
        },
        {
          "indexed": true,
          "internalType": "address payable",
          "name": "offerBy",
          "type": "address"
        }
      ],
      "name": "BuyNFT",
      "type": "event"
    },
    {
      "anonymous": false,
      "inputs": [
        {
          "indexed": true,
          "internalType": "uint256",
          "name": "tokenId",
          "type": "uint256"
        },
        {
          "indexed": true,
          "internalType": "address",
          "name": "contractAddress",
          "type": "address"
        },
        {
          "indexed": false,
          "internalType": "uint256",
          "name": "offerAmount",
          "type": "uint256"
        },
        {
          "indexed": false,
          "internalType": "uint256",
          "name": "totalOffers",
          "type": "uint256"
        },
        {
          "indexed": false,
          "internalType": "uint256",
          "name": "startAt",
          "type": "uint256"
        },
        {
          "indexed": false,
          "internalType": "uint256",
          "name": "expiresAt",
          "type": "uint256"
        },
        {
          "indexed": true,
          "internalType": "address payable",
          "name": "offerBy",
          "type": "address"
        },
        {
          "indexed": false,
          "internalType": "enum OfferState",
          "name": "status",
          "type": "uint8"
        }
      ],
      "name": "CreateOffer",
      "type": "event"
    },
    {
      "anonymous": false,
      "inputs": [
        {
          "indexed": true,
          "internalType": "address",
          "name": "buyer",
          "type": "address"
        },
        {
          "indexed": true,
          "internalType": "uint256",
          "name": "amount",
          "type": "uint256"
        }
      ],
      "name": "FallbackCalled",
      "type": "event"
    },
    {
      "anonymous": false,
      "inputs": [
        {
          "indexed": true,
          "internalType": "uint256",
          "name": "tokenId",
          "type": "uint256"
        },
        {
          "indexed": true,
          "internalType": "address",
          "name": "contractAddress",
          "type": "address"
        },
        {
          "indexed": true,
          "internalType": "address",
          "name": "seller",
          "type": "address"
        },
        {
          "indexed": false,
          "internalType": "address",
          "name": "buyer",
          "type": "address"
        },
        {
          "indexed": false,
          "internalType": "uint256",
          "name": "minPrice",
          "type": "uint256"
        },
        {
          "indexed": false,
          "internalType": "bool",
          "name": "isFixedPrice",
          "type": "bool"
        },
        {
          "indexed": false,
          "internalType": "uint256",
          "name": "startAt",
          "type": "uint256"
        },
        {
          "indexed": false,
          "internalType": "uint256",
          "name": "expiresAt",
          "type": "uint256"
        },
        {
          "indexed": false,
          "internalType": "enum State",
          "name": "state",
          "type": "uint8"
        }
      ],
      "name": "MarketItemCreated",
      "type": "event"
    },
    {
      "anonymous": false,
      "inputs": [
        {
          "indexed": true,
          "internalType": "uint256",
          "name": "tokenId",
          "type": "uint256"
        },
        {
          "indexed": true,
          "internalType": "address",
          "name": "contractAddress",
          "type": "address"
        },
        {
          "indexed": true,
          "internalType": "address",
          "name": "seller",
          "type": "address"
        },
        {
          "indexed": false,
          "internalType": "enum State",
          "name": "state",
          "type": "uint8"
        }
      ],
      "name": "MarketItemDelete",
      "type": "event"
    },
    {
      "anonymous": false,
      "inputs": [
        {
          "indexed": true,
          "internalType": "address",
          "name": "buyer",
          "type": "address"
        },
        {
          "indexed": true,
          "internalType": "uint256",
          "name": "amount",
          "type": "uint256"
        }
      ],
      "name": "ReceivedCalled",
      "type": "event"
    },
    {
      "anonymous": false,
      "inputs": [
        {
          "indexed": true,
          "internalType": "uint256",
          "name": "tokenId",
          "type": "uint256"
        },
        {
          "indexed": false,
          "internalType": "address",
          "name": "owner",
          "type": "address"
        },
        {
          "indexed": true,
          "internalType": "address",
          "name": "contractAddress",
          "type": "address"
        },
        {
          "indexed": false,
          "internalType": "uint256",
          "name": "offerAmount",
          "type": "uint256"
        },
        {
          "indexed": true,
          "internalType": "address payable",
          "name": "offerBy",
          "type": "address"
        },
        {
          "indexed": false,
          "internalType": "enum OfferState",
          "name": "status",
          "type": "uint8"
        }
      ],
      "name": "RejectOffer",
      "type": "event"
    },
    {
      "anonymous": false,
      "inputs": [
        {
          "indexed": true,
          "internalType": "uint256",
          "name": "itemSoldCounter",
          "type": "uint256"
        }
      ],
      "name": "TotalNumberOfItemMarketPlace",
      "type": "event"
    },
    {
      "anonymous": false,
      "inputs": [
        {
          "indexed": true,
          "internalType": "uint256",
          "name": "totalOfferOnMarketPlace",
          "type": "uint256"
        }
      ],
      "name": "TotalNumberOfOfferOnMarketPlace",
      "type": "event"
    },
    {
      "anonymous": false,
      "inputs": [
        {
          "indexed": true,
          "internalType": "address",
          "name": "offerBy",
          "type": "address"
        },
        {
          "indexed": true,
          "internalType": "uint256",
          "name": "amount",
          "type": "uint256"
        }
      ],
      "name": "WithDrawAmount",
      "type": "event"
    },
    {
      "anonymous": false,
      "inputs": [
        {
          "indexed": true,
          "internalType": "uint256",
          "name": "tokenId",
          "type": "uint256"
        },
        {
          "indexed": true,
          "internalType": "address",
          "name": "contractAddress",
          "type": "address"
        },
        {
          "indexed": false,
          "internalType": "uint256",
          "name": "offerAmount",
          "type": "uint256"
        },
        {
          "indexed": true,
          "internalType": "address payable",
          "name": "offerBy",
          "type": "address"
        }
      ],
      "name": "WithDrawFromOffer",
      "type": "event"
    },
    {
      "anonymous": false,
      "inputs": [
        {
          "indexed": true,
          "internalType": "uint256",
          "name": "tokenId",
          "type": "uint256"
        },
        {
          "indexed": true,
          "internalType": "address",
          "name": "contractAddress",
          "type": "address"
        },
        {
          "indexed": true,
          "internalType": "address",
          "name": "offerBy",
          "type": "address"
        },
        {
          "indexed": false,
          "internalType": "uint256",
          "name": "amount",
          "type": "uint256"
        }
      ],
      "name": "WithDrawRefundAmount",
      "type": "event"
    },
    {
      "stateMutability": "payable",
      "type": "fallback"
    },
    {
      "inputs": [
        {
          "internalType": "uint256",
          "name": "",
          "type": "uint256"
        }
      ],
      "name": "AllowedCrypto",
      "outputs": [
        {
          "internalType": "contract IERC20",
          "name": "",
          "type": "address"
        }
      ],
      "stateMutability": "view",
      "type": "function"
    },
    {
      "inputs": [
        {
          "components": [
            {
              "internalType": "uint256",
              "name": "tokenId",
              "type": "uint256"
            },
            {
              "internalType": "string",
              "name": "uri",
              "type": "string"
            },
            {
              "internalType": "address",
              "name": "currency",
              "type": "address"
            },
            {
              "internalType": "uint256",
              "name": "minPrice",
              "type": "uint256"
            },
            {
              "internalType": "bool",
              "name": "isFixedPrice",
              "type": "bool"
            },
            {
              "internalType": "bytes",
              "name": "signature",
              "type": "bytes"
            }
          ],
          "internalType": "struct NFTVoucher",
          "name": "voucher",
          "type": "tuple"
        }
      ],
      "name": "acceptLazzNFTOffer",
      "outputs": [],
      "stateMutability": "payable",
      "type": "function"
    },
    {
      "inputs": [
        {
          "internalType": "uint256",
          "name": "itemId",
          "type": "uint256"
        },
        {
          "internalType": "address",
          "name": "nftAddress",
          "type": "address"
        }
      ],
      "name": "acceptOffer",
      "outputs": [],
      "stateMutability": "payable",
      "type": "function"
    },
    {
      "inputs": [
        {
          "internalType": "contract IERC20",
          "name": "_paytoken",
          "type": "address"
        }
      ],
      "name": "addCurrency",
      "outputs": [],
      "stateMutability": "nonpayable",
      "type": "function"
    },
    {
      "inputs": [
        {
          "internalType": "uint256",
          "name": "itemId",
          "type": "uint256"
        },
        {
          "internalType": "address",
          "name": "nftAddress",
          "type": "address"
        },
        {
          "internalType": "uint256",
          "name": "offerAmount",
          "type": "uint256"
        }
      ],
      "name": "buy",
      "outputs": [],
      "stateMutability": "payable",
      "type": "function"
    },
    {
      "inputs": [
        {
          "components": [
            {
              "internalType": "uint256",
              "name": "tokenId",
              "type": "uint256"
            },
            {
              "internalType": "string",
              "name": "uri",
              "type": "string"
            },
            {
              "internalType": "address",
              "name": "currency",
              "type": "address"
            },
            {
              "internalType": "uint256",
              "name": "minPrice",
              "type": "uint256"
            },
            {
              "internalType": "bool",
              "name": "isFixedPrice",
              "type": "bool"
            },
            {
              "internalType": "bytes",
              "name": "signature",
              "type": "bytes"
            }
          ],
          "internalType": "struct NFTVoucher",
          "name": "voucher",
          "type": "tuple"
        },
        {
          "internalType": "uint256",
          "name": "_offerAmount",
          "type": "uint256"
        }
      ],
      "name": "buyLazzNFT",
      "outputs": [],
      "stateMutability": "payable",
      "type": "function"
    },
    {
      "inputs": [
        {
          "internalType": "uint256",
          "name": "itemId",
          "type": "uint256"
        },
        {
          "internalType": "uint256",
          "name": "minPrice",
          "type": "uint256"
        },
        {
          "internalType": "bool",
          "name": "isFixedPrice",
          "type": "bool"
        },
        {
          "internalType": "uint256",
          "name": "expiresAt",
          "type": "uint256"
        },
        {
          "internalType": "address",
          "name": "nftAddress",
          "type": "address"
        },
        {
          "internalType": "uint256",
          "name": "pid",
          "type": "uint256"
        }
      ],
      "name": "createMarketItem",
      "outputs": [],
      "stateMutability": "nonpayable",
      "type": "function"
    },
    {
      "inputs": [
        {
          "internalType": "uint16",
          "name": "itemId",
          "type": "uint16"
        },
        {
          "internalType": "uint16",
          "name": "numberOfDays",
          "type": "uint16"
        },
        {
          "internalType": "address",
          "name": "nftAddress",
          "type": "address"
        },
        {
          "internalType": "uint256",
          "name": "offerAmount",
          "type": "uint256"
        }
      ],
      "name": "createOffer",
      "outputs": [],
      "stateMutability": "payable",
      "type": "function"
    },
    {
      "inputs": [
        {
          "components": [
            {
              "internalType": "uint256",
              "name": "tokenId",
              "type": "uint256"
            },
            {
              "internalType": "string",
              "name": "uri",
              "type": "string"
            },
            {
              "internalType": "address",
              "name": "currency",
              "type": "address"
            },
            {
              "internalType": "uint256",
              "name": "minPrice",
              "type": "uint256"
            },
            {
              "internalType": "bool",
              "name": "isFixedPrice",
              "type": "bool"
            },
            {
              "internalType": "bytes",
              "name": "signature",
              "type": "bytes"
            }
          ],
          "internalType": "struct NFTVoucher",
          "name": "voucher",
          "type": "tuple"
        },
        {
          "internalType": "uint256",
          "name": "numberOfDays",
          "type": "uint256"
        },
        {
          "internalType": "uint256",
          "name": "_offerAmount",
          "type": "uint256"
        }
      ],
      "name": "createOfferFoRLazzNFT",
      "outputs": [],
      "stateMutability": "payable",
      "type": "function"
    },
    {
      "inputs": [
        {
          "internalType": "uint256",
          "name": "itemId",
          "type": "uint256"
        },
        {
          "internalType": "address",
          "name": "nftAddress",
          "type": "address"
        }
      ],
      "name": "deleteMarketItem",
      "outputs": [],
      "stateMutability": "nonpayable",
      "type": "function"
    },
    {
      "inputs": [],
      "name": "getContractBlanace",
      "outputs": [
        {
          "internalType": "uint256",
          "name": "",
          "type": "uint256"
        }
      ],
      "stateMutability": "view",
      "type": "function"
    },
    {
      "inputs": [],
      "name": "getItemCounter",
      "outputs": [
        {
          "internalType": "uint256",
          "name": "",
          "type": "uint256"
        }
      ],
      "stateMutability": "view",
      "type": "function"
    },
    {
      "inputs": [],
      "name": "getListingFee",
      "outputs": [
        {
          "internalType": "uint256",
          "name": "",
          "type": "uint256"
        }
      ],
      "stateMutability": "view",
      "type": "function"
    },
    {
      "inputs": [
        {
          "internalType": "address",
          "name": "nftAddress",
          "type": "address"
        },
        {
          "internalType": "uint256",
          "name": "tokenId",
          "type": "uint256"
        }
      ],
      "name": "getMarketItem",
      "outputs": [
        {
          "components": [
            {
              "internalType": "uint256",
              "name": "tokenId",
              "type": "uint256"
            },
            {
              "internalType": "address payable",
              "name": "seller",
              "type": "address"
            },
            {
              "internalType": "address payable",
              "name": "buyer",
              "type": "address"
            },
            {
              "internalType": "uint256",
              "name": "minPrice",
              "type": "uint256"
            },
            {
              "internalType": "bool",
              "name": "isFixedPrice",
              "type": "bool"
            },
            {
              "internalType": "uint256",
              "name": "startAt",
              "type": "uint256"
            },
            {
              "internalType": "uint256",
              "name": "expiresAt",
              "type": "uint256"
            },
            {
              "internalType": "uint256",
              "name": "pid",
              "type": "uint256"
            },
            {
              "internalType": "enum State",
              "name": "state",
              "type": "uint8"
            }
          ],
          "internalType": "struct MarketItem",
          "name": "",
          "type": "tuple"
        }
      ],
      "stateMutability": "view",
      "type": "function"
    },
    {
      "inputs": [
        {
          "internalType": "address",
          "name": "nftAddress",
          "type": "address"
        },
        {
          "internalType": "uint256",
          "name": "tokenId",
          "type": "uint256"
        }
      ],
      "name": "getMarketOffer",
      "outputs": [
        {
          "components": [
            {
              "internalType": "uint256",
              "name": "tokenId",
              "type": "uint256"
            },
            {
              "internalType": "uint256",
              "name": "offerAmount",
              "type": "uint256"
            },
            {
              "internalType": "uint256",
              "name": "totalOffers",
              "type": "uint256"
            },
            {
              "internalType": "uint256",
              "name": "startAt",
              "type": "uint256"
            },
            {
              "internalType": "uint256",
              "name": "expiresAt",
              "type": "uint256"
            },
            {
              "internalType": "address payable",
              "name": "offerBy",
              "type": "address"
            },
            {
              "internalType": "enum OfferState",
              "name": "status",
              "type": "uint8"
            }
          ],
          "internalType": "struct Offer",
          "name": "",
          "type": "tuple"
        }
      ],
      "stateMutability": "view",
      "type": "function"
    },
    {
      "inputs": [],
      "name": "getMarketowner",
      "outputs": [
        {
          "internalType": "address",
          "name": "",
          "type": "address"
        }
      ],
      "stateMutability": "view",
      "type": "function"
    },
    {
      "inputs": [],
      "name": "getNftContractAddress",
      "outputs": [
        {
          "internalType": "address",
          "name": "",
          "type": "address"
        }
      ],
      "stateMutability": "view",
      "type": "function"
    },
    {
      "inputs": [
        {
          "internalType": "address",
          "name": "nftAddress",
          "type": "address"
        },
        {
          "internalType": "uint256",
          "name": "tokenId",
          "type": "uint256"
        }
      ],
      "name": "getOffer",
      "outputs": [
        {
          "components": [
            {
              "internalType": "uint256",
              "name": "tokenId",
              "type": "uint256"
            },
            {
              "internalType": "uint256",
              "name": "offerAmount",
              "type": "uint256"
            },
            {
              "internalType": "uint256",
              "name": "totalOffers",
              "type": "uint256"
            },
            {
              "internalType": "uint256",
              "name": "startAt",
              "type": "uint256"
            },
            {
              "internalType": "uint256",
              "name": "expiresAt",
              "type": "uint256"
            },
            {
              "internalType": "address payable",
              "name": "offerBy",
              "type": "address"
            },
            {
              "internalType": "enum OfferState",
              "name": "status",
              "type": "uint8"
            }
          ],
          "internalType": "struct Offer",
          "name": "",
          "type": "tuple"
        }
      ],
      "stateMutability": "view",
      "type": "function"
    },
    {
      "inputs": [
        {
          "internalType": "address",
          "name": "buyer",
          "type": "address"
        }
      ],
      "name": "getWithDrawAmounts",
      "outputs": [
        {
          "internalType": "uint256",
          "name": "",
          "type": "uint256"
        }
      ],
      "stateMutability": "view",
      "type": "function"
    },
    {
      "inputs": [
        {
          "components": [
            {
              "internalType": "uint256",
              "name": "tokenId",
              "type": "uint256"
            },
            {
              "internalType": "string",
              "name": "uri",
              "type": "string"
            },
            {
              "internalType": "address",
              "name": "currency",
              "type": "address"
            },
            {
              "internalType": "uint256",
              "name": "minPrice",
              "type": "uint256"
            },
            {
              "internalType": "bool",
              "name": "isFixedPrice",
              "type": "bool"
            },
            {
              "internalType": "bytes",
              "name": "signature",
              "type": "bytes"
            }
          ],
          "internalType": "struct NFTVoucher",
          "name": "voucher",
          "type": "tuple"
        }
      ],
      "name": "rejectLazzNFTOffer",
      "outputs": [],
      "stateMutability": "payable",
      "type": "function"
    },
    {
      "inputs": [
        {
          "internalType": "uint256",
          "name": "itemId",
          "type": "uint256"
        },
        {
          "internalType": "address",
          "name": "nftAddress",
          "type": "address"
        }
      ],
      "name": "rejectOffer",
      "outputs": [],
      "stateMutability": "payable",
      "type": "function"
    },
    {
      "inputs": [
        {
          "internalType": "address",
          "name": "",
          "type": "address"
        },
        {
          "internalType": "uint256",
          "name": "",
          "type": "uint256"
        }
      ],
      "name": "s_marketItems",
      "outputs": [
        {
          "internalType": "uint256",
          "name": "tokenId",
          "type": "uint256"
        },
        {
          "internalType": "address payable",
          "name": "seller",
          "type": "address"
        },
        {
          "internalType": "address payable",
          "name": "buyer",
          "type": "address"
        },
        {
          "internalType": "uint256",
          "name": "minPrice",
          "type": "uint256"
        },
        {
          "internalType": "bool",
          "name": "isFixedPrice",
          "type": "bool"
        },
        {
          "internalType": "uint256",
          "name": "startAt",
          "type": "uint256"
        },
        {
          "internalType": "uint256",
          "name": "expiresAt",
          "type": "uint256"
        },
        {
          "internalType": "uint256",
          "name": "pid",
          "type": "uint256"
        },
        {
          "internalType": "enum State",
          "name": "state",
          "type": "uint8"
        }
      ],
      "stateMutability": "view",
      "type": "function"
    },
    {
      "inputs": [
        {
          "internalType": "address",
          "name": "nftContractAddress",
          "type": "address"
        }
      ],
      "name": "setNftContractAddress",
      "outputs": [],
      "stateMutability": "nonpayable",
      "type": "function"
    },
    {
      "inputs": [
        {
          "internalType": "uint256",
          "name": "listingFee",
          "type": "uint256"
        }
      ],
      "name": "setlistingFee",
      "outputs": [],
      "stateMutability": "nonpayable",
      "type": "function"
    },
    {
      "inputs": [],
      "name": "withDrawAmount",
      "outputs": [],
      "stateMutability": "payable",
      "type": "function"
    },
    {
      "inputs": [
        {
          "internalType": "address",
          "name": "nftAddress",
          "type": "address"
        },
        {
          "internalType": "uint256",
          "name": "tokenId",
          "type": "uint256"
        },
        {
          "internalType": "uint256",
          "name": "pid",
          "type": "uint256"
        }
      ],
      "name": "withDrawOfferFromLazzMint",
      "outputs": [],
      "stateMutability": "payable",
      "type": "function"
    },
    {
      "inputs": [
        {
          "internalType": "address",
          "name": "nftAddress",
          "type": "address"
        },
        {
          "internalType": "uint256",
          "name": "tokenId",
          "type": "uint256"
        }
      ],
      "name": "withDrawOfferFromMarket",
      "outputs": [],
      "stateMutability": "payable",
      "type": "function"
    },
    {
      "stateMutability": "payable",
      "type": "receive"
    }
  ],
  "bytecode": "0x60a0604052601960055534801561001557600080fd5b50600160005533608052608051613ff061006b600039600081816104c901528181610842015281816110c90152818161156301528181611e5a015281816128d301528181612c320152612e080152613ff06000f3fe6080604052600436106101a05760003560e01c8063b8fe6abe116100ec578063d71240a31161008a578063e86979b811610064578063e86979b81461057b578063e9878c841461059b578063f33c90df146105ae578063faa6c25c146105c1576101f8565b8063d71240a314610528578063da31d64014610548578063db9371c214610568576101f8565b8063cb25b632116100c6578063cb25b632146104ba578063cb279389146104ed578063cc8c941d14610502578063d6237c1814610515576101f8565b8063b8fe6abe14610472578063c57f793714610487578063ca8bbb11146104a7576101f8565b80638ab7439b11610159578063a02df46711610133578063a02df4671461036f578063ac71045e1461038f578063b28a3ca5146103bc578063b8959a8b14610454576101f8565b80638ab7439b14610327578063903cb26b1461032f578063918d407d1461035c576101f8565b806326c91cad1461024b57806327ecf47d146102885780632afaca20146102cc5780634b79156e146102e1578063573c2faa146102f45780638ab234b614610307576101f8565b366101f85733600090815260096020526040812080543492906101c4908490613808565b9091555050604051349033907f985c6b576d54b73e8b271365890eadef9d88dfe168128904b21fa0b128fd78ea90600090a3005b3360009081526009602052604081208054349290610217908490613808565b9091555050604051349033907f4fdfaf7cd2ae67f3639149bddef2addc991d3f26e0121df03517ec62523649ca90600090a3005b34801561025757600080fd5b5061026b610266366004613820565b6105d4565b6040516001600160a01b0390911681526020015b60405180910390f35b34801561029457600080fd5b506102be6102a3366004613851565b6001600160a01b031660009081526009602052604090205490565b60405190815260200161027f565b6102df6102da36600461386e565b6105fe565b005b6102df6102ef3660046138bd565b610afb565b6102df61030236600461390a565b610f0c565b34801561031357600080fd5b506102df610322366004613851565b6110be565b6102df611159565b34801561033b57600080fd5b5061034f61034a36600461390a565b61125c565b60405161027f9190613960565b6102df61036a3660046139e6565b61132a565b34801561037b57600080fd5b506102df61038a366004613a24565b61174a565b34801561039b57600080fd5b506103af6103aa36600461390a565b611bc3565b60405161027f9190613a92565b3480156103c857600080fd5b5061043f6103d736600461390a565b600a60209081526000928352604080842090915290825290208054600182015460028301546003840154600485015460058601546006870154600788015460089098015496976001600160a01b03968716979590961695939460ff9384169492939192911689565b60405161027f99989796959493929190613af1565b34801561046057600080fd5b506001546001600160a01b031661026b565b34801561047e57600080fd5b506005546102be565b34801561049357600080fd5b506103af6104a236600461390a565b611c69565b6102df6104b5366004613b68565b611cfe565b3480156104c657600080fd5b507f000000000000000000000000000000000000000000000000000000000000000061026b565b3480156104f957600080fd5b506102be612074565b6102df610510366004613b9d565b612084565b6102df610523366004613beb565b61239e565b34801561053457600080fd5b506102df6105433660046139e6565b612574565b34801561055457600080fd5b506102df610563366004613851565b6128c8565b6102df6105763660046139e6565b61295a565b34801561058757600080fd5b506102df610596366004613820565b612c27565b3480156105a757600080fd5b50476102be565b6102df6105bc366004613c20565b612c96565b6102df6105cf366004613b68565b6130e7565b600681815481106105e457600080fd5b6000918252602090912001546001600160a01b0316905081565b6002600054141561062a5760405162461bcd60e51b815260040161062190613c65565b60405180910390fd5b600260008181556001600160a01b038085168252600a602090815260408084208885528252808420815161012081018352815481526001820154851693810193909352808601549093169082015260038201546060820152600482015460ff90811615156080830152600583015460a0830152600683015460c0830152600783015460e0830152600883015487958995949261010085019216908111156106d3576106d3613936565b60028111156106e4576106e4613936565b81525050905060008160600151116107215760405163475694cb60e11b81526001600160a01b038416600482015260248101839052604401610621565b60008086816107318a8380613353565b90506107428833836007015461345f565b61074d426028613808565b81600601541015610771576040516336b47b6160e21b815260040160405180910390fd5b60006107818a8360000154611c69565b90506107a08160c001518260800151836020015185600301548d61360e565b6080810151158015906107b65750602081015115155b1561080c578060200151600960008360a001516001600160a01b03166001600160a01b0316815260200190815260200160002060008282546107f89190613808565b9091555050602081015160a0820151955093505b6002820180546001600160a01b0319163317905560088201805460ff191660011790556108388961369e565b6001600160a01b037f00000000000000000000000000000000000000000000000000000000000000001660009081526009602052604081208054909190610880908490613808565b9091555061088f90508961369e565b610899908a613c9c565b60018301546001600160a01b0316600090815260096020526040812080549091906108c5908490613808565b90915550506001600160a01b038a166000908152600860209081526040808320855484529091528120818155600181018290556002810182905560038101829055600481019190915560050180546001600160a81b0319169055600782015460068054909190811061093957610939613cb3565b6000918252602090912001546040516323b872dd60e01b81526001600160a01b03909116906323b872dd9061097690339030908e90600401613cc9565b602060405180830381600087803b15801561099057600080fd5b505af11580156109a4573d6000803e3d6000fd5b505050506040513d601f19601f820116820180604052508101906109c89190613ced565b50600182015482546040516323b872dd60e01b81526001600160a01b03808716936323b872dd93610a029391909216913391600401613cc9565b600060405180830381600087803b158015610a1c57600080fd5b505af1158015610a30573d6000803e3d6000fd5b50505050610a42600380546001019055565b600354604051600080516020613f9b83398151915290600090a28315610a985760015481516040518681526001600160a01b0388811693169190600080516020613f7b8339815191529060200160405180910390a45b80516001830154604080516001600160a01b039283168152602081018d90523393928e1692917f0338076959511a877a1ad7a568399be3d76673e7b281cacacba60fd9614c28fa910160405180910390a450506001600055505050505050505050565b60026000541415610b1e5760405162461bcd60e51b815260040161062190613c65565b600260008181556001600160a01b038085168252600a6020908152604080842061ffff8a16808652908352818520825161012081018452815481526001820154861694810194909452808701549094169183019190915260038301546060830152600483015460ff90811615156080840152600584015460a0840152600684015460c0840152600784015460e084015260088401548896929594926101008501929190911690811115610bd357610bd3613936565b6002811115610be457610be4613936565b8152505090506000816060015111610c215760405163475694cb60e11b81526001600160a01b038416600482015260248101839052604401610621565b60008661ffff1611610c465760405163042c329d60e41b815260040160405180910390fd5b6000808681610c5a61ffff8c168380613353565b600481015490915060ff1615610c8357604051630153fc7360e01b815260040160405180910390fd5b610c8e426028613808565b81600601541015610cb2576040516336b47b6160e21b815260040160405180910390fd5b610cc18833836007015461345f565b6000610cd18a8360000154611c69565b9050610cf08160c001518260800151836020015185600301548d61360e565b608081015115801590610d065750602081015115155b15610d5c578060200151600960008360a001516001600160a01b03166001600160a01b031681526020019081526020016000206000828254610d489190613808565b9091555050602081015160a0820151955093505b610d718183600001548b338f61ffff166136bb565b6001600160a01b03808c166000908152600860209081526040808320875484528252918290208451815590840151600180830191909155918401516002820155606084015160038201556080840151600482015560a0840151600582018054919094166001600160a01b031982168117855560c0860151929492936001600160a81b03199092161790600160a01b908490811115610e1157610e11613936565b021790555050600480546001019055506004546040517ff2738ea2b42cc2e9b8ff5bf9984ed11a5c07e94bda403dc7f45ad7dd32e4298490600090a28315610e895760015481516040518681526001600160a01b0388811693169190600080516020613f7b8339815191529060200160405180910390a45b8060a001516001600160a01b03168a6001600160a01b031682600001517f0744d9f896bf5669561de9c8684b6207b92dc1e1eac86c07fbfd15f6d5df363184602001518560400151866060015187608001518860c00151604051610ef1959493929190613d0a565b60405180910390a45050600160005550505050505050505050565b60026000541415610f2f5760405162461bcd60e51b815260040161062190613c65565b60026000908155610f408383611c69565b90506000816060015111610f6757604051633ac12bd760e11b815260040160405180910390fd5b60a08101516001600160a01b03163314610f945760405163a8735f6760e01b815260040160405180910390fd5b6001600160a01b03838116600090815260086020908152604080832086845282528083208381556001810184905560028101849055600381018490556004810184905560050180546001600160a81b031916905560a0850151918501519051929391909116918381818185875af1925050503d8060008114611032576040519150601f19603f3d011682016040523d82523d6000602084013e611037565b606091505b5050905080611059576040516376b5112160e01b815260040160405180910390fd5b8160a001516001600160a01b0316846001600160a01b031683600001517fae3139c096a7eebbcbb8a538a646fac5ed6a203344429e2e6a45abd72924f09485602001516040516110ab91815260200190565b60405180910390a4505060016000555050565b336001600160a01b037f0000000000000000000000000000000000000000000000000000000000000000161461110757604051635d16545760e11b815260040160405180910390fd5b600680546001810182556000919091527ff652222313e28459528d920b65115c16c04f3efc82aaedc97be59f3f377c0d3f0180546001600160a01b0319166001600160a01b0392909216919091179055565b6002600054141561117c5760405162461bcd60e51b815260040161062190613c65565b6002600090815533815260096020526040902054806111ae5760405163010cbbcf60e31b815260040160405180910390fd5b336000818152600960205260408082208290555190919083908381818185875af1925050503d80600081146111ff576040519150601f19603f3d011682016040523d82523d6000602084013e611204565b606091505b5050905080611226576040516376b5112160e01b815260040160405180910390fd5b604051829033907f86103aca9d06378ad5eb858d2ee726267f69628ca4ff59597196865412b6338790600090a350506001600055565b611264613731565b6001600160a01b038084166000908152600a602090815260408083208684528252918290208251610120810184528154815260018201548516928101929092526002808201549094169282019290925260038201546060820152600482015460ff90811615156080830152600583015460a0830152600683015460c0830152600783015460e0830152600883015491936101008501929091169081111561130d5761130d613936565b600281111561131e5761131e613936565b90525090505b92915050565b6002600054141561134d5760405162461bcd60e51b815260040161062190613c65565b600260008181556001600160a01b038084168252600a602090815260408084208785528252808420815161012081018352815481526001820154851693810193909352808601549093169082015260038201546060820152600482015460ff90811615156080830152600583015460a0830152600683015460c0830152600783015460e0830152600883015486958895949261010085019216908111156113f6576113f6613936565b600281111561140757611407613936565b81525050905060008160600151116114445760405163475694cb60e11b81526001600160a01b038416600482015260248101839052604401610621565b836000611452878380613353565b905061145f426028613808565b81600601541015611483576040516336b47b6160e21b815260040160405180910390fd5b60018101546001600160a01b031633146114b057604051635d16545760e11b815260040160405180910390fd5b60006114c0878360000154611c69565b905060008160600151116114e757604051633ac12bd760e11b815260040160405180910390fd5b6114f2426028613808565b8160800151101561151657604051638d5c967960e01b815260040160405180910390fd5b60a08101516002830180546001600160a01b0319166001600160a01b0390921691909117905560088201805460ff1916600117905560208101516115599061369e565b6001600160a01b037f000000000000000000000000000000000000000000000000000000000000000016600090815260096020526040812080549091906115a1908490613808565b909155505060208101516115b49061369e565b81602001516115c39190613c9c565b60018301546001600160a01b0316600090815260096020526040812080549091906115ef908490613808565b90915550506001600160a01b0380881660009081526008602090815260408083208654845290915280822082815560018082018490556002820184905560038201849055600480830194909455600590910180546001600160a81b031916905585015460a0850151865492516323b872dd60e01b8152888616956323b872dd9561167f9594909116939101613cc9565b600060405180830381600087803b15801561169957600080fd5b505af11580156116ad573d6000803e3d6000fd5b505050506116bf600380546001019055565b600354604051600080516020613f9b83398151915290600090a260a081015181516001840154602084015160c08501516040516001600160a01b03958616958d811695947f722623d778d9769c3f3b72a3dfdcca575db41cec0dc77848edc0240d74375e2d94611733949190921692613d3e565b60405180910390a450506001600055505050505050565b6002600054141561176d5760405162461bcd60e51b815260040161062190613c65565b600260008181556001600160a01b038085168252600a602090815260408084208b85528252808420815161012081018352815481526001820154851693810193909352808601549093169082015260038201546060820152600482015460ff90811615156080830152600583015460a0830152600683015460c0830152600783015460e0830152600883015487958c959492610100850192169081111561181657611816613936565b600281111561182757611827613936565b90525060608101519091501561186257604051632b1683bd60e21b81526001600160a01b038416600482015260248101839052604401610621565b84886118815760405163042c329d60e41b815260040160405180910390fd5b8715801561188d575086155b156118ab5760405163042c329d60e41b815260040160405180910390fd5b60405163020604bf60e21b8152600481018b905230906001600160a01b0383169063081812fc9060240160206040518083038186803b1580156118ed57600080fd5b505afa158015611901573d6000803e3d6000fd5b505050506040513d601f19601f820116820180604052508101906119259190613d62565b6001600160a01b03161461194c5760405163a8735f6760e01b815260040160405180910390fd5b6040516331a9108f60e11b8152600481018b905233906001600160a01b03831690636352211e9060240160206040518083038186803b15801561198e57600080fd5b505afa1580156119a2573d6000803e3d6000fd5b505050506040513d601f19601f820116820180604052508101906119c69190613d62565b6001600160a01b0316146119ed57604051635d16545760e11b815260040160405180910390fd5b6119fb600280546001019055565b6040518061012001604052808b8152602001336001600160a01b0316815260200160006001600160a01b031681526020018a8152602001891515815260200142815260200189611a6157611a528962015180613d7f565b611a5c9042613808565b611a64565b60005b815260208101879052604001600090526001600160a01b038088166000908152600a602090815260408083208f84528252918290208451815590840151600180830180549286166001600160a01b0319938416179055928501516002808401805492909616919092161790935560608401516003820155608084015160048201805491151560ff1992831617905560a0850151600583015560c0850151600683015560e0850151600783015561010085015160088301805493959194909390921691908490811115611b3857611b38613936565b0217905550339150506001600160a01b0387168b7f8ecc66def653ffe03019eaed964306f2d2f20b25b247fb153822b85fd186d67160008d8d4281611b9357611b848f62015180613d7f565b611b8e9042613808565b611b96565b60005b6000604051611baa96959493929190613d9e565b60405180910390a4505060016000555050505050505050565b611bcb6137a1565b6001600160a01b038381166000908152600760209081526040808320868452825291829020825160e08101845281548152600180830154938201939093526002820154938101939093526003810154606084015260048101546080840152600581015493841660a0840152919260c0840191600160a01b90910460ff1690811115611c5857611c58613936565b600181111561131e5761131e613936565b611c716137a1565b6001600160a01b038381166000908152600860209081526040808320868452825291829020825160e08101845281548152600180830154938201939093526002820154938101939093526003810154606084015260048101546080840152600581015493841660a0840152919260c0840191600160a01b90910460ff1690811115611c5857611c58613936565b60026000541415611d215760405162461bcd60e51b815260040161062190613c65565b6002600090815560015460405163d1c2a10f60e01b81526001600160a01b039091169063d1c2a10f90611d58908590600401613edf565b60206040518083038186803b158015611d7057600080fd5b505afa158015611d84573d6000803e3d6000fd5b505050506040513d601f19601f82011682018060405250810190611da89190613d62565b90506001600160a01b0381163314611dd357604051635d16545760e11b815260040160405180910390fd5b600154600090611ded906001600160a01b03168435611bc3565b90506000816060015111611e1457604051633ac12bd760e11b815260040160405180910390fd5b611e1f426028613808565b81608001511015611e4357604051638d5c967960e01b815260040160405180910390fd5b611e50816020015161369e565b6001600160a01b037f00000000000000000000000000000000000000000000000000000000000000001660009081526009602052604081208054909190611e98908490613808565b90915550506020810151611eab9061369e565b8160200151611eba9190613c9c565b6001600160a01b03831660009081526009602052604081208054909190611ee2908490613808565b9091555050600180546001600160a01b039081166000908152600760208181526040808420893580865290835281852085815580880186905560028101869055600381018690556004808201879055600591820180546001600160a81b031916905588548816875294845282862091865292529283902001805460ff60a01b1916600160a01b179055925460a085015191516310b88a3f60e31b81529216926385c451f892611f949291889101613ef2565b60206040518083038186803b158015611fac57600080fd5b505afa158015611fc0573d6000803e3d6000fd5b505050506040513d601f19601f82011682018060405250810190611fe49190613d62565b50611ff3600380546001019055565b600354604051600080516020613f9b83398151915290600090a260a081015160018054835160208501516040516001600160a01b03958616959093169391927f722623d778d9769c3f3b72a3dfdcca575db41cec0dc77848edc0240d74375e2d92612062928992909190613d3e565b60405180910390a45050600160005550565b600061207f60025490565b905090565b600260005414156120a75760405162461bcd60e51b815260040161062190613c65565b6002600055816120ca5760405163042c329d60e41b815260040160405180910390fd5b60015460405163d1c2a10f60e01b81526001600160a01b039091169063d1c2a10f906120fa908690600401613edf565b60206040518083038186803b15801561211257600080fd5b505afa158015612126573d6000803e3d6000fd5b505050506040513d601f19601f8201168201806040525081019061214a9190613d62565b5060015460009081908190612169906001600160a01b03168735611bc3565b90506121778433600161345f565b6121918160c001518260800151836020015160018861360e565b6080810151158015906121a75750602081015115155b156121fd578060200151600960008360a001516001600160a01b03166001600160a01b0316815260200190815260200160002060008282546121e99190613808565b9091555050602081015160a0820151935091505b61220b8187358633896136bb565b600180546001600160a01b0390811660009081526007602090815260408083208c358452825291829020855181559085015181850155908401516002820155606084015160038201556080840151600482015560a0840151600582018054919093166001600160a01b031982168117845560c086015192949293926001600160a81b03199092161790600160a01b9084908111156122ab576122ab613936565b0217905550506004805460010190555081156122f75760015481516040518481526001600160a01b0386811693169190600080516020613f7b8339815191529060200160405180910390a45b6004546040517ff2738ea2b42cc2e9b8ff5bf9984ed11a5c07e94bda403dc7f45ad7dd32e4298490600090a260a0810151600154825160208401516040808601516060870151608088015160c089015193516001600160a01b0398891698909716967f0744d9f896bf5669561de9c8684b6207b92dc1e1eac86c07fbfd15f6d5df363195612389959094939291613d0a565b60405180910390a45050600160005550505050565b600260005414156123c15760405162461bcd60e51b815260040161062190613c65565b600260009081556123d28484611bc3565b905060008160600151116123f957604051633ac12bd760e11b815260040160405180910390fd5b60a08101516001600160a01b031633146124265760405163a8735f6760e01b815260040160405180910390fd5b6001600160a01b03841660009081526007602090815260408083208684529091528120818155600181018290556002810182905560038101829055600481019190915560050180546001600160a81b0319169055600680548390811061248e5761248e613cb3565b600091825260209182902001549082015160405163a9059cbb60e01b815233600482015260248101919091526001600160a01b039091169063a9059cbb90604401602060405180830381600087803b1580156124e957600080fd5b505af11580156124fd573d6000803e3d6000fd5b505050506040513d601f19601f820116820180604052508101906125219190613ced565b508060a001516001600160a01b0316846001600160a01b031682600001517fae3139c096a7eebbcbb8a538a646fac5ed6a203344429e2e6a45abd72924f09484602001516040516110ab91815260200190565b600260005414156125975760405162461bcd60e51b815260040161062190613c65565b600260008181556001600160a01b038084168252600a602090815260408084208785528252808420815161012081018352815481526001820154851693810193909352808601549093169082015260038201546060820152600482015460ff90811615156080830152600583015460a0830152600683015460c0830152600783015460e08301526008830154869588959492610100850192169081111561264057612640613936565b600281111561265157612651613936565b815250509050600081606001511161268e5760405163475694cb60e11b81526001600160a01b038416600482015260248101839052604401610621565b83600080806001600160a01b0388166000908152600a602090815260408083208c845290915290206008015460ff1660028111156126ce576126ce613936565b146126ec576040516313966ca360e21b815260040160405180910390fd5b6001600160a01b038781166000908152600a602090815260408083208c845290915290819020805491516331a9108f60e11b8152600481019290925291339190861690636352211e9060240160206040518083038186803b15801561275057600080fd5b505afa158015612764573d6000803e3d6000fd5b505050506040513d601f19601f820116820180604052508101906127889190613d62565b6001600160a01b0316146127af57604051635d16545760e11b815260040160405180910390fd5b60006127bf898360000154611c69565b905080608001516000141580156127d95750602081015115155b1561282f578060200151600960008360a001516001600160a01b03166001600160a01b03168152602001908152602001600020600082825461281b9190613808565b9091555050602081015160a0820151945092505b60088201805460ff19166002179055821561287a5760015481516040518581526001600160a01b0387811693169190600080516020613f7b8339815191529060200160405180910390a45b6001820154825460088401546040516001600160a01b03938416938d1692917f75e19d9c9963953a8eb6f7908a68961fa03743430b4dd22dd7d85d01c600d72a91611baa9160ff1690613f16565b336001600160a01b037f0000000000000000000000000000000000000000000000000000000000000000161461291157604051635d16545760e11b815260040160405180910390fd5b6001600160a01b03811661293857604051635cd938e560e11b815260040160405180910390fd5b600180546001600160a01b0319166001600160a01b0392909216919091179055565b6002600054141561297d5760405162461bcd60e51b815260040161062190613c65565b600260008181556001600160a01b038084168252600a602090815260408084208785528252808420815161012081018352815481526001820154851693810193909352808601549093169082015260038201546060820152600482015460ff90811615156080830152600583015460a0830152600683015460c0830152600783015460e083015260088301548695889594926101008501921690811115612a2657612a26613936565b6002811115612a3757612a37613936565b8152505090506000816060015111612a745760405163475694cb60e11b81526001600160a01b038416600482015260248101839052604401610621565b836000612a82878380613353565b9050612a8f426028613808565b81600601541015612ab3576040516336b47b6160e21b815260040160405180910390fd5b60018101546001600160a01b03163314612ae057604051635d16545760e11b815260040160405180910390fd5b6000612af0878360000154611c69565b90506000816060015111612b1757604051633ac12bd760e11b815260040160405180910390fd5b612b22426028613808565b81608001511015612b4657604051638d5c967960e01b815260040160405180910390fd5b8060200151600960008360a001516001600160a01b03166001600160a01b031681526020019081526020016000206000828254612b839190613808565b90915550506001600160a01b03808816600081815260086020908152604080832087548452825280832083815560018082018590556002820185905560038201859055600482019490945560050180546001600160a81b031916905560a08601518651938801549287015160c08801519251918716967faea5be62cca73c3703eab22f56c5494458183772e8d63f5843891000008b50ae9461173394911692613d3e565b336001600160a01b037f00000000000000000000000000000000000000000000000000000000000000001614612c7057604051635d16545760e11b815260040160405180910390fd5b60008111612c915760405163042c329d60e41b815260040160405180910390fd5b600555565b60026000541415612cb95760405162461bcd60e51b815260040161062190613c65565b6002600090815560015460405163d1c2a10f60e01b8152829182916001600160a01b039091169063d1c2a10f90612cf4908890600401613edf565b60206040518083038186803b158015612d0c57600080fd5b505afa158015612d20573d6000803e3d6000fd5b505050506040513d601f19601f82011682018060405250810190612d449190613d62565b600154909150600090612d61906001600160a01b03168735611bc3565b9050612d6f8533600161345f565b612d898160c001518260800151836020015160018961360e565b608081015115801590612d9f5750602081015115155b15612df5578060200151600960008360a001516001600160a01b03166001600160a01b031681526020019081526020016000206000828254612de19190613808565b9091555050602081015160a0820151945092505b612dfe8561369e565b6001600160a01b037f00000000000000000000000000000000000000000000000000000000000000001660009081526009602052604081208054909190612e46908490613808565b90915550612e5590508561369e565b612e5f9086613c9c565b6001600160a01b03831660009081526009602052604081208054909190612e87908490613808565b9091555050600180546001600160a01b0390811660009081526007602081815260408084208c35808652908352818520858155808801869055600281018690556003810186905560048101869055600590810180546001600160a81b031916905587549096168552928252808420928452919052902001805460ff60a01b1916600160a01b8302179055506006600181548110612f2657612f26613cb3565b6000918252602090912001546040516323b872dd60e01b81526001600160a01b03909116906323b872dd90612f6390339030908a90600401613cc9565b602060405180830381600087803b158015612f7d57600080fd5b505af1158015612f91573d6000803e3d6000fd5b505050506040513d601f19601f82011682018060405250810190612fb59190613ced565b506001546040516310b88a3f60e31b81526001600160a01b03909116906385c451f890612fe89033908a90600401613ef2565b60206040518083038186803b15801561300057600080fd5b505afa158015613014573d6000803e3d6000fd5b505050506040513d601f19601f820116820180604052508101906130389190613d62565b50613047600380546001019055565b600354604051600080516020613f9b83398151915290600090a2821561309d5760015481516040518581526001600160a01b0387811693169190600080516020613f7b8339815191529060200160405180910390a45b600154604080516001600160a01b03858116825260208201899052339316918935917f0338076959511a877a1ad7a568399be3d76673e7b281cacacba60fd9614c28fa9101612389565b6002600054141561310a5760405162461bcd60e51b815260040161062190613c65565b6002600090815560015460405163d1c2a10f60e01b81526001600160a01b039091169063d1c2a10f90613141908590600401613edf565b60206040518083038186803b15801561315957600080fd5b505afa15801561316d573d6000803e3d6000fd5b505050506040513d601f19601f820116820180604052508101906131919190613d62565b90506001600160a01b03811633146131bc57604051635d16545760e11b815260040160405180910390fd5b6001546000906131d6906001600160a01b03168435611bc3565b905060008160600151116131fd57604051633ac12bd760e11b815260040160405180910390fd5b613208426028613808565b8160800151101561322c57604051638d5c967960e01b815260040160405180910390fd5b60a08101516020808301516001600160a01b0383166000908152600990925260408220805491928392613260908490613808565b9091555050600180546001600160a01b0390811660009081526007602090815260408083208a358452825280832083815580860184905560028101849055600381018490556004810193909355600590920180546001600160a81b0319169055925486519151858152868416949190931692600080516020613f7b833981519152910160405180910390a460a08301516001548451602086015160c08701516040516001600160a01b0395861695909416937faea5be62cca73c3703eab22f56c5494458183772e8d63f5843891000008b50ae9261333f928b92613d3e565b60405180910390a450506001600055505050565b6001600160a01b0382166000908152600a60209081526040808320868452909152812081600882015460ff16600281111561339057613390613936565b146133ae576040516313966ca360e21b815260040160405180910390fd5b805460405163020604bf60e21b815230916001600160a01b0386169163081812fc916133e09160040190815260200190565b60206040518083038186803b1580156133f857600080fd5b505afa15801561340c573d6000803e3d6000fd5b505050506040513d601f19601f820116820180604052508101906134309190613d62565b6001600160a01b0316146134575760405163a8735f6760e01b815260040160405180910390fd5b949350505050565b600654819061346f90600161371e565b101561348e57604051631ddb500b60e01b815260040160405180910390fd5b600681815481106134a1576134a1613cb3565b600091825260209091200154604051636eb1769f60e11b81523060048201526001600160a01b0384811660248301529091169063dd62ed3e9060440160206040518083038186803b1580156134f557600080fd5b505afa158015613509573d6000803e3d6000fd5b505050506040513d601f19601f8201168201806040525081019061352d9190613f24565b61354a5760405163a8735f6760e01b815260040160405180910390fd5b826006828154811061355e5761355e613cb3565b600091825260209091200154604051636eb1769f60e11b81523060048201526001600160a01b0385811660248301529091169063dd62ed3e9060440160206040518083038186803b1580156135b257600080fd5b505afa1580156135c6573d6000803e3d6000fd5b505050506040513d601f19601f820116820180604052508101906135ea9190613f24565b1015613609576040516389c79f0360e01b815260040160405180910390fd5b505050565b600085600181111561362257613622613936565b14613640576040516313966ca360e21b815260040160405180910390fd5b80821115613661576040516324f71b2560e21b815260040160405180910390fd5b61366c426028613808565b8411801561367957508083115b15613697576040516324f71b2560e21b815260040160405180910390fd5b5050505050565b60006103e8826005546136b19190613d7f565b6113249190613f3d565b6136c36137a1565b84865260208601849052604086018051906136dd82613f5f565b9052504260608701526136f38262015180613d7f565b6136fd9042613808565b608087015250506001600160a01b031660a08401525050600060c082015290565b600061372a8284613c9c565b9392505050565b6040518061012001604052806000815260200160006001600160a01b0316815260200160006001600160a01b03168152602001600081526020016000151581526020016000815260200160008152602001600081526020016000600281111561379c5761379c613936565b905290565b6040518060e00160405280600081526020016000815260200160008152602001600081526020016000815260200160006001600160a01b031681526020016000600181111561379c5761379c613936565b634e487b7160e01b600052601160045260246000fd5b6000821982111561381b5761381b6137f2565b500190565b60006020828403121561383257600080fd5b5035919050565b6001600160a01b038116811461384e57600080fd5b50565b60006020828403121561386357600080fd5b813561372a81613839565b60008060006060848603121561388357600080fd5b83359250602084013561389581613839565b929592945050506040919091013590565b803561ffff811681146138b857600080fd5b919050565b600080600080608085870312156138d357600080fd5b6138dc856138a6565b93506138ea602086016138a6565b925060408501356138fa81613839565b9396929550929360600135925050565b6000806040838503121561391d57600080fd5b823561392881613839565b946020939093013593505050565b634e487b7160e01b600052602160045260246000fd5b6003811061395c5761395c613936565b9052565b60006101208201905082518252602083015160018060a01b03808216602085015280604086015116604085015250506060830151606083015260808301516139ac608084018215159052565b5060a083015160a083015260c083015160c083015260e083015160e0830152610100808401516139de8285018261394c565b505092915050565b600080604083850312156139f957600080fd5b823591506020830135613a0b81613839565b809150509250929050565b801515811461384e57600080fd5b60008060008060008060c08789031215613a3d57600080fd5b86359550602087013594506040870135613a5681613a16565b9350606087013592506080870135613a6d81613839565b8092505060a087013590509295509295509295565b6002811061395c5761395c613936565b600060e082019050825182526020830151602083015260408301516040830152606083015160608301526080830151608083015260018060a01b0360a08401511660a083015260c0830151613aea60c0840182613a82565b5092915050565b8981526001600160a01b0389811660208301528816604082015260608101879052851515608082015260a0810185905260c0810184905260e081018390526101208101613b4261010083018461394c565b9a9950505050505050505050565b600060c08284031215613b6257600080fd5b50919050565b600060208284031215613b7a57600080fd5b813567ffffffffffffffff811115613b9157600080fd5b61345784828501613b50565b600080600060608486031215613bb257600080fd5b833567ffffffffffffffff811115613bc957600080fd5b613bd586828701613b50565b9660208601359650604090950135949350505050565b600080600060608486031215613c0057600080fd5b8335613c0b81613839565b95602085013595506040909401359392505050565b60008060408385031215613c3357600080fd5b823567ffffffffffffffff811115613c4a57600080fd5b613c5685828601613b50565b95602094909401359450505050565b6020808252601f908201527f5265656e7472616e637947756172643a207265656e7472616e742063616c6c00604082015260600190565b600082821015613cae57613cae6137f2565b500390565b634e487b7160e01b600052603260045260246000fd5b6001600160a01b039384168152919092166020820152604081019190915260600190565b600060208284031215613cff57600080fd5b815161372a81613a16565b600060a082019050868252856020830152846040830152836060830152613d346080830184613a82565b9695505050505050565b6001600160a01b038416815260208101839052606081016134576040830184613a82565b600060208284031215613d7457600080fd5b815161372a81613839565b6000816000190483118215151615613d9957613d996137f2565b500290565b6001600160a01b0387168152602081018690528415156040820152606081018490526080810183905260c08101613dd860a083018461394c565b979650505050505050565b6000808335601e19843603018112613dfa57600080fd5b830160208101925035905067ffffffffffffffff811115613e1a57600080fd5b803603831315613e2957600080fd5b9250929050565b81835281816020850137506000828201602090810191909152601f909101601f19169091010190565b803582526000613e6c6020830183613de3565b60c06020860152613e8160c086018284613e30565b9150506040830135613e9281613839565b6001600160a01b03166040850152606083810135908501526080830135613eb881613a16565b15156080850152613ecc60a0840184613de3565b85830360a0870152613d34838284613e30565b60208152600061372a6020830184613e59565b6001600160a01b038316815260406020820181905260009061345790830184613e59565b60208101611324828461394c565b600060208284031215613f3657600080fd5b5051919050565b600082613f5a57634e487b7160e01b600052601260045260246000fd5b500490565b6000600019821415613f7357613f736137f2565b506001019056fe31b66ec3a53fd1c005043aa61bf51d2e0b94bfe30c745fd50cf99b79c5b69468057f29a590ecffc65ab74b1a6977f4622540f0cb7aef08cd2fb72c1f2b55f453a2646970667358221220f7c596dfa1046ae8d0f952a883048fcf99941b2016333b6f1accf01a3d033e3564736f6c63430008090033",
  "linkReferences": {},
  "deployedLinkReferences": {}
}