{
  "_format": "hh-sol-artifact-1",
  "contractName": "FarmTest",
  "sourceName": "contracts/test/FarmeTest.sol",
  "abi": [
    {
      "inputs": [],
      "stateMutability": "nonpayable",
      "type": "constructor"
    },
    {
      "inputs": [
        {
          "internalType": "uint256[]",
          "name": "_ids",
          "type": "uint256[]"
        },
        {
          "internalType": "uint256[]",
          "name": "_totals",
          "type": "uint256[]"
        },
        {
          "internalType": "uint256[]",
          "name": "_prices",
          "type": "uint256[]"
        }
      ],
      "name": "addNFTs",
      "outputs": [],
      "stateMutability": "nonpayable",
      "type": "function"
    },
    {
      "inputs": [
        {
          "internalType": "uint256[]",
          "name": "_nftIndexes",
          "type": "uint256[]"
        },
        {
          "internalType": "uint256[]",
          "name": "_quantities",
          "type": "uint256[]"
        }
      ],
      "name": "claimNFTs",
      "outputs": [],
      "stateMutability": "nonpayable",
      "type": "function"
    },
    {
      "inputs": [],
      "name": "crops",
      "outputs": [
        {
          "internalType": "contract Crops",
          "name": "",
          "type": "address"
        }
      ],
      "stateMutability": "view",
      "type": "function"
    },
    {
      "inputs": [],
      "name": "echidna_void",
      "outputs": [
        {
          "internalType": "bool",
          "name": "",
          "type": "bool"
        }
      ],
      "stateMutability": "pure",
      "type": "function"
    },
    {
      "inputs": [],
      "name": "farm",
      "outputs": [
        {
          "internalType": "contract NFTFarm",
          "name": "",
          "type": "address"
        }
      ],
      "stateMutability": "view",
      "type": "function"
    },
    {
      "inputs": [
        {
          "internalType": "uint256",
          "name": "_amount",
          "type": "uint256"
        }
      ],
      "name": "stakeTokens",
      "outputs": [],
      "stateMutability": "nonpayable",
      "type": "function"
    },
    {
      "inputs": [],
      "name": "token",
      "outputs": [
        {
          "internalType": "contract DaiToken",
          "name": "",
          "type": "address"
        }
      ],
      "stateMutability": "view",
      "type": "function"
    },
    {
      "inputs": [],
      "name": "unstakeTokens",
      "outputs": [],
      "stateMutability": "nonpayable",
      "type": "function"
    }
  ],
  "bytecode": "0x60e06040526040518060800160405280600160ff168152602001600260ff168152602001600360ff168152602001600460ff1681525060009060046200004792919062000870565b5060405180608001604052806103e861ffff1681526020016101f461ffff168152602001606461ffff168152602001600161ffff16815250600190600462000091929190620008c7565b506040518060400160405280600160ff168152602001600260ff168152506002906002620000c19291906200091f565b506040518060400160405280600a60ff168152602001601460ff168152506003906002620000f19291906200091f565b506040518060400160405280600160ff168152602001600260ff168152506004906002620001219291906200091f565b503480156200012f57600080fd5b50620001647f907cbf71e4051d2dc76d475829fc133df18142cce8894cd3f37576a23dca0f5e60001b6200086d60201b60201c565b620001987f4d763ef313d8117916fb82ee9055c36c6a232c42edf08366eceee3217117c4bb60001b6200086d60201b60201c565b620001cc7f5c4a43ec6351de0de25d558bd00a9efc16f854306c7ca5e3a061bbe36862deac60001b6200086d60201b60201c565b60006040518060400160405280600381526020017f444149000000000000000000000000000000000000000000000000000000000081525090506200023a7f4ab7f7235fca8d5cee9192d39344d5e7eca636a7603cae583e7183ea43cb9a1560001b6200086d60201b60201c565b6200026e7fb383f93912a08138575dcbb9b610236e94e0c535ea55eb1259c25ef90003c47960001b6200086d60201b60201c565b60006040518060400160405280600381526020017f44414900000000000000000000000000000000000000000000000000000000008152509050620002dc7f7e54cc48a02307f9392755a82aa801f8c81db3ba299700bcd9bdca1abc1c067f60001b6200086d60201b60201c565b620003107fc1f1131d9bbeabbc7775d89d2d4a9d8e6fa505e23dc79fb77efda78184e7354a60001b6200086d60201b60201c565b6000601290506200034a7f90e4d14c1efb0116341f353b4a0405cab1128a0274193acedfa053fa8fe2d46160001b6200086d60201b60201c565b6200037e7ffe0cb86ec7f72959d772dd0a105d0ecc489f3f92b0d5ca1ff2e6a57db2f6366260001b6200086d60201b60201c565b600069152d02c7e14af68000009050620003c17f5af2fdd7b6afd55289d78f3c69afb17b211fe148cb90cd583744e076b677505460001b6200086d60201b60201c565b620003f57fa8a66fb14cf2d7f45b6f7f368dab0fa849dc809332e1f1fa1ff5b0b01bf0877060001b6200086d60201b60201c565b60006040518060800160405280605181526020016200ac12605191399050620004477f9f51f8496517e91d506638b11e9a919064887479f607b3fdb404cf7fe9da1bbb60001b6200086d60201b60201c565b6200047b7ff2ed86b25ab7ac7403b20470fcb28b206fff143ff5920bbe6dd88ca62846340f60001b6200086d60201b60201c565b848484846040516200048d9062000976565b6200049c949392919062000a9c565b604051809103906000f080158015620004b9573d6000803e3d6000fd5b5073ffffffffffffffffffffffffffffffffffffffff1660808173ffffffffffffffffffffffffffffffffffffffff1681525050620005217fbd1b90aaa3cfbf1f1224c31cecf01c7df362c2d54190cd174bdb8dfd6af3d84060001b6200086d60201b60201c565b620005557f24d20012cddeface5ce55c12c1e64ab8f11f6d023054b8dd0864a0cc08b4186260001b6200086d60201b60201c565b8060006001604051620005689062000984565b620005769392919062000c1d565b604051809103906000f08015801562000593573d6000803e3d6000fd5b5073ffffffffffffffffffffffffffffffffffffffff1660a08173ffffffffffffffffffffffffffffffffffffffff1681525050620005fb7f59d0b68cc501c8ad8f8f1fe8ea28cf1aed59e6662f1826d30c07b8ff2f33df3b60001b6200086d60201b60201c565b6200062f7f1f86bba2013b27278b6bb13a79a5fd64063a87b3eb552db3130e6cb9aab07ca760001b6200086d60201b60201c565b600160805160a051604051620006459062000992565b620006539392919062000d62565b604051809103906000f08015801562000670573d6000803e3d6000fd5b5073ffffffffffffffffffffffffffffffffffffffff1660c08173ffffffffffffffffffffffffffffffffffffffff1681525050620006d87f6082b3c5a3a75fc094ccdd1cc3a83554cececa4caca03900e8979e648eeac9a260001b6200086d60201b60201c565b6200070c7fede919b82208b5c64c8ed3468eab368702369c6daeaa987f889dc7f94d7b499f60001b6200086d60201b60201c565b60a05173ffffffffffffffffffffffffffffffffffffffff1663a22cb46560c05160016040518363ffffffff1660e01b81526004016200074e92919062000de1565b600060405180830381600087803b1580156200076957600080fd5b505af11580156200077e573d6000803e3d6000fd5b50505050620007b67f60e5c8eddc378e9b6e05e8ffe65e46870228151e0307635077c500903726df1360001b6200086d60201b60201c565b620007ea7f3c220e153b4e3f88fc996a4aff60501e52d46027088011daf2e376d44d4b104f60001b6200086d60201b60201c565b60c05173ffffffffffffffffffffffffffffffffffffffff1663574e700f6002600360046040518463ffffffff1660e01b81526004016200082e9392919062000e0e565b600060405180830381600087803b1580156200084957600080fd5b505af11580156200085e573d6000803e3d6000fd5b50505050505050505062000e60565b50565b828054828255906000526020600020908101928215620008b4579160200282015b82811115620008b3578251829060ff1690559160200191906001019062000891565b5b509050620008c39190620009a0565b5090565b8280548282559060005260206000209081019282156200090c579160200282015b828111156200090b578251829061ffff16905591602001919060010190620008e8565b5b5090506200091b9190620009a0565b5090565b82805482825590600052602060002090810192821562000963579160200282015b8281111562000962578251829060ff1690559160200191906001019062000940565b5b509050620009729190620009a0565b5090565b6120308062001a1c83390190565b613a5a8062003a4c83390190565b61376c80620074a683390190565b5b80821115620009bb576000816000905550600101620009a1565b5090565b600081519050919050565b600082825260208201905092915050565b60005b83811015620009fb578082015181840152602081019050620009de565b8381111562000a0b576000848401525b50505050565b6000601f19601f8301169050919050565b600062000a2f82620009bf565b62000a3b8185620009ca565b935062000a4d818560208601620009db565b62000a588162000a11565b840191505092915050565b600060ff82169050919050565b62000a7b8162000a63565b82525050565b6000819050919050565b62000a968162000a81565b82525050565b6000608082019050818103600083015262000ab8818762000a22565b9050818103602083015262000ace818662000a22565b905062000adf604083018562000a70565b62000aee606083018462000a8b565b95945050505050565b600081549050919050565b600082825260208201905092915050565b60008190508160005260206000209050919050565b62000b338162000a81565b82525050565b600062000b47838362000b28565b60208301905092915050565b60008160001c9050919050565b6000819050919050565b600062000b8162000b7b8362000b53565b62000b60565b9050919050565b600062000b96825462000b6a565b9050919050565b6000600182019050919050565b600062000bb78262000af7565b62000bc3818562000b02565b935062000bd08362000b13565b8060005b8381101562000c105762000be88262000b88565b62000bf4888262000b39565b975062000c018362000b9d565b92505060018101905062000bd4565b5085935050505092915050565b6000606082019050818103600083015262000c39818662000a22565b9050818103602083015262000c4f818562000baa565b9050818103604083015262000c65818462000baa565b9050949350505050565b6000819050919050565b6000819050919050565b600062000ca462000c9e62000c988462000c6f565b62000c79565b62000a81565b9050919050565b62000cb68162000c83565b82525050565b600073ffffffffffffffffffffffffffffffffffffffff82169050919050565b600062000cfd62000cf762000cf18462000cbc565b62000c79565b62000cbc565b9050919050565b600062000d118262000cdc565b9050919050565b600062000d258262000d04565b9050919050565b62000d378162000d18565b82525050565b600062000d4a8262000d04565b9050919050565b62000d5c8162000d3d565b82525050565b600060608201905062000d79600083018662000cab565b62000d88602083018562000d2c565b62000d97604083018462000d51565b949350505050565b600062000dac8262000cbc565b9050919050565b62000dbe8162000d9f565b82525050565b60008115159050919050565b62000ddb8162000dc4565b82525050565b600060408201905062000df8600083018562000db3565b62000e07602083018462000dd0565b9392505050565b6000606082019050818103600083015262000e2a818662000baa565b9050818103602083015262000e40818562000baa565b9050818103604083015262000e56818462000baa565b9050949350505050565b60805160a05160c051610b7062000eac60003960008181610216015281816102be015281816103d9015281816104fa015261060c015260006101f20152600061068e0152610b706000f3fe608060405234801561001057600080fd5b50600436106100885760003560e01c8063574e700f1161005b578063574e700f146101035780637547c7a31461011f578063a5ce413b1461013b578063fc0c546a1461014557610088565b80630c05611d1461008d57806323c9bc52146100ab57806336e9332d146100c95780634b427e64146100e7575b600080fd5b610095610163565b6040516100a291906106ce565b60405180910390f35b6100b36101f0565b6040516100c09190610768565b60405180910390f35b6100d1610214565b6040516100de91906107a4565b60405180910390f35b61010160048036038101906100fc919061082e565b610238565b005b61011d600480360381019061011891906108af565b610353565b005b61013960048036038101906101349190610999565b610474565b005b610143610586565b005b61014d61068c565b60405161015a91906109e7565b60405180910390f35b60006101917f7850f58b86210cb9fad36025ed05e5a58d10bd447cb4d4f46dfb46c2c35253f860001b6106b0565b6101bd7fbcf04f48d982da2f6f1d0b0f989aae526a7ae7273bfd4c8ca0a1612b8295177560001b6106b0565b6101e97fc35e0b96bbc7fd2809bfcd27b6f932b04332f246e0139b435a3c847a4a08094560001b6106b0565b6001905090565b7f000000000000000000000000000000000000000000000000000000000000000081565b7f000000000000000000000000000000000000000000000000000000000000000081565b6102647f8639520b18bf8f324d3cfa552988fb80479a0834359768c2bd55c9524262f9c560001b6106b0565b6102907fa716fb72e514fcff1b0f6fee3141d537efbf3ae2b7e33e3d590a74269dd40fbe60001b6106b0565b6102bc7f474526f166b71201c1c76b8a4a796943a04be62b8e4e83051259b3c2da469b7f60001b6106b0565b7f000000000000000000000000000000000000000000000000000000000000000073ffffffffffffffffffffffffffffffffffffffff16634b427e64858585856040518563ffffffff1660e01b815260040161031b9493929190610a83565b600060405180830381600087803b15801561033557600080fd5b505af1158015610349573d6000803e3d6000fd5b5050505050505050565b61037f7fd47eebe946485b8e3f6bcd2296ed1fe7c5ca706c2f34131c3c6ca8478a945dc460001b6106b0565b6103ab7f900efca225a52209aedf38257f1776e13b5ffd30aa4cf4908efa30cc4d41832a60001b6106b0565b6103d77f1ea274a03b62375f3ec37008037e470098d879f8af08127af44eb7215437dcfb60001b6106b0565b7f000000000000000000000000000000000000000000000000000000000000000073ffffffffffffffffffffffffffffffffffffffff1663574e700f8787878787876040518763ffffffff1660e01b815260040161043a96959493929190610abe565b600060405180830381600087803b15801561045457600080fd5b505af1158015610468573d6000803e3d6000fd5b50505050505050505050565b6104a07fc795cb649ff5795cc4420a9c7131a7c622f6017ba60079416bc4a0231e7e064060001b6106b0565b6104cc7f1aecc9730d644effec97cf15baffcc80ced05a742cc0a3ad433bc8860bfa975f60001b6106b0565b6104f87f1bb5347dd8b39a0b8b197fc94125f8079429d6c61b58af8cf695161dbc51e4c160001b6106b0565b7f000000000000000000000000000000000000000000000000000000000000000073ffffffffffffffffffffffffffffffffffffffff16637547c7a3826040518263ffffffff1660e01b81526004016105519190610b1f565b600060405180830381600087803b15801561056b57600080fd5b505af115801561057f573d6000803e3d6000fd5b5050505050565b6105b27fbfe415f64eb1421183b416a546c8854ae72ccb0f5c77d26b8547aa5126bfd7f760001b6106b0565b6105de7f7587327bb4ea5ffa3baf858447c68ffac424ef4cec56410e8ffa5b5cc250061d60001b6106b0565b61060a7f5124da9275fb08e73c84ec12e0c71966d0fe819084f1aeeee0a86c6c91303c0e60001b6106b0565b7f000000000000000000000000000000000000000000000000000000000000000073ffffffffffffffffffffffffffffffffffffffff1663a5ce413b6040518163ffffffff1660e01b8152600401600060405180830381600087803b15801561067257600080fd5b505af1158015610686573d6000803e3d6000fd5b50505050565b7f000000000000000000000000000000000000000000000000000000000000000081565b50565b60008115159050919050565b6106c8816106b3565b82525050565b60006020820190506106e360008301846106bf565b92915050565b600073ffffffffffffffffffffffffffffffffffffffff82169050919050565b6000819050919050565b600061072e610729610724846106e9565b610709565b6106e9565b9050919050565b600061074082610713565b9050919050565b600061075282610735565b9050919050565b61076281610747565b82525050565b600060208201905061077d6000830184610759565b92915050565b600061078e82610735565b9050919050565b61079e81610783565b82525050565b60006020820190506107b96000830184610795565b92915050565b600080fd5b600080fd5b600080fd5b600080fd5b600080fd5b60008083601f8401126107ee576107ed6107c9565b5b8235905067ffffffffffffffff81111561080b5761080a6107ce565b5b602083019150836020820283011115610827576108266107d3565b5b9250929050565b60008060008060408587031215610848576108476107bf565b5b600085013567ffffffffffffffff811115610866576108656107c4565b5b610872878288016107d8565b9450945050602085013567ffffffffffffffff811115610895576108946107c4565b5b6108a1878288016107d8565b925092505092959194509250565b600080600080600080606087890312156108cc576108cb6107bf565b5b600087013567ffffffffffffffff8111156108ea576108e96107c4565b5b6108f689828a016107d8565b9650965050602087013567ffffffffffffffff811115610919576109186107c4565b5b61092589828a016107d8565b9450945050604087013567ffffffffffffffff811115610948576109476107c4565b5b61095489828a016107d8565b92509250509295509295509295565b6000819050919050565b61097681610963565b811461098157600080fd5b50565b6000813590506109938161096d565b92915050565b6000602082840312156109af576109ae6107bf565b5b60006109bd84828501610984565b91505092915050565b60006109d182610735565b9050919050565b6109e1816109c6565b82525050565b60006020820190506109fc60008301846109d8565b92915050565b600082825260208201905092915050565b600080fd5b82818337600083830152505050565b6000610a338385610a02565b93507f07ffffffffffffffffffffffffffffffffffffffffffffffffffffffffffffff831115610a6657610a65610a13565b5b602083029250610a77838584610a18565b82840190509392505050565b60006040820190508181036000830152610a9e818688610a27565b90508181036020830152610ab3818486610a27565b905095945050505050565b60006060820190508181036000830152610ad981888a610a27565b90508181036020830152610aee818688610a27565b90508181036040830152610b03818486610a27565b9050979650505050505050565b610b1981610963565b82525050565b6000602082019050610b346000830184610b10565b9291505056fea2646970667358221220eafe90e2d713b9a5d0e87cefb118e9d1440ec9abe62cf330645ff5b58621331064736f6c634300080a003360806040523480156200001157600080fd5b5060405162002030380380620020308339818101604052810190620000379190620006e2565b83838160039080519060200190620000519291906200041c565b5080600490805190602001906200006a9291906200041c565b5050506200008d62000081620001c860201b60201c565b620001d060201b60201c565b620000c17fda8db585430123e52377d66aa9e25e3eefe8e810122ec69f3565a60c6806d5e760001b6200029660201b60201c565b620000f57f136d5ab131eb5f4842e1804f3e0f373a2b807ec019108b38db18e23cf9dd3a5d60001b6200029660201b60201c565b620001297f339ff71f0d203d76523efef87757ede9edffb8b27bb64312209957b21c4a1d2f60001b6200029660201b60201c565b81600560146101000a81548160ff021916908360ff160217905550620001787f4ea129092d8da8279f869d1a192691181ea913cfba1571e405695ca25f5e000860001b6200029660201b60201c565b620001ac7fb05662e2a400c39df618b2915c148bab1ba6e8de9b1750bbd6064e9a8dca00d260001b6200029660201b60201c565b620001be33826200029960201b60201c565b5050505062000934565b600033905090565b6000600560009054906101000a900473ffffffffffffffffffffffffffffffffffffffff16905081600560006101000a81548173ffffffffffffffffffffffffffffffffffffffff021916908373ffffffffffffffffffffffffffffffffffffffff1602179055508173ffffffffffffffffffffffffffffffffffffffff168173ffffffffffffffffffffffffffffffffffffffff167f8be0079c531659141344cd1fd0a4f28419497f9722a3daafe3b4186f6b6457e060405160405180910390a35050565b50565b600073ffffffffffffffffffffffffffffffffffffffff168273ffffffffffffffffffffffffffffffffffffffff1614156200030c576040517f08c379a00000000000000000000000000000000000000000000000000000000081526004016200030390620007f3565b60405180910390fd5b62000320600083836200041260201b60201c565b806002600082825462000334919062000844565b92505081905550806000808473ffffffffffffffffffffffffffffffffffffffff1673ffffffffffffffffffffffffffffffffffffffff16815260200190815260200160002060008282546200038b919062000844565b925050819055508173ffffffffffffffffffffffffffffffffffffffff16600073ffffffffffffffffffffffffffffffffffffffff167fddf252ad1be2c89b69c2b068fc378daa952ba7f163c4a11628f55a4df523b3ef83604051620003f29190620008b2565b60405180910390a36200040e600083836200041760201b60201c565b5050565b505050565b505050565b8280546200042a90620008fe565b90600052602060002090601f0160209004810192826200044e57600085556200049a565b82601f106200046957805160ff19168380011785556200049a565b828001600101855582156200049a579182015b82811115620004995782518255916020019190600101906200047c565b5b509050620004a99190620004ad565b5090565b5b80821115620004c8576000816000905550600101620004ae565b5090565b6000604051905090565b600080fd5b600080fd5b600080fd5b600080fd5b6000601f19601f8301169050919050565b7f4e487b7100000000000000000000000000000000000000000000000000000000600052604160045260246000fd5b6200053582620004ea565b810181811067ffffffffffffffff82111715620005575762000556620004fb565b5b80604052505050565b60006200056c620004cc565b90506200057a82826200052a565b919050565b600067ffffffffffffffff8211156200059d576200059c620004fb565b5b620005a882620004ea565b9050602081019050919050565b60005b83811015620005d5578082015181840152602081019050620005b8565b83811115620005e5576000848401525b50505050565b600062000602620005fc846200057f565b62000560565b905082815260208101848484011115620006215762000620620004e5565b5b6200062e848285620005b5565b509392505050565b600082601f8301126200064e576200064d620004e0565b5b815162000660848260208601620005eb565b91505092915050565b600060ff82169050919050565b620006818162000669565b81146200068d57600080fd5b50565b600081519050620006a18162000676565b92915050565b6000819050919050565b620006bc81620006a7565b8114620006c857600080fd5b50565b600081519050620006dc81620006b1565b92915050565b60008060008060808587031215620006ff57620006fe620004d6565b5b600085015167ffffffffffffffff81111562000720576200071f620004db565b5b6200072e8782880162000636565b945050602085015167ffffffffffffffff811115620007525762000751620004db565b5b620007608782880162000636565b9350506040620007738782880162000690565b92505060606200078687828801620006cb565b91505092959194509250565b600082825260208201905092915050565b7f45524332303a206d696e7420746f20746865207a65726f206164647265737300600082015250565b6000620007db601f8362000792565b9150620007e882620007a3565b602082019050919050565b600060208201905081810360008301526200080e81620007cc565b9050919050565b7f4e487b7100000000000000000000000000000000000000000000000000000000600052601160045260246000fd5b60006200085182620006a7565b91506200085e83620006a7565b9250827fffffffffffffffffffffffffffffffffffffffffffffffffffffffffffffffff0382111562000896576200089562000815565b5b828201905092915050565b620008ac81620006a7565b82525050565b6000602082019050620008c96000830184620008a1565b92915050565b7f4e487b7100000000000000000000000000000000000000000000000000000000600052602260045260246000fd5b600060028204905060018216806200091757607f821691505b602082108114156200092e576200092d620008cf565b5b50919050565b6116ec80620009446000396000f3fe608060405234801561001057600080fd5b50600436106100f55760003560e01c8063715018a611610097578063a9059cbb11610066578063a9059cbb1461028a578063b3bcfa82146102ba578063dd62ed3e146102d8578063f2fde38b14610308576100f5565b8063715018a6146102145780638da5cb5b1461021e57806395d89b411461023c578063a457c2d71461025a576100f5565b806323b872dd116100d357806323b872dd14610166578063313ce5671461019657806339509351146101b457806370a08231146101e4576100f5565b806306fdde03146100fa578063095ea7b31461011857806318160ddd14610148575b600080fd5b610102610324565b60405161010f9190610e7e565b60405180910390f35b610132600480360381019061012d9190610f39565b6103b6565b60405161013f9190610f94565b60405180910390f35b6101506103d9565b60405161015d9190610fbe565b60405180910390f35b610180600480360381019061017b9190610fd9565b6103e3565b60405161018d9190610f94565b60405180910390f35b61019e610412565b6040516101ab9190611048565b60405180910390f35b6101ce60048036038101906101c99190610f39565b6104ad565b6040516101db9190610f94565b60405180910390f35b6101fe60048036038101906101f99190611063565b6104e4565b60405161020b9190610fbe565b60405180910390f35b61021c61052c565b005b610226610540565b604051610233919061109f565b60405180910390f35b61024461056a565b6040516102519190610e7e565b60405180910390f35b610274600480360381019061026f9190610f39565b6105fc565b6040516102819190610f94565b60405180910390f35b6102a4600480360381019061029f9190610f39565b610673565b6040516102b19190610f94565b60405180910390f35b6102c2610696565b6040516102cf9190611048565b60405180910390f35b6102f260048036038101906102ed91906110ba565b6106a9565b6040516102ff9190610fbe565b60405180910390f35b610322600480360381019061031d9190611063565b610730565b005b60606003805461033390611129565b80601f016020809104026020016040519081016040528092919081815260200182805461035f90611129565b80156103ac5780601f10610381576101008083540402835291602001916103ac565b820191906000526020600020905b81548152906001019060200180831161038f57829003601f168201915b5050505050905090565b6000806103c16107b4565b90506103ce8185856107bc565b600191505092915050565b6000600254905090565b6000806103ee6107b4565b90506103fb858285610987565b610406858585610a13565b60019150509392505050565b60006104407f1ad2f4059f37d3e156f2848589e011a3b528bb07bd68ec560507d00b44d903e860001b610c94565b61046c7fba8af308e0e8d78c5104690d2b4c6e73a75a2e265c8f039ff23ecb5d2c9eea5360001b610c94565b6104987f8f8b0e7685fa3640022431b17a70a2022c498290c66df9394053839f45953b6c60001b610c94565b600560149054906101000a900460ff16905090565b6000806104b86107b4565b90506104d98185856104ca85896106a9565b6104d4919061118a565b6107bc565b600191505092915050565b60008060008373ffffffffffffffffffffffffffffffffffffffff1673ffffffffffffffffffffffffffffffffffffffff168152602001908152602001600020549050919050565b610534610c97565b61053e6000610d15565b565b6000600560009054906101000a900473ffffffffffffffffffffffffffffffffffffffff16905090565b60606004805461057990611129565b80601f01602080910402602001604051908101604052809291908181526020018280546105a590611129565b80156105f25780601f106105c7576101008083540402835291602001916105f2565b820191906000526020600020905b8154815290600101906020018083116105d557829003601f168201915b5050505050905090565b6000806106076107b4565b9050600061061582866106a9565b90508381101561065a576040517f08c379a000000000000000000000000000000000000000000000000000000000815260040161065190611252565b60405180910390fd5b61066782868684036107bc565b60019250505092915050565b60008061067e6107b4565b905061068b818585610a13565b600191505092915050565b600560149054906101000a900460ff1681565b6000600160008473ffffffffffffffffffffffffffffffffffffffff1673ffffffffffffffffffffffffffffffffffffffff16815260200190815260200160002060008373ffffffffffffffffffffffffffffffffffffffff1673ffffffffffffffffffffffffffffffffffffffff16815260200190815260200160002054905092915050565b610738610c97565b600073ffffffffffffffffffffffffffffffffffffffff168173ffffffffffffffffffffffffffffffffffffffff1614156107a8576040517f08c379a000000000000000000000000000000000000000000000000000000000815260040161079f906112e4565b60405180910390fd5b6107b181610d15565b50565b600033905090565b600073ffffffffffffffffffffffffffffffffffffffff168373ffffffffffffffffffffffffffffffffffffffff16141561082c576040517f08c379a000000000000000000000000000000000000000000000000000000000815260040161082390611376565b60405180910390fd5b600073ffffffffffffffffffffffffffffffffffffffff168273ffffffffffffffffffffffffffffffffffffffff16141561089c576040517f08c379a000000000000000000000000000000000000000000000000000000000815260040161089390611408565b60405180910390fd5b80600160008573ffffffffffffffffffffffffffffffffffffffff1673ffffffffffffffffffffffffffffffffffffffff16815260200190815260200160002060008473ffffffffffffffffffffffffffffffffffffffff1673ffffffffffffffffffffffffffffffffffffffff168152602001908152602001600020819055508173ffffffffffffffffffffffffffffffffffffffff168373ffffffffffffffffffffffffffffffffffffffff167f8c5be1e5ebec7d5bd14f71427d1e84f3dd0314c0f7b2291e5b200ac8c7c3b9258360405161097a9190610fbe565b60405180910390a3505050565b600061099384846106a9565b90507fffffffffffffffffffffffffffffffffffffffffffffffffffffffffffffffff8114610a0d57818110156109ff576040517f08c379a00000000000000000000000000000000000000000000000000000000081526004016109f690611474565b60405180910390fd5b610a0c84848484036107bc565b5b50505050565b600073ffffffffffffffffffffffffffffffffffffffff168373ffffffffffffffffffffffffffffffffffffffff161415610a83576040517f08c379a0000000000000000000000000000000000000000000000000000000008152600401610a7a90611506565b60405180910390fd5b600073ffffffffffffffffffffffffffffffffffffffff168273ffffffffffffffffffffffffffffffffffffffff161415610af3576040517f08c379a0000000000000000000000000000000000000000000000000000000008152600401610aea90611598565b60405180910390fd5b610afe838383610ddb565b60008060008573ffffffffffffffffffffffffffffffffffffffff1673ffffffffffffffffffffffffffffffffffffffff16815260200190815260200160002054905081811015610b84576040517f08c379a0000000000000000000000000000000000000000000000000000000008152600401610b7b9061162a565b60405180910390fd5b8181036000808673ffffffffffffffffffffffffffffffffffffffff1673ffffffffffffffffffffffffffffffffffffffff16815260200190815260200160002081905550816000808573ffffffffffffffffffffffffffffffffffffffff1673ffffffffffffffffffffffffffffffffffffffff1681526020019081526020016000206000828254610c17919061118a565b925050819055508273ffffffffffffffffffffffffffffffffffffffff168473ffffffffffffffffffffffffffffffffffffffff167fddf252ad1be2c89b69c2b068fc378daa952ba7f163c4a11628f55a4df523b3ef84604051610c7b9190610fbe565b60405180910390a3610c8e848484610de0565b50505050565b50565b610c9f6107b4565b73ffffffffffffffffffffffffffffffffffffffff16610cbd610540565b73ffffffffffffffffffffffffffffffffffffffff1614610d13576040517f08c379a0000000000000000000000000000000000000000000000000000000008152600401610d0a90611696565b60405180910390fd5b565b6000600560009054906101000a900473ffffffffffffffffffffffffffffffffffffffff16905081600560006101000a81548173ffffffffffffffffffffffffffffffffffffffff021916908373ffffffffffffffffffffffffffffffffffffffff1602179055508173ffffffffffffffffffffffffffffffffffffffff168173ffffffffffffffffffffffffffffffffffffffff167f8be0079c531659141344cd1fd0a4f28419497f9722a3daafe3b4186f6b6457e060405160405180910390a35050565b505050565b505050565b600081519050919050565b600082825260208201905092915050565b60005b83811015610e1f578082015181840152602081019050610e04565b83811115610e2e576000848401525b50505050565b6000601f19601f8301169050919050565b6000610e5082610de5565b610e5a8185610df0565b9350610e6a818560208601610e01565b610e7381610e34565b840191505092915050565b60006020820190508181036000830152610e988184610e45565b905092915050565b600080fd5b600073ffffffffffffffffffffffffffffffffffffffff82169050919050565b6000610ed082610ea5565b9050919050565b610ee081610ec5565b8114610eeb57600080fd5b50565b600081359050610efd81610ed7565b92915050565b6000819050919050565b610f1681610f03565b8114610f2157600080fd5b50565b600081359050610f3381610f0d565b92915050565b60008060408385031215610f5057610f4f610ea0565b5b6000610f5e85828601610eee565b9250506020610f6f85828601610f24565b9150509250929050565b60008115159050919050565b610f8e81610f79565b82525050565b6000602082019050610fa96000830184610f85565b92915050565b610fb881610f03565b82525050565b6000602082019050610fd36000830184610faf565b92915050565b600080600060608486031215610ff257610ff1610ea0565b5b600061100086828701610eee565b935050602061101186828701610eee565b925050604061102286828701610f24565b9150509250925092565b600060ff82169050919050565b6110428161102c565b82525050565b600060208201905061105d6000830184611039565b92915050565b60006020828403121561107957611078610ea0565b5b600061108784828501610eee565b91505092915050565b61109981610ec5565b82525050565b60006020820190506110b46000830184611090565b92915050565b600080604083850312156110d1576110d0610ea0565b5b60006110df85828601610eee565b92505060206110f085828601610eee565b9150509250929050565b7f4e487b7100000000000000000000000000000000000000000000000000000000600052602260045260246000fd5b6000600282049050600182168061114157607f821691505b60208210811415611155576111546110fa565b5b50919050565b7f4e487b7100000000000000000000000000000000000000000000000000000000600052601160045260246000fd5b600061119582610f03565b91506111a083610f03565b9250827fffffffffffffffffffffffffffffffffffffffffffffffffffffffffffffffff038211156111d5576111d461115b565b5b828201905092915050565b7f45524332303a2064656372656173656420616c6c6f77616e63652062656c6f7760008201527f207a65726f000000000000000000000000000000000000000000000000000000602082015250565b600061123c602583610df0565b9150611247826111e0565b604082019050919050565b6000602082019050818103600083015261126b8161122f565b9050919050565b7f4f776e61626c653a206e6577206f776e657220697320746865207a65726f206160008201527f6464726573730000000000000000000000000000000000000000000000000000602082015250565b60006112ce602683610df0565b91506112d982611272565b604082019050919050565b600060208201905081810360008301526112fd816112c1565b9050919050565b7f45524332303a20617070726f76652066726f6d20746865207a65726f2061646460008201527f7265737300000000000000000000000000000000000000000000000000000000602082015250565b6000611360602483610df0565b915061136b82611304565b604082019050919050565b6000602082019050818103600083015261138f81611353565b9050919050565b7f45524332303a20617070726f766520746f20746865207a65726f20616464726560008201527f7373000000000000000000000000000000000000000000000000000000000000602082015250565b60006113f2602283610df0565b91506113fd82611396565b604082019050919050565b60006020820190508181036000830152611421816113e5565b9050919050565b7f45524332303a20696e73756666696369656e7420616c6c6f77616e6365000000600082015250565b600061145e601d83610df0565b915061146982611428565b602082019050919050565b6000602082019050818103600083015261148d81611451565b9050919050565b7f45524332303a207472616e736665722066726f6d20746865207a65726f20616460008201527f6472657373000000000000000000000000000000000000000000000000000000602082015250565b60006114f0602583610df0565b91506114fb82611494565b604082019050919050565b6000602082019050818103600083015261151f816114e3565b9050919050565b7f45524332303a207472616e7366657220746f20746865207a65726f206164647260008201527f6573730000000000000000000000000000000000000000000000000000000000602082015250565b6000611582602383610df0565b915061158d82611526565b604082019050919050565b600060208201905081810360008301526115b181611575565b9050919050565b7f45524332303a207472616e7366657220616d6f756e742065786365656473206260008201527f616c616e63650000000000000000000000000000000000000000000000000000602082015250565b6000611614602683610df0565b915061161f826115b8565b604082019050919050565b6000602082019050818103600083015261164381611607565b9050919050565b7f4f776e61626c653a2063616c6c6572206973206e6f7420746865206f776e6572600082015250565b6000611680602083610df0565b915061168b8261164a565b602082019050919050565b600060208201905081810360008301526116af81611673565b905091905056fea264697066735822122065c0d9d1546247b06635d22e3ce5893959df074bdf016250617f09ef9b4d1dc964736f6c634300080a003360806040523480156200001157600080fd5b5060405162003a5a38038062003a5a833981810160405281019062000037919062000c54565b8262000049816200043c60201b60201c565b506200007e7f7339e84535b2461092abe48c0e5d48c43867c5991a806b91eca2f7ab21c5f06a60001b6200045860201b60201c565b620000b27fb73b52e2e6741aebcef119e1ac14095b753a25ce387981320203a6eaaa4a07f560001b6200045860201b60201c565b620000e67f28d049c30c92ca3e19f317f65174c0e07f7cd8f8b0d4404759ab58b65ea11da260001b6200045860201b60201c565b80518251146200019b57620001247f91fa426746df3dac7fa33e0d7f445d303d95fcdf7d5bbe8e490651f70d730c5e60001b6200045860201b60201c565b620001587fabaa2e3f4b95a5e29db226d3f9f0e9b162f36b72a4cab261e98643623caf4dcc60001b6200045860201b60201c565b815181516040517fc9bd84b50000000000000000000000000000000000000000000000000000000081526004016200019292919062000d1e565b60405180910390fd5b620001cf7f39b4ab72e0cde778d18f885a9409b25dca93133333c8fad511386a87d4a0693860001b6200045860201b60201c565b620002037f982090b7fff2c48d5466df094c7fcbe31ba14a6676276a41c4997606f934108360001b6200045860201b60201c565b620002377f98496ca33106a49208ac54a891e729cf4b59a4b9c02bed3061298a951a6d643a60001b6200045860201b60201c565b600082511415620002dc57620002767f92cff064d57ed870c05c4ee7f7966a2323457e38a22154f105467013755aad5760001b6200045860201b60201c565b620002aa7f16a614f61d9617a7e7efd965df6121e7199e181d18181eb88a608c7c7ad7108d60001b6200045860201b60201c565b6040517f8512363d00000000000000000000000000000000000000000000000000000000815260040160405180910390fd5b620003107fc1a2d894a5cacd0b823bc82c56da3dcb733d21df3702244b4425061658ad05d960001b6200045860201b60201c565b620003447f4fdee14373e13f2e79b8f20f0b1383f86554d6e6d4670ddd9567cd7824a15cfc60001b6200045860201b60201c565b620003787fcc4dcd4850d570e1c066ca3f6c26cc873e3cab682ca984786fc9a167e00ed29b60001b6200045860201b60201c565b6200039b338383604051806020016040528060008152506200045b60201b60201c565b620003cf7f71cbcfc98420fa2d412f1402af1350cd831a56be84abaaad248c5a02e008461460001b6200045860201b60201c565b620004037f13ae38fce48a2fdd2faa9af27bfb29b8d05c14d359932cdb78bfa6a61b40ce9a60001b6200045860201b60201c565b805182517ff0ee3666ded00e4a4054586f71ae9aba172e661b35be2e598af046d5c61c532760405160405180910390a35050506200151a565b806002908051906020019062000454929190620008f1565b5050565b50565b600073ffffffffffffffffffffffffffffffffffffffff168473ffffffffffffffffffffffffffffffffffffffff161415620004ce576040517f08c379a0000000000000000000000000000000000000000000000000000000008152600401620004c59062000dd2565b60405180910390fd5b815183511462000515576040517f08c379a00000000000000000000000000000000000000000000000000000000081526004016200050c9062000e6a565b60405180910390fd5b600062000527620006bc60201b60201c565b90506200054081600087878787620006c460201b60201c565b60005b8451811015620006055783818151811062000563576200056262000e8c565b5b602002602001015160008087848151811062000584576200058362000e8c565b5b6020026020010151815260200190815260200160002060008873ffffffffffffffffffffffffffffffffffffffff1673ffffffffffffffffffffffffffffffffffffffff1681526020019081526020016000206000828254620005e8919062000eea565b925050819055508080620005fc9062000f47565b91505062000543565b508473ffffffffffffffffffffffffffffffffffffffff16600073ffffffffffffffffffffffffffffffffffffffff168273ffffffffffffffffffffffffffffffffffffffff167f4a39dc06d4c0dbc64b70af90fd698a233a518aa5d07e595d983b8c0526c8f7fb87876040516200067f92919062001063565b60405180910390a46200069e81600087878787620006cc60201b60201c565b620006b581600087878787620006d460201b60201c565b5050505050565b600033905090565b505050505050565b505050505050565b620007008473ffffffffffffffffffffffffffffffffffffffff16620008ce60201b620007141760201c565b15620008c6578373ffffffffffffffffffffffffffffffffffffffff1663bc197c8187878686866040518663ffffffff1660e01b81526004016200074995949392919062001140565b6020604051808303816000875af19250505080156200078857506040513d601f19601f820116820180604052508101906200078591906200120f565b60015b6200083a57620007976200124e565b806308c379a01415620007fb5750620007af62001273565b80620007bc5750620007fd565b806040517f08c379a0000000000000000000000000000000000000000000000000000000008152600401620007f2919062001361565b60405180910390fd5b505b6040517f08c379a00000000000000000000000000000000000000000000000000000000081526004016200083190620013fb565b60405180910390fd5b63bc197c8160e01b7bffffffffffffffffffffffffffffffffffffffffffffffffffffffff1916817bffffffffffffffffffffffffffffffffffffffffffffffffffffffff191614620008c4576040517f08c379a0000000000000000000000000000000000000000000000000000000008152600401620008bb9062001493565b60405180910390fd5b505b505050505050565b6000808273ffffffffffffffffffffffffffffffffffffffff163b119050919050565b828054620008ff90620014e4565b90600052602060002090601f0160209004810192826200092357600085556200096f565b82601f106200093e57805160ff19168380011785556200096f565b828001600101855582156200096f579182015b828111156200096e57825182559160200191906001019062000951565b5b5090506200097e919062000982565b5090565b5b808211156200099d57600081600090555060010162000983565b5090565b6000604051905090565b600080fd5b600080fd5b600080fd5b600080fd5b6000601f19601f8301169050919050565b7f4e487b7100000000000000000000000000000000000000000000000000000000600052604160045260246000fd5b62000a0a82620009bf565b810181811067ffffffffffffffff8211171562000a2c5762000a2b620009d0565b5b80604052505050565b600062000a41620009a1565b905062000a4f8282620009ff565b919050565b600067ffffffffffffffff82111562000a725762000a71620009d0565b5b62000a7d82620009bf565b9050602081019050919050565b60005b8381101562000aaa57808201518184015260208101905062000a8d565b8381111562000aba576000848401525b50505050565b600062000ad762000ad18462000a54565b62000a35565b90508281526020810184848401111562000af65762000af5620009ba565b5b62000b0384828562000a8a565b509392505050565b600082601f83011262000b235762000b22620009b5565b5b815162000b3584826020860162000ac0565b91505092915050565b600067ffffffffffffffff82111562000b5c5762000b5b620009d0565b5b602082029050602081019050919050565b600080fd5b6000819050919050565b62000b878162000b72565b811462000b9357600080fd5b50565b60008151905062000ba78162000b7c565b92915050565b600062000bc462000bbe8462000b3e565b62000a35565b9050808382526020820190506020840283018581111562000bea5762000be962000b6d565b5b835b8181101562000c17578062000c02888262000b96565b84526020840193505060208101905062000bec565b5050509392505050565b600082601f83011262000c395762000c38620009b5565b5b815162000c4b84826020860162000bad565b91505092915050565b60008060006060848603121562000c705762000c6f620009ab565b5b600084015167ffffffffffffffff81111562000c915762000c90620009b0565b5b62000c9f8682870162000b0b565b935050602084015167ffffffffffffffff81111562000cc35762000cc2620009b0565b5b62000cd18682870162000c21565b925050604084015167ffffffffffffffff81111562000cf55762000cf4620009b0565b5b62000d038682870162000c21565b9150509250925092565b62000d188162000b72565b82525050565b600060408201905062000d35600083018562000d0d565b62000d44602083018462000d0d565b9392505050565b600082825260208201905092915050565b7f455243313135353a206d696e7420746f20746865207a65726f2061646472657360008201527f7300000000000000000000000000000000000000000000000000000000000000602082015250565b600062000dba60218362000d4b565b915062000dc78262000d5c565b604082019050919050565b6000602082019050818103600083015262000ded8162000dab565b9050919050565b7f455243313135353a2069647320616e6420616d6f756e7473206c656e6774682060008201527f6d69736d61746368000000000000000000000000000000000000000000000000602082015250565b600062000e5260288362000d4b565b915062000e5f8262000df4565b604082019050919050565b6000602082019050818103600083015262000e858162000e43565b9050919050565b7f4e487b7100000000000000000000000000000000000000000000000000000000600052603260045260246000fd5b7f4e487b7100000000000000000000000000000000000000000000000000000000600052601160045260246000fd5b600062000ef78262000b72565b915062000f048362000b72565b9250827fffffffffffffffffffffffffffffffffffffffffffffffffffffffffffffffff0382111562000f3c5762000f3b62000ebb565b5b828201905092915050565b600062000f548262000b72565b91507fffffffffffffffffffffffffffffffffffffffffffffffffffffffffffffffff82141562000f8a5762000f8962000ebb565b5b600182019050919050565b600081519050919050565b600082825260208201905092915050565b6000819050602082019050919050565b62000fcc8162000b72565b82525050565b600062000fe0838362000fc1565b60208301905092915050565b6000602082019050919050565b6000620010068262000f95565b62001012818562000fa0565b93506200101f8362000fb1565b8060005b83811015620010565781516200103a888262000fd2565b9750620010478362000fec565b92505060018101905062001023565b5085935050505092915050565b600060408201905081810360008301526200107f818562000ff9565b9050818103602083015262001095818462000ff9565b90509392505050565b600073ffffffffffffffffffffffffffffffffffffffff82169050919050565b6000620010cb826200109e565b9050919050565b620010dd81620010be565b82525050565b600081519050919050565b600082825260208201905092915050565b60006200110c82620010e3565b620011188185620010ee565b93506200112a81856020860162000a8a565b6200113581620009bf565b840191505092915050565b600060a082019050620011576000830188620010d2565b620011666020830187620010d2565b81810360408301526200117a818662000ff9565b9050818103606083015262001190818562000ff9565b90508181036080830152620011a68184620010ff565b90509695505050505050565b60007fffffffff0000000000000000000000000000000000000000000000000000000082169050919050565b620011e981620011b2565b8114620011f557600080fd5b50565b6000815190506200120981620011de565b92915050565b600060208284031215620012285762001227620009ab565b5b60006200123884828501620011f8565b91505092915050565b60008160e01c9050919050565b600060033d1115620012705760046000803e6200126d60005162001241565b90505b90565b600060443d1015620012855762001312565b6200128f620009a1565b60043d036004823e80513d602482011167ffffffffffffffff82111715620012b957505062001312565b808201805167ffffffffffffffff811115620012d9575050505062001312565b80602083010160043d038501811115620012f857505050505062001312565b6200130982602001850186620009ff565b82955050505050505b90565b600081519050919050565b60006200132d8262001315565b62001339818562000d4b565b93506200134b81856020860162000a8a565b6200135681620009bf565b840191505092915050565b600060208201905081810360008301526200137d818462001320565b905092915050565b7f455243313135353a207472616e7366657220746f206e6f6e204552433131353560008201527f526563656976657220696d706c656d656e746572000000000000000000000000602082015250565b6000620013e360348362000d4b565b9150620013f08262001385565b604082019050919050565b600060208201905081810360008301526200141681620013d4565b9050919050565b7f455243313135353a204552433131353552656365697665722072656a6563746560008201527f6420746f6b656e73000000000000000000000000000000000000000000000000602082015250565b60006200147b60288362000d4b565b915062001488826200141d565b604082019050919050565b60006020820190508181036000830152620014ae816200146c565b9050919050565b7f4e487b7100000000000000000000000000000000000000000000000000000000600052602260045260246000fd5b60006002820490506001821680620014fd57607f821691505b60208210811415620015145762001513620014b5565b5b50919050565b612530806200152a6000396000f3fe608060405234801561001057600080fd5b50600436106100875760003560e01c80634e1273f41161005b5780634e1273f414610138578063a22cb46514610168578063e985e9c514610184578063f242432a146101b457610087565b8062fdd58e1461008c57806301ffc9a7146100bc5780630e89341c146100ec5780632eb2c2d61461011c575b600080fd5b6100a660048036038101906100a191906113b6565b6101d0565b6040516100b39190611405565b60405180910390f35b6100d660048036038101906100d19190611478565b610299565b6040516100e391906114c0565b60405180910390f35b610106600480360381019061010191906114db565b61037b565b60405161011391906115a1565b60405180910390f35b610136600480360381019061013191906117c0565b61040f565b005b610152600480360381019061014d9190611952565b6104b0565b60405161015f9190611a88565b60405180910390f35b610182600480360381019061017d9190611ad6565b6105c9565b005b61019e60048036038101906101999190611b16565b6105df565b6040516101ab91906114c0565b60405180910390f35b6101ce60048036038101906101c99190611b56565b610673565b005b60008073ffffffffffffffffffffffffffffffffffffffff168373ffffffffffffffffffffffffffffffffffffffff161415610241576040517f08c379a000000000000000000000000000000000000000000000000000000000815260040161023890611c5f565b60405180910390fd5b60008083815260200190815260200160002060008473ffffffffffffffffffffffffffffffffffffffff1673ffffffffffffffffffffffffffffffffffffffff16815260200190815260200160002054905092915050565b60007fd9b67a26000000000000000000000000000000000000000000000000000000007bffffffffffffffffffffffffffffffffffffffffffffffffffffffff1916827bffffffffffffffffffffffffffffffffffffffffffffffffffffffff1916148061036457507f0e89341c000000000000000000000000000000000000000000000000000000007bffffffffffffffffffffffffffffffffffffffffffffffffffffffff1916827bffffffffffffffffffffffffffffffffffffffffffffffffffffffff1916145b80610374575061037382610737565b5b9050919050565b60606002805461038a90611cae565b80601f01602080910402602001604051908101604052809291908181526020018280546103b690611cae565b80156104035780601f106103d857610100808354040283529160200191610403565b820191906000526020600020905b8154815290600101906020018083116103e657829003601f168201915b50505050509050919050565b6104176107a1565b73ffffffffffffffffffffffffffffffffffffffff168573ffffffffffffffffffffffffffffffffffffffff16148061045d575061045c856104576107a1565b6105df565b5b61049c576040517f08c379a000000000000000000000000000000000000000000000000000000000815260040161049390611d52565b60405180910390fd5b6104a985858585856107a9565b5050505050565b606081518351146104f6576040517f08c379a00000000000000000000000000000000000000000000000000000000081526004016104ed90611de4565b60405180910390fd5b6000835167ffffffffffffffff811115610513576105126115c8565b5b6040519080825280602002602001820160405280156105415781602001602082028036833780820191505090505b50905060005b84518110156105be5761058e85828151811061056657610565611e04565b5b602002602001015185838151811061058157610580611e04565b5b60200260200101516101d0565b8282815181106105a1576105a0611e04565b5b602002602001018181525050806105b790611e62565b9050610547565b508091505092915050565b6105db6105d46107a1565b8383610acb565b5050565b6000600160008473ffffffffffffffffffffffffffffffffffffffff1673ffffffffffffffffffffffffffffffffffffffff16815260200190815260200160002060008373ffffffffffffffffffffffffffffffffffffffff1673ffffffffffffffffffffffffffffffffffffffff16815260200190815260200160002060009054906101000a900460ff16905092915050565b61067b6107a1565b73ffffffffffffffffffffffffffffffffffffffff168573ffffffffffffffffffffffffffffffffffffffff1614806106c157506106c0856106bb6107a1565b6105df565b5b610700576040517f08c379a00000000000000000000000000000000000000000000000000000000081526004016106f790611d52565b60405180910390fd5b61070d8585858585610c38565b5050505050565b6000808273ffffffffffffffffffffffffffffffffffffffff163b119050919050565b60007f01ffc9a7000000000000000000000000000000000000000000000000000000007bffffffffffffffffffffffffffffffffffffffffffffffffffffffff1916827bffffffffffffffffffffffffffffffffffffffffffffffffffffffff1916149050919050565b600033905090565b81518351146107ed576040517f08c379a00000000000000000000000000000000000000000000000000000000081526004016107e490611f1d565b60405180910390fd5b600073ffffffffffffffffffffffffffffffffffffffff168473ffffffffffffffffffffffffffffffffffffffff16141561085d576040517f08c379a000000000000000000000000000000000000000000000000000000000815260040161085490611faf565b60405180910390fd5b60006108676107a1565b9050610877818787878787610ed4565b60005b8451811015610a2857600085828151811061089857610897611e04565b5b6020026020010151905060008583815181106108b7576108b6611e04565b5b60200260200101519050600080600084815260200190815260200160002060008b73ffffffffffffffffffffffffffffffffffffffff1673ffffffffffffffffffffffffffffffffffffffff16815260200190815260200160002054905081811015610958576040517f08c379a000000000000000000000000000000000000000000000000000000000815260040161094f90612041565b60405180910390fd5b81810360008085815260200190815260200160002060008c73ffffffffffffffffffffffffffffffffffffffff1673ffffffffffffffffffffffffffffffffffffffff168152602001908152602001600020819055508160008085815260200190815260200160002060008b73ffffffffffffffffffffffffffffffffffffffff1673ffffffffffffffffffffffffffffffffffffffff1681526020019081526020016000206000828254610a0d9190612061565b9250508190555050505080610a2190611e62565b905061087a565b508473ffffffffffffffffffffffffffffffffffffffff168673ffffffffffffffffffffffffffffffffffffffff168273ffffffffffffffffffffffffffffffffffffffff167f4a39dc06d4c0dbc64b70af90fd698a233a518aa5d07e595d983b8c0526c8f7fb8787604051610a9f9291906120b7565b60405180910390a4610ab5818787878787610edc565b610ac3818787878787610ee4565b505050505050565b8173ffffffffffffffffffffffffffffffffffffffff168373ffffffffffffffffffffffffffffffffffffffff161415610b3a576040517f08c379a0000000000000000000000000000000000000000000000000000000008152600401610b3190612160565b60405180910390fd5b80600160008573ffffffffffffffffffffffffffffffffffffffff1673ffffffffffffffffffffffffffffffffffffffff16815260200190815260200160002060008473ffffffffffffffffffffffffffffffffffffffff1673ffffffffffffffffffffffffffffffffffffffff16815260200190815260200160002060006101000a81548160ff0219169083151502179055508173ffffffffffffffffffffffffffffffffffffffff168373ffffffffffffffffffffffffffffffffffffffff167f17307eab39ab6107e8899845ad3d59bd9653f200f220920489ca2b5937696c3183604051610c2b91906114c0565b60405180910390a3505050565b600073ffffffffffffffffffffffffffffffffffffffff168473ffffffffffffffffffffffffffffffffffffffff161415610ca8576040517f08c379a0000000000000000000000000000000000000000000000000000000008152600401610c9f90611faf565b60405180910390fd5b6000610cb26107a1565b90506000610cbf856110bc565b90506000610ccc856110bc565b9050610cdc838989858589610ed4565b600080600088815260200190815260200160002060008a73ffffffffffffffffffffffffffffffffffffffff1673ffffffffffffffffffffffffffffffffffffffff16815260200190815260200160002054905085811015610d73576040517f08c379a0000000000000000000000000000000000000000000000000000000008152600401610d6a90612041565b60405180910390fd5b85810360008089815260200190815260200160002060008b73ffffffffffffffffffffffffffffffffffffffff1673ffffffffffffffffffffffffffffffffffffffff168152602001908152602001600020819055508560008089815260200190815260200160002060008a73ffffffffffffffffffffffffffffffffffffffff1673ffffffffffffffffffffffffffffffffffffffff1681526020019081526020016000206000828254610e289190612061565b925050819055508773ffffffffffffffffffffffffffffffffffffffff168973ffffffffffffffffffffffffffffffffffffffff168573ffffffffffffffffffffffffffffffffffffffff167fc3d58168c5ae7397731d063d5bbf3d657854427343f4c083240f7aacaa2d0f628a8a604051610ea5929190612180565b60405180910390a4610ebb848a8a86868a610edc565b610ec9848a8a8a8a8a611136565b505050505050505050565b505050505050565b505050505050565b610f038473ffffffffffffffffffffffffffffffffffffffff16610714565b156110b4578373ffffffffffffffffffffffffffffffffffffffff1663bc197c8187878686866040518663ffffffff1660e01b8152600401610f4995949392919061220d565b6020604051808303816000875af1925050508015610f8557506040513d601f19601f82011682018060405250810190610f82919061228a565b60015b61102b57610f916122c4565b806308c379a01415610fee5750610fa66122e6565b80610fb15750610ff0565b806040517f08c379a0000000000000000000000000000000000000000000000000000000008152600401610fe591906115a1565b60405180910390fd5b505b6040517f08c379a0000000000000000000000000000000000000000000000000000000008152600401611022906123ee565b60405180910390fd5b63bc197c8160e01b7bffffffffffffffffffffffffffffffffffffffffffffffffffffffff1916817bffffffffffffffffffffffffffffffffffffffffffffffffffffffff1916146110b2576040517f08c379a00000000000000000000000000000000000000000000000000000000081526004016110a990612480565b60405180910390fd5b505b505050505050565b60606000600167ffffffffffffffff8111156110db576110da6115c8565b5b6040519080825280602002602001820160405280156111095781602001602082028036833780820191505090505b509050828160008151811061112157611120611e04565b5b60200260200101818152505080915050919050565b6111558473ffffffffffffffffffffffffffffffffffffffff16610714565b15611306578373ffffffffffffffffffffffffffffffffffffffff1663f23a6e6187878686866040518663ffffffff1660e01b815260040161119b9594939291906124a0565b6020604051808303816000875af19250505080156111d757506040513d601f19601f820116820180604052508101906111d4919061228a565b60015b61127d576111e36122c4565b806308c379a0141561124057506111f86122e6565b806112035750611242565b806040517f08c379a000000000000000000000000000000000000000000000000000000000815260040161123791906115a1565b60405180910390fd5b505b6040517f08c379a0000000000000000000000000000000000000000000000000000000008152600401611274906123ee565b60405180910390fd5b63f23a6e6160e01b7bffffffffffffffffffffffffffffffffffffffffffffffffffffffff1916817bffffffffffffffffffffffffffffffffffffffffffffffffffffffff191614611304576040517f08c379a00000000000000000000000000000000000000000000000000000000081526004016112fb90612480565b60405180910390fd5b505b505050505050565b6000604051905090565b600080fd5b600080fd5b600073ffffffffffffffffffffffffffffffffffffffff82169050919050565b600061134d82611322565b9050919050565b61135d81611342565b811461136857600080fd5b50565b60008135905061137a81611354565b92915050565b6000819050919050565b61139381611380565b811461139e57600080fd5b50565b6000813590506113b08161138a565b92915050565b600080604083850312156113cd576113cc611318565b5b60006113db8582860161136b565b92505060206113ec858286016113a1565b9150509250929050565b6113ff81611380565b82525050565b600060208201905061141a60008301846113f6565b92915050565b60007fffffffff0000000000000000000000000000000000000000000000000000000082169050919050565b61145581611420565b811461146057600080fd5b50565b6000813590506114728161144c565b92915050565b60006020828403121561148e5761148d611318565b5b600061149c84828501611463565b91505092915050565b60008115159050919050565b6114ba816114a5565b82525050565b60006020820190506114d560008301846114b1565b92915050565b6000602082840312156114f1576114f0611318565b5b60006114ff848285016113a1565b91505092915050565b600081519050919050565b600082825260208201905092915050565b60005b83811015611542578082015181840152602081019050611527565b83811115611551576000848401525b50505050565b6000601f19601f8301169050919050565b600061157382611508565b61157d8185611513565b935061158d818560208601611524565b61159681611557565b840191505092915050565b600060208201905081810360008301526115bb8184611568565b905092915050565b600080fd5b7f4e487b7100000000000000000000000000000000000000000000000000000000600052604160045260246000fd5b61160082611557565b810181811067ffffffffffffffff8211171561161f5761161e6115c8565b5b80604052505050565b600061163261130e565b905061163e82826115f7565b919050565b600067ffffffffffffffff82111561165e5761165d6115c8565b5b602082029050602081019050919050565b600080fd5b600061168761168284611643565b611628565b905080838252602082019050602084028301858111156116aa576116a961166f565b5b835b818110156116d357806116bf88826113a1565b8452602084019350506020810190506116ac565b5050509392505050565b600082601f8301126116f2576116f16115c3565b5b8135611702848260208601611674565b91505092915050565b600080fd5b600067ffffffffffffffff82111561172b5761172a6115c8565b5b61173482611557565b9050602081019050919050565b82818337600083830152505050565b600061176361175e84611710565b611628565b90508281526020810184848401111561177f5761177e61170b565b5b61178a848285611741565b509392505050565b600082601f8301126117a7576117a66115c3565b5b81356117b7848260208601611750565b91505092915050565b600080600080600060a086880312156117dc576117db611318565b5b60006117ea8882890161136b565b95505060206117fb8882890161136b565b945050604086013567ffffffffffffffff81111561181c5761181b61131d565b5b611828888289016116dd565b935050606086013567ffffffffffffffff8111156118495761184861131d565b5b611855888289016116dd565b925050608086013567ffffffffffffffff8111156118765761187561131d565b5b61188288828901611792565b9150509295509295909350565b600067ffffffffffffffff8211156118aa576118a96115c8565b5b602082029050602081019050919050565b60006118ce6118c98461188f565b611628565b905080838252602082019050602084028301858111156118f1576118f061166f565b5b835b8181101561191a5780611906888261136b565b8452602084019350506020810190506118f3565b5050509392505050565b600082601f830112611939576119386115c3565b5b81356119498482602086016118bb565b91505092915050565b6000806040838503121561196957611968611318565b5b600083013567ffffffffffffffff8111156119875761198661131d565b5b61199385828601611924565b925050602083013567ffffffffffffffff8111156119b4576119b361131d565b5b6119c0858286016116dd565b9150509250929050565b600081519050919050565b600082825260208201905092915050565b6000819050602082019050919050565b6119ff81611380565b82525050565b6000611a1183836119f6565b60208301905092915050565b6000602082019050919050565b6000611a35826119ca565b611a3f81856119d5565b9350611a4a836119e6565b8060005b83811015611a7b578151611a628882611a05565b9750611a6d83611a1d565b925050600181019050611a4e565b5085935050505092915050565b60006020820190508181036000830152611aa28184611a2a565b905092915050565b611ab3816114a5565b8114611abe57600080fd5b50565b600081359050611ad081611aaa565b92915050565b60008060408385031215611aed57611aec611318565b5b6000611afb8582860161136b565b9250506020611b0c85828601611ac1565b9150509250929050565b60008060408385031215611b2d57611b2c611318565b5b6000611b3b8582860161136b565b9250506020611b4c8582860161136b565b9150509250929050565b600080600080600060a08688031215611b7257611b71611318565b5b6000611b808882890161136b565b9550506020611b918882890161136b565b9450506040611ba2888289016113a1565b9350506060611bb3888289016113a1565b925050608086013567ffffffffffffffff811115611bd457611bd361131d565b5b611be088828901611792565b9150509295509295909350565b7f455243313135353a2061646472657373207a65726f206973206e6f742061207660008201527f616c6964206f776e657200000000000000000000000000000000000000000000602082015250565b6000611c49602a83611513565b9150611c5482611bed565b604082019050919050565b60006020820190508181036000830152611c7881611c3c565b9050919050565b7f4e487b7100000000000000000000000000000000000000000000000000000000600052602260045260246000fd5b60006002820490506001821680611cc657607f821691505b60208210811415611cda57611cd9611c7f565b5b50919050565b7f455243313135353a2063616c6c6572206973206e6f7420746f6b656e206f776e60008201527f6572206e6f7220617070726f7665640000000000000000000000000000000000602082015250565b6000611d3c602f83611513565b9150611d4782611ce0565b604082019050919050565b60006020820190508181036000830152611d6b81611d2f565b9050919050565b7f455243313135353a206163636f756e747320616e6420696473206c656e67746860008201527f206d69736d617463680000000000000000000000000000000000000000000000602082015250565b6000611dce602983611513565b9150611dd982611d72565b604082019050919050565b60006020820190508181036000830152611dfd81611dc1565b9050919050565b7f4e487b7100000000000000000000000000000000000000000000000000000000600052603260045260246000fd5b7f4e487b7100000000000000000000000000000000000000000000000000000000600052601160045260246000fd5b6000611e6d82611380565b91507fffffffffffffffffffffffffffffffffffffffffffffffffffffffffffffffff821415611ea057611e9f611e33565b5b600182019050919050565b7f455243313135353a2069647320616e6420616d6f756e7473206c656e6774682060008201527f6d69736d61746368000000000000000000000000000000000000000000000000602082015250565b6000611f07602883611513565b9150611f1282611eab565b604082019050919050565b60006020820190508181036000830152611f3681611efa565b9050919050565b7f455243313135353a207472616e7366657220746f20746865207a65726f20616460008201527f6472657373000000000000000000000000000000000000000000000000000000602082015250565b6000611f99602583611513565b9150611fa482611f3d565b604082019050919050565b60006020820190508181036000830152611fc881611f8c565b9050919050565b7f455243313135353a20696e73756666696369656e742062616c616e636520666f60008201527f72207472616e7366657200000000000000000000000000000000000000000000602082015250565b600061202b602a83611513565b915061203682611fcf565b604082019050919050565b6000602082019050818103600083015261205a8161201e565b9050919050565b600061206c82611380565b915061207783611380565b9250827fffffffffffffffffffffffffffffffffffffffffffffffffffffffffffffffff038211156120ac576120ab611e33565b5b828201905092915050565b600060408201905081810360008301526120d18185611a2a565b905081810360208301526120e58184611a2a565b90509392505050565b7f455243313135353a2073657474696e6720617070726f76616c2073746174757360008201527f20666f722073656c660000000000000000000000000000000000000000000000602082015250565b600061214a602983611513565b9150612155826120ee565b604082019050919050565b600060208201905081810360008301526121798161213d565b9050919050565b600060408201905061219560008301856113f6565b6121a260208301846113f6565b9392505050565b6121b281611342565b82525050565b600081519050919050565b600082825260208201905092915050565b60006121df826121b8565b6121e981856121c3565b93506121f9818560208601611524565b61220281611557565b840191505092915050565b600060a08201905061222260008301886121a9565b61222f60208301876121a9565b81810360408301526122418186611a2a565b905081810360608301526122558185611a2a565b9050818103608083015261226981846121d4565b90509695505050505050565b6000815190506122848161144c565b92915050565b6000602082840312156122a05761229f611318565b5b60006122ae84828501612275565b91505092915050565b60008160e01c9050919050565b600060033d11156122e35760046000803e6122e06000516122b7565b90505b90565b600060443d10156122f657612379565b6122fe61130e565b60043d036004823e80513d602482011167ffffffffffffffff82111715612326575050612379565b808201805167ffffffffffffffff8111156123445750505050612379565b80602083010160043d038501811115612361575050505050612379565b612370826020018501866115f7565b82955050505050505b90565b7f455243313135353a207472616e7366657220746f206e6f6e204552433131353560008201527f526563656976657220696d706c656d656e746572000000000000000000000000602082015250565b60006123d8603483611513565b91506123e38261237c565b604082019050919050565b60006020820190508181036000830152612407816123cb565b9050919050565b7f455243313135353a204552433131353552656365697665722072656a6563746560008201527f6420746f6b656e73000000000000000000000000000000000000000000000000602082015250565b600061246a602883611513565b91506124758261240e565b604082019050919050565b600060208201905081810360008301526124998161245d565b9050919050565b600060a0820190506124b560008301886121a9565b6124c260208301876121a9565b6124cf60408301866113f6565b6124dc60608301856113f6565b81810360808301526124ee81846121d4565b9050969550505050505056fea26469706673582212209761f818c89cb379dd4132a92c2f98c2cf89e48dabbec90804d3d5dd94dd9b6864736f6c634300080a003360806040523480156200001157600080fd5b506040516200376c3803806200376c833981810160405281019062000037919062000422565b620000576200004b6200025560201b60201c565b6200025d60201b60201c565b6200008b7f350badf17b5f61d54c6a25879b8761509d8f6abe83fb2c2f46d97745025feb8660001b6200032160201b60201c565b620000bf7fad94680bd393f351e09e1447d18a519b966f4b85dce0842010fcb64cb1cb4ab960001b6200032160201b60201c565b620000f37f4629ad871df35a32dbbba52f78f187a10f72ace03795542fd728777dd7b05eea60001b6200032160201b60201c565b826001819055506200012e7fcbfca0ce99d458b25f22b6feed42c3dcba877693b448eccf91985ba84425cf0360001b6200032160201b60201c565b620001627fa4bc108a0074e83620a003330710d31a1677414e8c779f5a0cdf902430b10d6060001b6200032160201b60201c565b81600260006101000a81548173ffffffffffffffffffffffffffffffffffffffff021916908373ffffffffffffffffffffffffffffffffffffffff160217905550620001d77f085fa250cebd1c4207ff4f2c8274e2113aeb247e975fd6ccc0765d9ec464dad060001b6200032160201b60201c565b6200020b7f636a2796119d345763b90c705da2b58d3f7729db80905bd81ef7c84d5a6dead760001b6200032160201b60201c565b80600360006101000a81548173ffffffffffffffffffffffffffffffffffffffff021916908373ffffffffffffffffffffffffffffffffffffffff1602179055505050506200047e565b600033905090565b60008060009054906101000a900473ffffffffffffffffffffffffffffffffffffffff169050816000806101000a81548173ffffffffffffffffffffffffffffffffffffffff021916908373ffffffffffffffffffffffffffffffffffffffff1602179055508173ffffffffffffffffffffffffffffffffffffffff168173ffffffffffffffffffffffffffffffffffffffff167f8be0079c531659141344cd1fd0a4f28419497f9722a3daafe3b4186f6b6457e060405160405180910390a35050565b50565b600080fd5b6000819050919050565b6200033e8162000329565b81146200034a57600080fd5b50565b6000815190506200035e8162000333565b92915050565b600073ffffffffffffffffffffffffffffffffffffffff82169050919050565b6000620003918262000364565b9050919050565b6000620003a58262000384565b9050919050565b620003b78162000398565b8114620003c357600080fd5b50565b600081519050620003d781620003ac565b92915050565b6000620003ea8262000384565b9050919050565b620003fc81620003dd565b81146200040857600080fd5b50565b6000815190506200041c81620003f1565b92915050565b6000806000606084860312156200043e576200043d62000324565b5b60006200044e868287016200034d565b93505060206200046186828701620003c6565b925050604062000474868287016200040b565b9150509250925092565b6132de806200048e6000396000f3fe608060405234801561001057600080fd5b506004361061010b5760003560e01c8063715018a6116100a2578063a5ce413b11610071578063a5ce413b146102aa578063bc197c81146102b4578063f23a6e61146102e4578063f2fde38b14610314578063fc0c546a146103305761010b565b8063715018a6146102485780637547c7a3146102525780638da5cb5b1461026e57806396afc4501461028c5761010b565b806323c9bc52116100de57806323c9bc52146101c257806325ca4cff146101e05780634b427e6414610210578063574e700f1461022c5761010b565b806301ffc9a7146101105780630af2c6ca146101405780631959a0021461015e5780631f8bc79014610190575b600080fd5b61012a6004803603810190610125919061265d565b61034e565b60405161013791906126a5565b60405180910390f35b6101486103c8565b60405161015591906126d9565b60405180910390f35b61017860048036038101906101739190612752565b610459565b6040516101879392919061277f565b60405180910390f35b6101aa60048036038101906101a591906127e2565b610483565b6040516101b99392919061277f565b60405180910390f35b6101ca6104bd565b6040516101d7919061286e565b60405180910390f35b6101fa60048036038101906101f59190612752565b6104e3565b60405161020791906126d9565b60405180910390f35b61022a600480360381019061022591906128ee565b61064d565b005b6102466004803603810190610241919061296f565b6110a0565b005b610250611548565b005b61026c600480360381019061026791906127e2565b61155c565b005b610276611bd4565b6040516102839190612a32565b60405180910390f35b610294611bfd565b6040516102a191906126d9565b60405180910390f35b6102b2611c03565b005b6102ce60048036038101906102c99190612c51565b6122ad565b6040516102db9190612d2f565b60405180910390f35b6102fe60048036038101906102f99190612d4a565b6122c2565b60405161030b9190612d2f565b60405180910390f35b61032e60048036038101906103299190612752565b6122d7565b005b61033861235b565b6040516103459190612e02565b60405180910390f35b60007f4e2312e0000000000000000000000000000000000000000000000000000000007bffffffffffffffffffffffffffffffffffffffffffffffffffffffff1916827bffffffffffffffffffffffffffffffffffffffffffffffffffffffff191614806103c157506103c082612381565b5b9050919050565b60006103f67fd9457cbeff8e18ec5a735efd7785f8f78f59bbb9e93b126e49a1c392265806ef60001b6123eb565b6104227f35c85afa05d9d0ed9be1d716e4e5d13e1afb551cc3f5724b8c5fde965a86783860001b6123eb565b61044e7f97f56647143f5f95ddfea8f8b8d199872cd207b4d2227dc176451bdec00ef32360001b6123eb565b600480549050905090565b60056020528060005260406000206000915090508060000154908060010154908060020154905083565b6004818154811061049357600080fd5b90600052602060002090600302016000915090508060000154908060010154908060020154905083565b600360009054906101000a900473ffffffffffffffffffffffffffffffffffffffff1681565b60006105117ffd17a5423f1c25cd78c825b57def40a655a8afaa1e117546bc3d1de75b0c1c7660001b6123eb565b61053d7f315cc3fd4d04b4c51fb1ebe6664902adb6b80d7d9d4a35bf579ce74e9fc84ccd60001b6123eb565b6105697fb918b339997b3ec0ee02a7b395ea6b17efbf4e4e61d26098648ceb88115f4de760001b6123eb565b6000600560008473ffffffffffffffffffffffffffffffffffffffff1673ffffffffffffffffffffffffffffffffffffffff16815260200190815260200160002090506105d87f7ed32276489cb3566972d194c2ebb1ad99bd504881a4ab14e0addf578b6f44cb60001b6123eb565b6106047fa856cd6a830d3d8442ab63c43e8f2792865ba6a86a2993eeea43f4815fb2694d60001b6123eb565b6106368160405180606001604052908160008201548152602001600182015481526020016002820154815250506123ee565b81600201546106459190612e4c565b915050919050565b6106797f9efefdc76c33ffa0a1d0e42626fffe8446d141c8b60a848850067540a7129c9b60001b6123eb565b6106a57fcee28df87ec04f996efd23606aba26154e9a60f2261412f19682035937b66fdc60001b6123eb565b6106d17ffd1f399a681a5cd5a839c900e8703b00beedd20096c321ee966e14dc432e98bd60001b6123eb565b81819050848490501461077b5761070a7fdf3408038d0962778fc06dfc455697303cc412105958ce50d6961c92fdd4bb1d60001b6123eb565b6107367f038fc16e224d71c8bb8554aa71e639722c52a3c9717934bd4194a034cfb18a7160001b6123eb565b83839050828290506040517f68760925000000000000000000000000000000000000000000000000000000008152600401610772929190612ea2565b60405180910390fd5b6107a77f6b347191b8086652c2ca85e5e959ef418fdfcfbfa67d17a6306483144cd34b9760001b6123eb565b6107d37fce9cf8f3ddb16a372cfba9abe8e33b735bfd2c88aae512372df47c9bfc4434f660001b6123eb565b6107ff7f7974f72978aefcbf8bfc370ff3dff51d90754b312b72a76e9f61122a8ac9f92d60001b6123eb565b60005b848490508167ffffffffffffffff161015610f1e576108437fe5015653672843249ec6d48e78a33f245c54bf9487d98a6e05f978a4428bc85760001b6123eb565b61086f7f2e8fa3dd3ee3a86503b091f28f40d87a7ee5cb0e1cd6af1cec17c6979797571f60001b6123eb565b6000600486868467ffffffffffffffff168181106108905761088f612ecb565b5b90506020020135815481106108a8576108a7612ecb565b5b90600052602060002090600302016040518060600160405290816000820154815260200160018201548152602001600282015481525050905061090d7fa363c7b9f298cca2e5eb5ea12e5a04e9123d47e62b79d99144597aeb45b0417a60001b6123eb565b6109397f0c86caa6536d64dbef1db28a021d5718a4e98bec1e261a54a2ae3e34875a3e5e60001b6123eb565b600084848467ffffffffffffffff1681811061095857610957612ecb565b5b90506020020135826040015161096e9190612efa565b905061099c7fea4a0b0d1fc3d13d2ebc8ec3c58c2a735e5a51078c7eb487a2a8d550584f254460001b6123eb565b6109c87f3ff7e534770c66b51d7d1a0f6d0ea1df87272ca8ec607786e1c6b156d096132c60001b6123eb565b60006109d3336104e3565b9050610a017f6566f205b490bb9b5e6e46b103ccb4bf02ad8e87535d1bc869e2114cc4e6f92b60001b6123eb565b610a2d7f1543ebcf4707c0c3ebd79bcd4b60ed622fdaf70d5f6f81d8e8b0c7b05ec25c0b60001b6123eb565b85858567ffffffffffffffff16818110610a4a57610a49612ecb565b5b9050602002013583602001511015610ae657610a887f5083f9eba6f29e5b98fc22a244be16d92a465c9ce310b360e18368349a14d23860001b6123eb565b610ab47f8d77343c735dfe05d93fe49761223c8576346f599a72ae641bebfb1305c69a8f60001b6123eb565b6040517f7a9ea08600000000000000000000000000000000000000000000000000000000815260040160405180910390fd5b610b127f8fb2a3bd2e2f67cdec2c8dd271533838cc38f72cbc1fff7ec8a82bc946acae3a60001b6123eb565b610b3e7faf8bce03a9059f4ab6f07b78c2f3143e33af18decbf1173d48ee09489b86895b60001b6123eb565b610b6a7f21bb44374bdef6182c2615d100964e7ce3eac0023ff5749f8396496795c1133e60001b6123eb565b818111610bfb57610b9d7f516083042849bcc93b01e821c6925048318a77cb93f7597e8d2106408ca88f8560001b6123eb565b610bc97f6cd0f3eb9bf1d7b09e32a3a52861a5e14d9c01b1204a3ead249124296ea3c22a60001b6123eb565b6040517fae36f23600000000000000000000000000000000000000000000000000000000815260040160405180910390fd5b610c277f3a041e56aec2e060f189da17725ccaefabe873371511b31939c9a5d17f66f9f060001b6123eb565b610c537f55b0def40879a4831a88baf7670ec9a93fe747c6a90e8b7d94ff967f0a3c69a860001b6123eb565b610c7f7f6d0d06e5ede4a2a31586c33cafc9cbbf858a7eb2ea670a4c195e8e00ffe16fcc60001b6123eb565b6000600560003373ffffffffffffffffffffffffffffffffffffffff1673ffffffffffffffffffffffffffffffffffffffff16815260200190815260200160002060405180606001604052908160008201548152602001600182015481526020016002820154815250509050610d177f5186fd761707fdaef8a861d1229e8a494ce9d9bb97203067afc600ddd7fd009360001b6123eb565b610d437f81dfeb15ac57051f6b17bcf8994b6055d97e13882370dfd0f2af81e9353c4a0160001b6123eb565b8282610d4f9190612f54565b816040018181525050610d847f02778d604ffb78d8f73ae60553aaca66f51784b42e18327d211b2805c4380e7460001b6123eb565b610db07f1150e3eee60898e86c03b406f6da5cb5a996199547b49910d4b9583a6528335360001b6123eb565b42816020018181525050610de67f83f4340c6057fb8649b2dbe825425d52d6357c470bd32f4e29f3477388dd200760001b6123eb565b610e127fce372e87b306792bc37a578c304f5aa713ddfe047bb765de9ae3cb69f939d38360001b6123eb565b80600560003373ffffffffffffffffffffffffffffffffffffffff1673ffffffffffffffffffffffffffffffffffffffff168152602001908152602001600020600082015181600001556020820151816001015560408201518160020155905050610e9f7f601587edfd532fb58192043fcf9a6d8abebb7b95a6cf4d2a4f7ad447fc22ae6160001b6123eb565b610ecb7f98d019b04211eba4ee64bb8f12287b594d19c5a96413da411c8e86f3dff652d960001b6123eb565b86868667ffffffffffffffff16818110610ee857610ee7612ecb565b5b9050602002013584602001818151610f009190612f54565b91508181525050505050508080610f1690612f9c565b915050610802565b50610f4b7f630acbc04024bbff664ca4cd4b3e15c7b98fa34d35d60b809ac6659581fcb5e660001b6123eb565b610f777ffeea0be01674bd62b8473584f91cf49b4d298d0c68d29ce1978628d93681194460001b6123eb565b600360009054906101000a900473ffffffffffffffffffffffffffffffffffffffff1673ffffffffffffffffffffffffffffffffffffffff16632eb2c2d63033878787876040518763ffffffff1660e01b8152600401610fdc96959493929190613076565b600060405180830381600087803b158015610ff657600080fd5b505af115801561100a573d6000803e3d6000fd5b5050505061103a7fa744422e01ae35031f8bb1e55c9cab889364cca592a8dec5fe04795026fd111160001b6123eb565b6110667fb27c4f07d162c6faea0f909d6116b41b4c4c9d0ca5f6526dd291b84a47bbc64f60001b6123eb565b81819050848490507f9fd4a33a7cbee3d9f21e207bf96003ffe9f38dc14e86ed40d90b5c57678be3f760405160405180910390a350505050565b6110a86124a7565b6110d47fe558febd7c7f47161bd8aaca91768b5bbc9d85f3ae8665b44a4c88780ea66e0960001b6123eb565b6111007fe7c50830249099e2a6a8d3f615b51aa708cb8e97d3005a1e6c74229fdc81490860001b6123eb565b61112c7fba3944b741465451a94576e1968c7dcd86a38d26addf5650a3688dabb2b9fbbe60001b6123eb565b83839050868690501415806111475750818190508484905014155b156111ee576111787fa36dcd58d2d3f389aa979cd00592db4456c4fd2fdb6335c67bbce73edeb4e40960001b6123eb565b6111a47feb1276c5d22d3b563904bf001079808b1233b0391db1f58520ed6738eac7192160001b6123eb565b8585905084849050838390506040517f58744bdb0000000000000000000000000000000000000000000000000000000081526004016111e59392919061277f565b60405180910390fd5b61121a7f035490a75081c3d4f329f743e75cb7148fd1123c793e01936d5c4896f2b5e73f60001b6123eb565b6112467f151b94aa169c4eccb99c5c371496a65fa45d74c5d2b3c6a7eac726922fefb9a360001b6123eb565b6112727f0ac76adce2934fa002af6f971bbc928e5d4d0c8bdba09569aa52499030275d1d60001b6123eb565b600360009054906101000a900473ffffffffffffffffffffffffffffffffffffffff1673ffffffffffffffffffffffffffffffffffffffff16632eb2c2d63330898989896040518763ffffffff1660e01b81526004016112d796959493929190613076565b600060405180830381600087803b1580156112f157600080fd5b505af1158015611305573d6000803e3d6000fd5b505050506113357ffa084bc85ef423077c48634de1e4462c1a5bc021b53a700cb2c525332aed079f60001b6123eb565b6113617f091f2ed8e82468e94d1119e96d6e9ef96d552398ed04492ad9f3927d3e85757760001b6123eb565b60005b868690508167ffffffffffffffff1610156114b3576113a57f043d0713c04b14c812a7bc3491a5101d643a65312ca49bf558244aeb5b1a34d760001b6123eb565b6113d17fe5739a1f668597d2b6740fb9c9abbb4507432b6b9f33603f5d837fd65d3914bf60001b6123eb565b6004604051806060016040528089898567ffffffffffffffff168181106113fb576113fa612ecb565b5b90506020020135815260200187878567ffffffffffffffff1681811061142457611423612ecb565b5b90506020020135815260200185858567ffffffffffffffff1681811061144d5761144c612ecb565b5b905060200201358152509080600181540180825580915050600190039060005260206000209060030201600090919091909150600082015181600001556020820151816001015560408201518160020155505080806114ab90612f9c565b915050611364565b506114e07f57e98a03010addd0806879fb346b914d57dbc65edd3a42bc860e17178f6d477160001b6123eb565b61150c7f58c83d8da6657ea8bf10df6a4b74ec0d16ab0cd63d693c25e18e2243a768fcbd60001b6123eb565b83839050868690507fcb87aa06d2795b703d649af7782f4a7af688683e63d3855f3bdb1092ae21495260405160405180910390a3505050505050565b6115506124a7565b61155a6000612525565b565b6115887fb2b05d97493734d7ef58a9c111b65e7ed3291af54c986fe1b2f2b6ac7789ade860001b6123eb565b6115b47f01c5c367be2995bab523931f625cb85c82820fc86d7d102646187daecaebf80f60001b6123eb565b6115e07f6005f89a35a55e7662cb8798d72bb0e4df2f8270458a32c2c7dff990b7d3116d60001b6123eb565b6000811415611673576116157f8d75eee714fe7e86cc25299a2923760490a2baf39947cd99199c4ccd695a20be60001b6123eb565b6116417f57186cf433899bb71fd7ec667a0cea32679cc962475181e95a76b85365d13f5260001b6123eb565b6040517ff739ca4900000000000000000000000000000000000000000000000000000000815260040160405180910390fd5b61169f7f61ce91c5e7f5aeda3b79980b6b8c6a0b8c52ab64881b41f1ea6861b04bb4ae9060001b6123eb565b6116cb7f52675f40da1753aa6ba5f588470be1a663e97a4cff45871feb75f6bb3d87f81360001b6123eb565b6116f77fa5e391e1fdee56d3abfc9f631a2fb7ce0b8767417763ff8f24c1c1bb21ba146c60001b6123eb565b6000600260009054906101000a900473ffffffffffffffffffffffffffffffffffffffff1673ffffffffffffffffffffffffffffffffffffffff166323b872dd3330856040518463ffffffff1660e01b8152600401611758939291906130e0565b6020604051808303816000875af1158015611777573d6000803e3d6000fd5b505050506040513d601f19601f8201168201806040525081019061179b9190613143565b90506117c97fa8d10d33b6b981610bdd96058b6f16f40d0f0b3b0b03a92f34d0b589a5c29ee860001b6123eb565b6117f57fc74163b09ea9ccaa5522e854ca6abf753725d29dae35f48cdae76add6d8aed3360001b6123eb565b80611884576118267f23cbff258465ff1771320436d5ae82fc904ab4338efcd84deb026d9140f3be1c60001b6123eb565b6118527f83a0b934e68070793febafb3471712163ff9dc5fb335bce8950adf7668b0f33a60001b6123eb565b6040517f720a77e000000000000000000000000000000000000000000000000000000000815260040160405180910390fd5b6118b07fe0979cf01942e6d34ab714a6420a130afc99c79af1fc1276ab39e3eff1c2999460001b6123eb565b6118dc7fba9759229647f9109e06ff31cc045102f799f0f30e93d8285153b86ee3f5a60560001b6123eb565b6119087fe2298baf709f6af4fd78d78da4979f8245a2076148c578d49e4859b515353e4060001b6123eb565b6000600560003373ffffffffffffffffffffffffffffffffffffffff1673ffffffffffffffffffffffffffffffffffffffff16815260200190815260200160002090506119777f40875d04424a215fb757fc88744a9b74eaf98d197a748fc3c1bc5d28229efdc660001b6123eb565b6119a37f0690a07475c4e0ee9fafcc003efd624690e3e4bcd3920f0eb8a8882ecfadf2b360001b6123eb565b6000816000015414611a49576119db7fb9a42c10932fd53aa5562390da679d07afc60de7efe9f5d36d42069fa56b3dae60001b6123eb565b611a077f3da4c79ebf27613abcbd3a438670547def327ecf13b538e1e5bacd7eb432284060001b6123eb565b611a337fb995ff1a9c10faebbb08f0d193fac8dc62eb7eb8cc75978e28809a099e2fa26f60001b6123eb565b611a3c336104e3565b8160020181905550611a76565b611a757fcca56d86c453273a5bb039b7fb4ed9df8fc3801c80c80fd2d1a2626521f39cf860001b6123eb565b5b611aa27f59c62d9e524ba133224b2e43c3c12ecb1f1ab5d64c863681d41c01c9ecc8ec8360001b6123eb565b611ace7fd8712738b5561dc33bc3923237a5a494ac33f896df51d3c0ce47e66f4f6a3bc760001b6123eb565b82816000016000828254611ae29190612e4c565b92505081905550611b157f19b63e1d1636cd68ee1069f4cefe779bc81f5b9201e1978cd0a5525b8963a2d860001b6123eb565b611b417feb2e3c1ec1bfd01f2fede4227934dd762a89ec65f10e634408d2a18be314fc8b60001b6123eb565b428160010181905550611b767f22e710967faab82b96a685e6562953684dca1fbb9137c5fb4f02b8ef3671b3a260001b6123eb565b611ba27fab0635faeaf956d004769dd4670a54fccd42298bc2f3fd98c0f0de1074b5202460001b6123eb565b827ff3c756dc29398342d2e11fb528b2eca687af69d47cb5222de3ad764b27fee6bb60405160405180910390a2505050565b60008060009054906101000a900473ffffffffffffffffffffffffffffffffffffffff16905090565b60015481565b611c2f7f6a38b1a3894f3277f7d639d46dd0e631312245ffbf1239ed4e7b4be59195291360001b6123eb565b611c5b7fc22158ae048a01e6d91d4e08c607c86bfeff8caa5e578eca917b8625c3b270b760001b6123eb565b611c877ff78f7cb6b32f99707fb4a5509dfd09ef8df0ca9402e4630c0f0370df102c366a60001b6123eb565b6000600560003373ffffffffffffffffffffffffffffffffffffffff1673ffffffffffffffffffffffffffffffffffffffff16815260200190815260200160002060405180606001604052908160008201548152602001600182015481526020016002820154815250509050611d1f7f4257cde32b2436088b079e08d362578ddcf5c4fbafd3d2aabaccb51d2555211d60001b6123eb565b611d4b7fd1970ff6755be5ce40ff9d8c58e22856066cd7fa3a34ec322a6c7e0d6c68be3a60001b6123eb565b600081600001511415611de257611d847f148fef2851eda6c2964f06901409477c87fcba3a359ea511fa26d0bf46c79e7860001b6123eb565b611db07f5f6a519a4f43bc462cd2a9e3e4042a35624ef2e83b085d59491400176f87042660001b6123eb565b6040517ff739ca4900000000000000000000000000000000000000000000000000000000815260040160405180910390fd5b611e0e7f79247f18fa3fc1a7002f99bdefbde089105ba600f10afce8af7f27df13ba253160001b6123eb565b611e3a7fc47dee3d366da8e9251935988262e117adc1b18526932a13d315b2073106099660001b6123eb565b611e667fa29a505ce52bf859464674778208c246e53e672aa2c753d51340fa963177f80d60001b6123eb565b6000600260009054906101000a900473ffffffffffffffffffffffffffffffffffffffff1673ffffffffffffffffffffffffffffffffffffffff1663a9059cbb3384600001516040518363ffffffff1660e01b8152600401611ec9929190613170565b6020604051808303816000875af1158015611ee8573d6000803e3d6000fd5b505050506040513d601f19601f82011682018060405250810190611f0c9190613143565b9050611f3a7f69b367f1fa6abb5c46ddf812fbfcec5f47156a8f35ee200e44127e94298c313260001b6123eb565b611f667f639a248d77f480e353bb736b115e23928f7e1f8d37df985e844453738696d3b660001b6123eb565b80611ff557611f977facccbff8bb18278b2e53b0103da20228502ec62871d670775f730879d06a22bc60001b6123eb565b611fc37fd2e0bd74f6f148299c84c0e4205a37220482f2815f1ce0162679a19c088b627d60001b6123eb565b6040517f720a77e000000000000000000000000000000000000000000000000000000000815260040160405180910390fd5b6120217ff04aabef87465f618c2c916c1fd0accc1142ec96d7af9796c3f87371ce21427260001b6123eb565b61204d7fbea53ec3771eaf72e61b97b25b8d145204f05ab92d1610c51eb657ab16827b2f60001b6123eb565b6120797f73e406e74aa9d6119bd8fb3d0893129877b462c0d469bb72c4c2f91d8606d60960001b6123eb565b612082336104e3565b8260400181815250506120b77fd6d89f1376c0f0f80d8d953463a75ab816dfe5f310da77961e13d8c1d0cda8f460001b6123eb565b6120e37ffee6d62b84ef7ba083ce06bc600e86243aad261cb45b9d92d5f0133b1025c37760001b6123eb565b600082600001818152505061211a7f97c84fc99bf56bd061eaf98ee573c2d57b70f43091d928d547b3c11185ed56d760001b6123eb565b6121467f47e4b3fbf38ff90bea50052a0fd0435f3a0a4d80d5c8b6c6262ef8108f15446a60001b6123eb565b4282602001818152505061217c7f154472f7fcd481be45adebd3dc94d5fbcf0d93ef956aea6ec1ef198ad24089ba60001b6123eb565b6121a87f48615ea326e98843ea0fb34e2870b0390f6dfde8ce8cef70552a1d450b57b73660001b6123eb565b81600560003373ffffffffffffffffffffffffffffffffffffffff1673ffffffffffffffffffffffffffffffffffffffff1681526020019081526020016000206000820151816000015560208201518160010155604082015181600201559050506122357fa8496e29ee8c65d93028dea637f35ac81b269e47954b5dcc27f469fda9ad75e960001b6123eb565b6122617f9019bf52657b4888560469e9bae1f9283fa82aa6eecfbb2ca0537f022eeea0e660001b6123eb565b81604001513373ffffffffffffffffffffffffffffffffffffffff167ff74a79d13d6fdbdf26b2c779e6a24490a43e65d60cc7e064740f8d40b2b5ea2c60405160405180910390a35050565b600063bc197c8160e01b905095945050505050565b600063f23a6e6160e01b905095945050505050565b6122df6124a7565b600073ffffffffffffffffffffffffffffffffffffffff168173ffffffffffffffffffffffffffffffffffffffff16141561234f576040517f08c379a00000000000000000000000000000000000000000000000000000000081526004016123469061321c565b60405180910390fd5b61235881612525565b50565b600260009054906101000a900473ffffffffffffffffffffffffffffffffffffffff1681565b60007f01ffc9a7000000000000000000000000000000000000000000000000000000007bffffffffffffffffffffffffffffffffffffffffffffffffffffffff1916827bffffffffffffffffffffffffffffffffffffffffffffffffffffffff1916149050919050565b50565b600061241c7f56ec34ecd1484a685b17a17a7b36e76a8f84c9e758fc7da104ad912c0cac17b660001b6123eb565b6124487f066dfc5005f3ad52bd5a1caf35e9369655ee0be20744c3919bb2a34ad4d3460660001b6123eb565b6124747faba942c5d573764f836aaa980ae2239ad59ba18c2c51ac4c2b3bfdff17aecee660001b6123eb565b81600001516001546124869190612efa565b8260200151426124969190612f54565b6124a09190612efa565b9050919050565b6124af6125e9565b73ffffffffffffffffffffffffffffffffffffffff166124cd611bd4565b73ffffffffffffffffffffffffffffffffffffffff1614612523576040517f08c379a000000000000000000000000000000000000000000000000000000000815260040161251a90613288565b60405180910390fd5b565b60008060009054906101000a900473ffffffffffffffffffffffffffffffffffffffff169050816000806101000a81548173ffffffffffffffffffffffffffffffffffffffff021916908373ffffffffffffffffffffffffffffffffffffffff1602179055508173ffffffffffffffffffffffffffffffffffffffff168173ffffffffffffffffffffffffffffffffffffffff167f8be0079c531659141344cd1fd0a4f28419497f9722a3daafe3b4186f6b6457e060405160405180910390a35050565b600033905090565b6000604051905090565b600080fd5b600080fd5b60007fffffffff0000000000000000000000000000000000000000000000000000000082169050919050565b61263a81612605565b811461264557600080fd5b50565b60008135905061265781612631565b92915050565b600060208284031215612673576126726125fb565b5b600061268184828501612648565b91505092915050565b60008115159050919050565b61269f8161268a565b82525050565b60006020820190506126ba6000830184612696565b92915050565b6000819050919050565b6126d3816126c0565b82525050565b60006020820190506126ee60008301846126ca565b92915050565b600073ffffffffffffffffffffffffffffffffffffffff82169050919050565b600061271f826126f4565b9050919050565b61272f81612714565b811461273a57600080fd5b50565b60008135905061274c81612726565b92915050565b600060208284031215612768576127676125fb565b5b60006127768482850161273d565b91505092915050565b600060608201905061279460008301866126ca565b6127a160208301856126ca565b6127ae60408301846126ca565b949350505050565b6127bf816126c0565b81146127ca57600080fd5b50565b6000813590506127dc816127b6565b92915050565b6000602082840312156127f8576127f76125fb565b5b6000612806848285016127cd565b91505092915050565b6000819050919050565b600061283461282f61282a846126f4565b61280f565b6126f4565b9050919050565b600061284682612819565b9050919050565b60006128588261283b565b9050919050565b6128688161284d565b82525050565b6000602082019050612883600083018461285f565b92915050565b600080fd5b600080fd5b600080fd5b60008083601f8401126128ae576128ad612889565b5b8235905067ffffffffffffffff8111156128cb576128ca61288e565b5b6020830191508360208202830111156128e7576128e6612893565b5b9250929050565b60008060008060408587031215612908576129076125fb565b5b600085013567ffffffffffffffff81111561292657612925612600565b5b61293287828801612898565b9450945050602085013567ffffffffffffffff81111561295557612954612600565b5b61296187828801612898565b925092505092959194509250565b6000806000806000806060878903121561298c5761298b6125fb565b5b600087013567ffffffffffffffff8111156129aa576129a9612600565b5b6129b689828a01612898565b9650965050602087013567ffffffffffffffff8111156129d9576129d8612600565b5b6129e589828a01612898565b9450945050604087013567ffffffffffffffff811115612a0857612a07612600565b5b612a1489828a01612898565b92509250509295509295509295565b612a2c81612714565b82525050565b6000602082019050612a476000830184612a23565b92915050565b6000601f19601f8301169050919050565b7f4e487b7100000000000000000000000000000000000000000000000000000000600052604160045260246000fd5b612a9682612a4d565b810181811067ffffffffffffffff82111715612ab557612ab4612a5e565b5b80604052505050565b6000612ac86125f1565b9050612ad48282612a8d565b919050565b600067ffffffffffffffff821115612af457612af3612a5e565b5b602082029050602081019050919050565b6000612b18612b1384612ad9565b612abe565b90508083825260208201905060208402830185811115612b3b57612b3a612893565b5b835b81811015612b645780612b5088826127cd565b845260208401935050602081019050612b3d565b5050509392505050565b600082601f830112612b8357612b82612889565b5b8135612b93848260208601612b05565b91505092915050565b600080fd5b600067ffffffffffffffff821115612bbc57612bbb612a5e565b5b612bc582612a4d565b9050602081019050919050565b82818337600083830152505050565b6000612bf4612bef84612ba1565b612abe565b905082815260208101848484011115612c1057612c0f612b9c565b5b612c1b848285612bd2565b509392505050565b600082601f830112612c3857612c37612889565b5b8135612c48848260208601612be1565b91505092915050565b600080600080600060a08688031215612c6d57612c6c6125fb565b5b6000612c7b8882890161273d565b9550506020612c8c8882890161273d565b945050604086013567ffffffffffffffff811115612cad57612cac612600565b5b612cb988828901612b6e565b935050606086013567ffffffffffffffff811115612cda57612cd9612600565b5b612ce688828901612b6e565b925050608086013567ffffffffffffffff811115612d0757612d06612600565b5b612d1388828901612c23565b9150509295509295909350565b612d2981612605565b82525050565b6000602082019050612d446000830184612d20565b92915050565b600080600080600060a08688031215612d6657612d656125fb565b5b6000612d748882890161273d565b9550506020612d858882890161273d565b9450506040612d96888289016127cd565b9350506060612da7888289016127cd565b925050608086013567ffffffffffffffff811115612dc857612dc7612600565b5b612dd488828901612c23565b9150509295509295909350565b6000612dec8261283b565b9050919050565b612dfc81612de1565b82525050565b6000602082019050612e176000830184612df3565b92915050565b7f4e487b7100000000000000000000000000000000000000000000000000000000600052601160045260246000fd5b6000612e57826126c0565b9150612e62836126c0565b9250827fffffffffffffffffffffffffffffffffffffffffffffffffffffffffffffffff03821115612e9757612e96612e1d565b5b828201905092915050565b6000604082019050612eb760008301856126ca565b612ec460208301846126ca565b9392505050565b7f4e487b7100000000000000000000000000000000000000000000000000000000600052603260045260246000fd5b6000612f05826126c0565b9150612f10836126c0565b9250817fffffffffffffffffffffffffffffffffffffffffffffffffffffffffffffffff0483118215151615612f4957612f48612e1d565b5b828202905092915050565b6000612f5f826126c0565b9150612f6a836126c0565b925082821015612f7d57612f7c612e1d565b5b828203905092915050565b600067ffffffffffffffff82169050919050565b6000612fa782612f88565b915067ffffffffffffffff821415612fc257612fc1612e1d565b5b600182019050919050565b600082825260208201905092915050565b600080fd5b6000612fef8385612fcd565b93507f07ffffffffffffffffffffffffffffffffffffffffffffffffffffffffffffff83111561302257613021612fde565b5b602083029250613033838584612bd2565b82840190509392505050565b600082825260208201905092915050565b50565b600061306060008361303f565b915061306b82613050565b600082019050919050565b600060a08201905061308b6000830189612a23565b6130986020830188612a23565b81810360408301526130ab818688612fe3565b905081810360608301526130c0818486612fe3565b905081810360808301526130d381613053565b9050979650505050505050565b60006060820190506130f56000830186612a23565b6131026020830185612a23565b61310f60408301846126ca565b949350505050565b6131208161268a565b811461312b57600080fd5b50565b60008151905061313d81613117565b92915050565b600060208284031215613159576131586125fb565b5b60006131678482850161312e565b91505092915050565b60006040820190506131856000830185612a23565b61319260208301846126ca565b9392505050565b600082825260208201905092915050565b7f4f776e61626c653a206e6577206f776e657220697320746865207a65726f206160008201527f6464726573730000000000000000000000000000000000000000000000000000602082015250565b6000613206602683613199565b9150613211826131aa565b604082019050919050565b60006020820190508181036000830152613235816131f9565b9050919050565b7f4f776e61626c653a2063616c6c6572206973206e6f7420746865206f776e6572600082015250565b6000613272602083613199565b915061327d8261323c565b602082019050919050565b600060208201905081810360008301526132a181613265565b905091905056fea264697066735822122046bc91cf6c8e3e5f2179872798cb02355df7ceef71419a385fbae0b3c2ebc25764736f6c634300080a003368747470733a2f2f676174657761792e70696e6174612e636c6f75642f697066732f516d61507a4d5378586e4e7a6832324134586d53557066656e563536536a4c654651314b6a746e355131693253452f",
  "linkReferences": {},
  "deployedLinkReferences": {}
}