{
  "_format": "hh-sol-artifact-1",
  "contractName": "FarmTest",
  "sourceName": "contracts/test/FarmeTest.sol",
  "abi": [
    {
      "inputs": [],
      "stateMutability": "nonpayable",
      "type": "constructor"
    },
    {
      "inputs": [
        {
          "internalType": "uint256[]",
          "name": "_ids",
          "type": "uint256[]"
        },
        {
          "internalType": "uint256[]",
          "name": "_totals",
          "type": "uint256[]"
        },
        {
          "internalType": "uint256[]",
          "name": "_prices",
          "type": "uint256[]"
        }
      ],
      "name": "addNFTs",
      "outputs": [],
      "stateMutability": "nonpayable",
      "type": "function"
    },
    {
      "inputs": [
        {
          "internalType": "uint256[]",
          "name": "_nftIndexes",
          "type": "uint256[]"
        },
        {
          "internalType": "uint256[]",
          "name": "_quantities",
          "type": "uint256[]"
        }
      ],
      "name": "claimNFTs",
      "outputs": [],
      "stateMutability": "nonpayable",
      "type": "function"
    },
    {
      "inputs": [],
      "name": "crops",
      "outputs": [
        {
          "internalType": "contract Crops",
          "name": "",
          "type": "address"
        }
      ],
      "stateMutability": "view",
      "type": "function"
    },
    {
      "inputs": [],
      "name": "echidna_void",
      "outputs": [
        {
          "internalType": "bool",
          "name": "",
          "type": "bool"
        }
      ],
      "stateMutability": "pure",
      "type": "function"
    },
    {
      "inputs": [],
      "name": "farm",
      "outputs": [
        {
          "internalType": "contract NFTFarm",
          "name": "",
          "type": "address"
        }
      ],
      "stateMutability": "view",
      "type": "function"
    },
    {
      "inputs": [
        {
          "internalType": "uint256",
          "name": "_amount",
          "type": "uint256"
        }
      ],
      "name": "stakeTokens",
      "outputs": [],
      "stateMutability": "nonpayable",
      "type": "function"
    },
    {
      "inputs": [],
      "name": "token",
      "outputs": [
        {
          "internalType": "contract DaiToken",
          "name": "",
          "type": "address"
        }
      ],
      "stateMutability": "view",
      "type": "function"
    },
    {
      "inputs": [],
      "name": "unstakeTokens",
      "outputs": [],
      "stateMutability": "nonpayable",
      "type": "function"
    }
  ],
  "bytecode": "0x610160604052600160e090815260026101005260036101205260046101408190526200002e9160009162000311565b50604080516080810182526103e881526101f460208201526064918101919091526001606082018190526200006591600462000366565b50604080518082019091526001815260026020820181905262000089918162000311565b5060408051808201909152600a815260146020820152620000af90600390600262000311565b506040805180820190915260018152600260208201819052620000d59160049162000311565b50348015620000e357600080fd5b5060408051808201825260038082526244414960e81b6020808401829052845180860186529283528281019190915283516080810190945260518085529293919260129269152d02c7e14af6800000926000929062004ab5908301399050848484846040516200015390620003aa565b6200016294939291906200043b565b604051809103906000f0801580156200017f573d6000803e3d6000fd5b506001600160a01b03166080526040518190600090600190620001a290620003b8565b620001b093929190620004bd565b604051809103906000f080158015620001cd573d6000803e3d6000fd5b506001600160a01b031660a081905260805160405160019290620001f190620003c6565b9283526001600160a01b039182166020840152166040820152606001604051809103906000f0801580156200022a573d6000803e3d6000fd5b506001600160a01b0390811660c081905260a05160405163a22cb46560e01b81526004810192909252600160248301529091169063a22cb46590604401600060405180830381600087803b1580156200028257600080fd5b505af115801562000297573d6000803e3d6000fd5b5050505060c0516001600160a01b031663574e700f6002600360046040518463ffffffff1660e01b8152600401620002d29392919062000506565b600060405180830381600087803b158015620002ed57600080fd5b505af115801562000302573d6000803e3d6000fd5b5050505050505050506200051b565b82805482825590600052602060002090810192821562000354579160200282015b8281111562000354578251829060ff1690559160200191906001019062000332565b5062000362929150620003d4565b5090565b82805482825590600052602060002090810192821562000354579160200282015b8281111562000354578251829061ffff1690559160200191906001019062000387565b610ec78062000b3483390190565b611db280620019fb83390190565b61130880620037ad83390190565b5b80821115620003625760008155600101620003d5565b6000815180845260005b818110156200041357602081850181015186830182015201620003f5565b8181111562000426576000602083870101525b50601f01601f19169290920160200192915050565b608081526000620004506080830187620003eb565b8281036020840152620004648187620003eb565b60ff95909516604084015250506060015292915050565b6000815480845260208085019450836000528060002060005b83811015620004b25781548752958201956001918201910162000494565b509495945050505050565b606081526000620004d26060830186620003eb565b8281036020840152620004e681866200047b565b90508281036040840152620004fc81856200047b565b9695505050505050565b606081526000620004d260608301866200047b565b60805160a05160c0516105cf620005656000396000818160e50152818161018801528181610212015281816102a1015261030a0152600060a60152600061014f01526105cf6000f3fe608060405234801561001057600080fd5b50600436106100885760003560e01c8063574e700f1161005b578063574e700f1461011c5780637547c7a31461012f578063a5ce413b14610142578063fc0c546a1461014a57600080fd5b80630c05611d1461008d57806323c9bc52146100a157806336e9332d146100e05780634b427e6414610107575b600080fd5b604051600181526020015b60405180910390f35b6100c87f000000000000000000000000000000000000000000000000000000000000000081565b6040516001600160a01b039091168152602001610098565b6100c87f000000000000000000000000000000000000000000000000000000000000000081565b61011a6101153660046103c9565b610171565b005b61011a61012a366004610435565b6101fb565b61011a61013d3660046104cf565b61028b565b61011a610308565b6100c87f000000000000000000000000000000000000000000000000000000000000000081565b6040516312d09f9960e21b81526001600160a01b037f00000000000000000000000000000000000000000000000000000000000000001690634b427e64906101c390879087908790879060040161051e565b600060405180830381600087803b1580156101dd57600080fd5b505af11580156101f1573d6000803e3d6000fd5b5050505050505050565b60405163574e700f60e01b81526001600160a01b037f0000000000000000000000000000000000000000000000000000000000000000169063574e700f9061025190899089908990899089908990600401610550565b600060405180830381600087803b15801561026b57600080fd5b505af115801561027f573d6000803e3d6000fd5b50505050505050505050565b604051637547c7a360e01b8152600481018290527f00000000000000000000000000000000000000000000000000000000000000006001600160a01b031690637547c7a390602401600060405180830381600087803b1580156102ed57600080fd5b505af1158015610301573d6000803e3d6000fd5b5050505050565b7f00000000000000000000000000000000000000000000000000000000000000006001600160a01b031663a5ce413b6040518163ffffffff1660e01b8152600401600060405180830381600087803b15801561036357600080fd5b505af1158015610377573d6000803e3d6000fd5b50505050565b60008083601f84011261038f57600080fd5b50813567ffffffffffffffff8111156103a757600080fd5b6020830191508360208260051b85010111156103c257600080fd5b9250929050565b600080600080604085870312156103df57600080fd5b843567ffffffffffffffff808211156103f757600080fd5b6104038883890161037d565b9096509450602087013591508082111561041c57600080fd5b506104298782880161037d565b95989497509550505050565b6000806000806000806060878903121561044e57600080fd5b863567ffffffffffffffff8082111561046657600080fd5b6104728a838b0161037d565b9098509650602089013591508082111561048b57600080fd5b6104978a838b0161037d565b909650945060408901359150808211156104b057600080fd5b506104bd89828a0161037d565b979a9699509497509295939492505050565b6000602082840312156104e157600080fd5b5035919050565b81835260006001600160fb1b0383111561050157600080fd5b8260051b8083602087013760009401602001938452509192915050565b6040815260006105326040830186886104e8565b82810360208401526105458185876104e8565b979650505050505050565b60608152600061056460608301888a6104e8565b82810360208401526105778187896104e8565b9050828103604084015261058c8185876104e8565b999850505050505050505056fea26469706673582212206a7aa3d0e04b4a0f91d88b157a1447f722c102ccf355dc886ca946f2c409856b64736f6c634300080a003360806040523480156200001157600080fd5b5060405162000ec738038062000ec783398101604081905262000034916200035f565b8351849084906200004d906003906020850190620001ec565b50805162000063906004906020840190620001ec565b505050620000806200007a620000ae60201b60201c565b620000b2565b6005805460ff60a01b1916600160a01b60ff851602179055620000a4338262000104565b505050506200044e565b3390565b600580546001600160a01b038381166001600160a01b0319831681179093556040519116919082907f8be0079c531659141344cd1fd0a4f28419497f9722a3daafe3b4186f6b6457e090600090a35050565b6001600160a01b0382166200015f5760405162461bcd60e51b815260206004820152601f60248201527f45524332303a206d696e7420746f20746865207a65726f206164647265737300604482015260640160405180910390fd5b8060026000828254620001739190620003ea565b90915550506001600160a01b03821660009081526020819052604081208054839290620001a2908490620003ea565b90915550506040518181526001600160a01b038316906000907fddf252ad1be2c89b69c2b068fc378daa952ba7f163c4a11628f55a4df523b3ef9060200160405180910390a35050565b828054620001fa9062000411565b90600052602060002090601f0160209004810192826200021e576000855562000269565b82601f106200023957805160ff191683800117855562000269565b8280016001018555821562000269579182015b82811115620002695782518255916020019190600101906200024c565b50620002779291506200027b565b5090565b5b808211156200027757600081556001016200027c565b634e487b7160e01b600052604160045260246000fd5b600082601f830112620002ba57600080fd5b81516001600160401b0380821115620002d757620002d762000292565b604051601f8301601f19908116603f0116810190828211818310171562000302576200030262000292565b816040528381526020925086838588010111156200031f57600080fd5b600091505b8382101562000343578582018301518183018401529082019062000324565b83821115620003555760008385830101525b9695505050505050565b600080600080608085870312156200037657600080fd5b84516001600160401b03808211156200038e57600080fd5b6200039c88838901620002a8565b95506020870151915080821115620003b357600080fd5b50620003c287828801620002a8565b935050604085015160ff81168114620003da57600080fd5b6060959095015193969295505050565b600082198211156200040c57634e487b7160e01b600052601160045260246000fd5b500190565b600181811c908216806200042657607f821691505b602082108114156200044857634e487b7160e01b600052602260045260246000fd5b50919050565b610a69806200045e6000396000f3fe608060405234801561001057600080fd5b50600436106100f55760003560e01c8063715018a611610097578063a9059cbb11610066578063a9059cbb146101fc578063b3bcfa821461020f578063dd62ed3e14610223578063f2fde38b1461023657600080fd5b8063715018a6146101bc5780638da5cb5b146101c657806395d89b41146101e1578063a457c2d7146101e957600080fd5b806323b872dd116100d357806323b872dd1461014d578063313ce56714610160578063395093511461018057806370a082311461019357600080fd5b806306fdde03146100fa578063095ea7b31461011857806318160ddd1461013b575b600080fd5b610102610249565b60405161010f91906108a6565b60405180910390f35b61012b610126366004610917565b6102db565b604051901515815260200161010f565b6002545b60405190815260200161010f565b61012b61015b366004610941565b6102f3565b600554600160a01b900460ff165b60405160ff909116815260200161010f565b61012b61018e366004610917565b610317565b61013f6101a136600461097d565b6001600160a01b031660009081526020819052604090205490565b6101c4610339565b005b6005546040516001600160a01b03909116815260200161010f565b61010261034d565b61012b6101f7366004610917565b61035c565b61012b61020a366004610917565b6103dc565b60055461016e90600160a01b900460ff1681565b61013f61023136600461099f565b6103ea565b6101c461024436600461097d565b610415565b606060038054610258906109d2565b80601f0160208091040260200160405190810160405280929190818152602001828054610284906109d2565b80156102d15780601f106102a6576101008083540402835291602001916102d1565b820191906000526020600020905b8154815290600101906020018083116102b457829003601f168201915b5050505050905090565b6000336102e981858561048e565b5060019392505050565b6000336103018582856105b2565b61030c85858561062c565b506001949350505050565b6000336102e981858561032a83836103ea565b6103349190610a0d565b61048e565b6103416107fa565b61034b6000610854565b565b606060048054610258906109d2565b6000338161036a82866103ea565b9050838110156103cf5760405162461bcd60e51b815260206004820152602560248201527f45524332303a2064656372656173656420616c6c6f77616e63652062656c6f77604482015264207a65726f60d81b60648201526084015b60405180910390fd5b61030c828686840361048e565b6000336102e981858561062c565b6001600160a01b03918216600090815260016020908152604080832093909416825291909152205490565b61041d6107fa565b6001600160a01b0381166104825760405162461bcd60e51b815260206004820152602660248201527f4f776e61626c653a206e6577206f776e657220697320746865207a65726f206160448201526564647265737360d01b60648201526084016103c6565b61048b81610854565b50565b6001600160a01b0383166104f05760405162461bcd60e51b8152602060048201526024808201527f45524332303a20617070726f76652066726f6d20746865207a65726f206164646044820152637265737360e01b60648201526084016103c6565b6001600160a01b0382166105515760405162461bcd60e51b815260206004820152602260248201527f45524332303a20617070726f766520746f20746865207a65726f206164647265604482015261737360f01b60648201526084016103c6565b6001600160a01b0383811660008181526001602090815260408083209487168084529482529182902085905590518481527f8c5be1e5ebec7d5bd14f71427d1e84f3dd0314c0f7b2291e5b200ac8c7c3b925910160405180910390a3505050565b60006105be84846103ea565b9050600019811461062657818110156106195760405162461bcd60e51b815260206004820152601d60248201527f45524332303a20696e73756666696369656e7420616c6c6f77616e636500000060448201526064016103c6565b610626848484840361048e565b50505050565b6001600160a01b0383166106905760405162461bcd60e51b815260206004820152602560248201527f45524332303a207472616e736665722066726f6d20746865207a65726f206164604482015264647265737360d81b60648201526084016103c6565b6001600160a01b0382166106f25760405162461bcd60e51b815260206004820152602360248201527f45524332303a207472616e7366657220746f20746865207a65726f206164647260448201526265737360e81b60648201526084016103c6565b6001600160a01b0383166000908152602081905260409020548181101561076a5760405162461bcd60e51b815260206004820152602660248201527f45524332303a207472616e7366657220616d6f756e7420657863656564732062604482015265616c616e636560d01b60648201526084016103c6565b6001600160a01b038085166000908152602081905260408082208585039055918516815290812080548492906107a1908490610a0d565b92505081905550826001600160a01b0316846001600160a01b03167fddf252ad1be2c89b69c2b068fc378daa952ba7f163c4a11628f55a4df523b3ef846040516107ed91815260200190565b60405180910390a3610626565b6005546001600160a01b0316331461034b5760405162461bcd60e51b815260206004820181905260248201527f4f776e61626c653a2063616c6c6572206973206e6f7420746865206f776e657260448201526064016103c6565b600580546001600160a01b038381166001600160a01b0319831681179093556040519116919082907f8be0079c531659141344cd1fd0a4f28419497f9722a3daafe3b4186f6b6457e090600090a35050565b600060208083528351808285015260005b818110156108d3578581018301518582016040015282016108b7565b818111156108e5576000604083870101525b50601f01601f1916929092016040019392505050565b80356001600160a01b038116811461091257600080fd5b919050565b6000806040838503121561092a57600080fd5b610933836108fb565b946020939093013593505050565b60008060006060848603121561095657600080fd5b61095f846108fb565b925061096d602085016108fb565b9150604084013590509250925092565b60006020828403121561098f57600080fd5b610998826108fb565b9392505050565b600080604083850312156109b257600080fd5b6109bb836108fb565b91506109c9602084016108fb565b90509250929050565b600181811c908216806109e657607f821691505b60208210811415610a0757634e487b7160e01b600052602260045260246000fd5b50919050565b60008219821115610a2e57634e487b7160e01b600052601160045260246000fd5b50019056fea2646970667358221220856da1693c522f21c2cc3977678d722f7da15b483306edb27e5ce85e691a869b64736f6c634300080a003360806040523480156200001157600080fd5b5060405162001db238038062001db283398101604081905262000034916200067d565b826200004081620000ef565b50805182511462000076578151815160405163c9bd84b560e01b8152600481019290925260248201526044015b60405180910390fd5b81516200009657604051638512363d60e01b815260040160405180910390fd5b620000b9338383604051806020016040528060008152506200010860201b60201c565b805182516040517ff0ee3666ded00e4a4054586f71ae9aba172e661b35be2e598af046d5c61c532790600090a350505062000a05565b805162000104906002906020840190620004d6565b5050565b6001600160a01b0384166200016a5760405162461bcd60e51b815260206004820152602160248201527f455243313135353a206d696e7420746f20746865207a65726f206164647265736044820152607360f81b60648201526084016200006d565b8151835114620001ce5760405162461bcd60e51b815260206004820152602860248201527f455243313135353a2069647320616e6420616d6f756e7473206c656e677468206044820152670dad2e6dac2e8c6d60c31b60648201526084016200006d565b3360005b84518110156200027657838181518110620001f157620001f16200076e565b60200260200101516000808784815181106200021157620002116200076e565b602002602001015181526020019081526020016000206000886001600160a01b03166001600160a01b0316815260200190815260200160002060008282546200025b91906200079a565b909155508190506200026d81620007b5565b915050620001d2565b50846001600160a01b031660006001600160a01b0316826001600160a01b03167f4a39dc06d4c0dbc64b70af90fd698a233a518aa5d07e595d983b8c0526c8f7fb8787604051620002c992919062000810565b60405180910390a4620002e281600087878787620002f1565b5050505050565b505050505050565b62000310846001600160a01b0316620004c760201b620004d21760201c565b15620002e95760405163bc197c8160e01b81526001600160a01b0385169063bc197c81906200034c908990899088908890889060040162000870565b6020604051808303816000875af19250505080156200038a575060408051601f3d908101601f191682019092526200038791810190620008d4565b60015b6200044b576200039962000907565b806308c379a01415620003da5750620003b162000924565b80620003be5750620003dc565b8060405162461bcd60e51b81526004016200006d9190620009b3565b505b60405162461bcd60e51b815260206004820152603460248201527f455243313135353a207472616e7366657220746f206e6f6e204552433131353560448201527f526563656976657220696d706c656d656e74657200000000000000000000000060648201526084016200006d565b6001600160e01b0319811663bc197c8160e01b14620004be5760405162461bcd60e51b815260206004820152602860248201527f455243313135353a204552433131353552656365697665722072656a656374656044820152676420746f6b656e7360c01b60648201526084016200006d565b50505050505050565b6001600160a01b03163b151590565b828054620004e490620009c8565b90600052602060002090601f01602090048101928262000508576000855562000553565b82601f106200052357805160ff191683800117855562000553565b8280016001018555821562000553579182015b828111156200055357825182559160200191906001019062000536565b506200056192915062000565565b5090565b5b8082111562000561576000815560010162000566565b634e487b7160e01b600052604160045260246000fd5b601f8201601f191681016001600160401b0381118282101715620005ba57620005ba6200057c565b6040525050565b60005b83811015620005de578181015183820152602001620005c4565b83811115620005ee576000848401525b50505050565b600082601f8301126200060657600080fd5b815160206001600160401b038211156200062457620006246200057c565b8160051b604051620006398383018262000592565b928352848101820192828101878511156200065357600080fd5b83870192505b8483101562000672578251815291830191830162000659565b509695505050505050565b6000806000606084860312156200069357600080fd5b83516001600160401b0380821115620006ab57600080fd5b818601915086601f830112620006c057600080fd5b815181811115620006d557620006d56200057c565b604051620006ee601f8301601f19166020018262000592565b8181528860208386010111156200070457600080fd5b62000717826020830160208701620005c1565b6020880151909650925050808211156200073057600080fd5b6200073e87838801620005f4565b935060408601519150808211156200075557600080fd5b506200076486828701620005f4565b9150509250925092565b634e487b7160e01b600052603260045260246000fd5b634e487b7160e01b600052601160045260246000fd5b60008219821115620007b057620007b062000784565b500190565b6000600019821415620007cc57620007cc62000784565b5060010190565b600081518084526020808501945080840160005b838110156200080557815187529582019590820190600101620007e7565b509495945050505050565b604081526000620008256040830185620007d3565b8281036020840152620008398185620007d3565b95945050505050565b600081518084526200085c816020860160208601620005c1565b601f01601f19169290920160200192915050565b6001600160a01b0386811682528516602082015260a0604082018190526000906200089e90830186620007d3565b8281036060840152620008b28186620007d3565b90508281036080840152620008c8818562000842565b98975050505050505050565b600060208284031215620008e757600080fd5b81516001600160e01b0319811681146200090057600080fd5b9392505050565b600060033d1115620009215760046000803e5060005160e01c5b90565b600060443d1015620009335790565b6040516003193d81016004833e81513d6001600160401b0380831160248401831017156200096357505050505090565b82850191508151818111156200097c5750505050505090565b843d8701016020828501011115620009975750505050505090565b620009a86020828601018762000592565b509095945050505050565b60208152600062000900602083018462000842565b600181811c90821680620009dd57607f821691505b60208210811415620009ff57634e487b7160e01b600052602260045260246000fd5b50919050565b61139d8062000a156000396000f3fe608060405234801561001057600080fd5b50600436106100875760003560e01c80634e1273f41161005b5780634e1273f41461010a578063a22cb4651461012a578063e985e9c51461013d578063f242432a1461017957600080fd5b8062fdd58e1461008c57806301ffc9a7146100b25780630e89341c146100d55780632eb2c2d6146100f5575b600080fd5b61009f61009a366004610b50565b61018c565b6040519081526020015b60405180910390f35b6100c56100c0366004610b93565b610222565b60405190151581526020016100a9565b6100e86100e3366004610bb7565b610274565b6040516100a99190610c1d565b610108610103366004610d7c565b610308565b005b61011d610118366004610e26565b610354565b6040516100a99190610f2c565b610108610138366004610f3f565b61047e565b6100c561014b366004610f7b565b6001600160a01b03918216600090815260016020908152604080832093909416825291909152205460ff1690565b610108610187366004610fae565b61048d565b60006001600160a01b0383166101fc5760405162461bcd60e51b815260206004820152602a60248201527f455243313135353a2061646472657373207a65726f206973206e6f742061207660448201526930b634b21037bbb732b960b11b60648201526084015b60405180910390fd5b506000908152602081815260408083206001600160a01b03949094168352929052205490565b60006001600160e01b03198216636cdb3d1360e11b148061025357506001600160e01b031982166303a24d0760e21b145b8061026e57506301ffc9a760e01b6001600160e01b03198316145b92915050565b60606002805461028390611013565b80601f01602080910402602001604051908101604052809291908181526020018280546102af90611013565b80156102fc5780601f106102d1576101008083540402835291602001916102fc565b820191906000526020600020905b8154815290600101906020018083116102df57829003601f168201915b50505050509050919050565b6001600160a01b0385163314806103245750610324853361014b565b6103405760405162461bcd60e51b81526004016101f39061104e565b61034d85858585856104e1565b5050505050565b606081518351146103b95760405162461bcd60e51b815260206004820152602960248201527f455243313135353a206163636f756e747320616e6420696473206c656e677468604482015268040dad2e6dac2e8c6d60bb1b60648201526084016101f3565b6000835167ffffffffffffffff8111156103d5576103d5610c30565b6040519080825280602002602001820160405280156103fe578160200160208202803683370190505b50905060005b8451811015610476576104498582815181106104225761042261109d565b602002602001015185838151811061043c5761043c61109d565b602002602001015161018c565b82828151811061045b5761045b61109d565b602090810291909101015261046f816110c9565b9050610404565b509392505050565b6104893383836106be565b5050565b6001600160a01b0385163314806104a957506104a9853361014b565b6104c55760405162461bcd60e51b81526004016101f39061104e565b61034d858585858561079f565b6001600160a01b03163b151590565b81518351146105435760405162461bcd60e51b815260206004820152602860248201527f455243313135353a2069647320616e6420616d6f756e7473206c656e677468206044820152670dad2e6dac2e8c6d60c31b60648201526084016101f3565b6001600160a01b0384166105695760405162461bcd60e51b81526004016101f3906110e4565b3360005b845181101561065057600085828151811061058a5761058a61109d565b6020026020010151905060008583815181106105a8576105a861109d565b602090810291909101810151600084815280835260408082206001600160a01b038e1683529093529190912054909150818110156105f85760405162461bcd60e51b81526004016101f390611129565b6000838152602081815260408083206001600160a01b038e8116855292528083208585039055908b16825281208054849290610635908490611173565b9250508190555050505080610649906110c9565b905061056d565b50846001600160a01b0316866001600160a01b0316826001600160a01b03167f4a39dc06d4c0dbc64b70af90fd698a233a518aa5d07e595d983b8c0526c8f7fb87876040516106a092919061118b565b60405180910390a46106b68187878787876108c9565b505050505050565b816001600160a01b0316836001600160a01b031614156107325760405162461bcd60e51b815260206004820152602960248201527f455243313135353a2073657474696e6720617070726f76616c20737461747573604482015268103337b91039b2b63360b91b60648201526084016101f3565b6001600160a01b03838116600081815260016020908152604080832094871680845294825291829020805460ff191686151590811790915591519182527f17307eab39ab6107e8899845ad3d59bd9653f200f220920489ca2b5937696c31910160405180910390a3505050565b6001600160a01b0384166107c55760405162461bcd60e51b81526004016101f3906110e4565b3360006107d185610a2e565b905060006107de85610a2e565b90506000868152602081815260408083206001600160a01b038c168452909152902054858110156108215760405162461bcd60e51b81526004016101f390611129565b6000878152602081815260408083206001600160a01b038d8116855292528083208985039055908a1682528120805488929061085e908490611173565b909155505060408051888152602081018890526001600160a01b03808b16928c821692918816917fc3d58168c5ae7397731d063d5bbf3d657854427343f4c083240f7aacaa2d0f62910160405180910390a46108be848a8a8a8a8a610a79565b505050505050505050565b6001600160a01b0384163b156106b65760405163bc197c8160e01b81526001600160a01b0385169063bc197c819061090d90899089908890889088906004016111b9565b6020604051808303816000875af1925050508015610948575060408051601f3d908101601f1916820190925261094591810190611217565b60015b6109f557610954611234565b806308c379a0141561098e5750610969611250565b806109745750610990565b8060405162461bcd60e51b81526004016101f39190610c1d565b505b60405162461bcd60e51b815260206004820152603460248201527f455243313135353a207472616e7366657220746f206e6f6e20455243313135356044820152732932b1b2b4bb32b91034b6b83632b6b2b73a32b960611b60648201526084016101f3565b6001600160e01b0319811663bc197c8160e01b14610a255760405162461bcd60e51b81526004016101f3906112da565b50505050505050565b60408051600180825281830190925260609160009190602080830190803683370190505090508281600081518110610a6857610a6861109d565b602090810291909101015292915050565b6001600160a01b0384163b156106b65760405163f23a6e6160e01b81526001600160a01b0385169063f23a6e6190610abd9089908990889088908890600401611322565b6020604051808303816000875af1925050508015610af8575060408051601f3d908101601f19168201909252610af591810190611217565b60015b610b0457610954611234565b6001600160e01b0319811663f23a6e6160e01b14610a255760405162461bcd60e51b81526004016101f3906112da565b80356001600160a01b0381168114610b4b57600080fd5b919050565b60008060408385031215610b6357600080fd5b610b6c83610b34565b946020939093013593505050565b6001600160e01b031981168114610b9057600080fd5b50565b600060208284031215610ba557600080fd5b8135610bb081610b7a565b9392505050565b600060208284031215610bc957600080fd5b5035919050565b6000815180845260005b81811015610bf657602081850181015186830182015201610bda565b81811115610c08576000602083870101525b50601f01601f19169290920160200192915050565b602081526000610bb06020830184610bd0565b634e487b7160e01b600052604160045260246000fd5b601f8201601f1916810167ffffffffffffffff81118282101715610c6c57610c6c610c30565b6040525050565b600067ffffffffffffffff821115610c8d57610c8d610c30565b5060051b60200190565b600082601f830112610ca857600080fd5b81356020610cb582610c73565b604051610cc28282610c46565b83815260059390931b8501820192828101915086841115610ce257600080fd5b8286015b84811015610cfd5780358352918301918301610ce6565b509695505050505050565b600082601f830112610d1957600080fd5b813567ffffffffffffffff811115610d3357610d33610c30565b604051610d4a601f8301601f191660200182610c46565b818152846020838601011115610d5f57600080fd5b816020850160208301376000918101602001919091529392505050565b600080600080600060a08688031215610d9457600080fd5b610d9d86610b34565b9450610dab60208701610b34565b9350604086013567ffffffffffffffff80821115610dc857600080fd5b610dd489838a01610c97565b94506060880135915080821115610dea57600080fd5b610df689838a01610c97565b93506080880135915080821115610e0c57600080fd5b50610e1988828901610d08565b9150509295509295909350565b60008060408385031215610e3957600080fd5b823567ffffffffffffffff80821115610e5157600080fd5b818501915085601f830112610e6557600080fd5b81356020610e7282610c73565b604051610e7f8282610c46565b83815260059390931b8501820192828101915089841115610e9f57600080fd5b948201945b83861015610ec457610eb586610b34565b82529482019490820190610ea4565b96505086013592505080821115610eda57600080fd5b50610ee785828601610c97565b9150509250929050565b600081518084526020808501945080840160005b83811015610f2157815187529582019590820190600101610f05565b509495945050505050565b602081526000610bb06020830184610ef1565b60008060408385031215610f5257600080fd5b610f5b83610b34565b915060208301358015158114610f7057600080fd5b809150509250929050565b60008060408385031215610f8e57600080fd5b610f9783610b34565b9150610fa560208401610b34565b90509250929050565b600080600080600060a08688031215610fc657600080fd5b610fcf86610b34565b9450610fdd60208701610b34565b93506040860135925060608601359150608086013567ffffffffffffffff81111561100757600080fd5b610e1988828901610d08565b600181811c9082168061102757607f821691505b6020821081141561104857634e487b7160e01b600052602260045260246000fd5b50919050565b6020808252602f908201527f455243313135353a2063616c6c6572206973206e6f7420746f6b656e206f776e60408201526e195c881b9bdc88185c1c1c9bdd9959608a1b606082015260800190565b634e487b7160e01b600052603260045260246000fd5b634e487b7160e01b600052601160045260246000fd5b60006000198214156110dd576110dd6110b3565b5060010190565b60208082526025908201527f455243313135353a207472616e7366657220746f20746865207a65726f206164604082015264647265737360d81b606082015260800190565b6020808252602a908201527f455243313135353a20696e73756666696369656e742062616c616e636520666f60408201526939103a3930b739b332b960b11b606082015260800190565b60008219821115611186576111866110b3565b500190565b60408152600061119e6040830185610ef1565b82810360208401526111b08185610ef1565b95945050505050565b6001600160a01b0386811682528516602082015260a0604082018190526000906111e590830186610ef1565b82810360608401526111f78186610ef1565b9050828103608084015261120b8185610bd0565b98975050505050505050565b60006020828403121561122957600080fd5b8151610bb081610b7a565b600060033d111561124d5760046000803e5060005160e01c5b90565b600060443d101561125e5790565b6040516003193d81016004833e81513d67ffffffffffffffff816024840111818411171561128e57505050505090565b82850191508151818111156112a65750505050505090565b843d87010160208285010111156112c05750505050505090565b6112cf60208286010187610c46565b509095945050505050565b60208082526028908201527f455243313135353a204552433131353552656365697665722072656a656374656040820152676420746f6b656e7360c01b606082015260800190565b6001600160a01b03868116825285166020820152604081018490526060810183905260a06080820181905260009061135c90830184610bd0565b97965050505050505056fea26469706673582212208d9253c4cfb815cefd3f14ca7ea4f50e709e65eaafc776db6124756e435923a864736f6c634300080a0033608060405234801561001057600080fd5b5060405161130838038061130883398101604081905261002f916100d7565b6100383361006f565b600192909255600280546001600160a01b039283166001600160a01b0319918216179091556003805492909316911617905561011a565b600080546001600160a01b038381166001600160a01b0319831681178455604051919092169283917f8be0079c531659141344cd1fd0a4f28419497f9722a3daafe3b4186f6b6457e09190a35050565b6001600160a01b03811681146100d457600080fd5b50565b6000806000606084860312156100ec57600080fd5b8351925060208401516100fe816100bf565b604085015190925061010f816100bf565b809150509250925092565b6111df806101296000396000f3fe608060405234801561001057600080fd5b506004361061010b5760003560e01c8063715018a6116100a2578063a5ce413b11610071578063a5ce413b14610242578063bc197c811461024a578063f23a6e6114610282578063f2fde38b146102a1578063fc0c546a146102b457600080fd5b8063715018a61461020d5780637547c7a3146102155780638da5cb5b1461022857806396afc4501461023957600080fd5b806323c9bc52116100de57806323c9bc52146101a757806325ca4cff146101d25780634b427e64146101e5578063574e700f146101fa57600080fd5b806301ffc9a7146101105780630af2c6ca146101385780631959a0021461014a5780631f8bc79014610194575b600080fd5b61012361011e366004610c47565b6102c7565b60405190151581526020015b60405180910390f35b6004545b60405190815260200161012f565b610179610158366004610c8d565b60056020526000908152604090208054600182015460029092015490919083565b6040805193845260208401929092529082015260600161012f565b6101796101a2366004610ca8565b6102fe565b6003546101ba906001600160a01b031681565b6040516001600160a01b03909116815260200161012f565b61013c6101e0366004610c8d565b610331565b6101f86101f3366004610d0c565b610390565b005b6101f8610208366004610d77565b61064d565b6101f8610811565b6101f8610223366004610ca8565b610825565b6000546001600160a01b03166101ba565b61013c60015481565b6101f861099e565b610269610258366004610f44565b63bc197c8160e01b95945050505050565b6040516001600160e01b0319909116815260200161012f565b610269610290366004610fed565b63f23a6e6160e01b95945050505050565b6101f86102af366004610c8d565b610afa565b6002546101ba906001600160a01b031681565b60006001600160e01b03198216630271189760e51b14806102f857506301ffc9a760e01b6001600160e01b03198316145b92915050565b6004818154811061030e57600080fd5b600091825260209091206003909102018054600182015460029092015490925083565b6001600160a01b03811660009081526005602090815260408083208151606081018352815481526001820154938101939093526002810154918301919091529061037a90610b73565b81600201546103899190611067565b9392505050565b8281146103bf57604051636876092560e01b815260048101849052602481018290526044015b60405180910390fd5b60005b6001600160401b0381168411156105ad57600060048686846001600160401b03168181106103f2576103f261107f565b90506020020135815481106104095761040961107f565b90600052602060002090600302016040518060600160405290816000820154815260200160018201548152602001600282015481525050905060008484846001600160401b031681811061045f5761045f61107f565b9050602002013582604001516104759190611095565b9050600061048233610331565b90508585856001600160401b031681811061049f5761049f61107f565b90506020020135836020015110156104ca57604051633d4f504360e11b815260040160405180910390fd5b8181116104ea5760405163571b791b60e11b815260040160405180910390fd5b33600090815260056020908152604091829020825160608101845281548152600182015492810192909252600201549181019190915261052a83836110b4565b60408083019182524260208085019182523360009081526005909152919091208351815590516001820155905160029091015586866001600160401b0387168181106105785761057861107f565b905060200201358460200181815161059091906110b4565b9052508493506105a592508391506110cb9050565b9150506103c2565b50600354604051631759616b60e11b81526001600160a01b0390911690632eb2c2d6906105e890309033908990899089908990600401611128565b600060405180830381600087803b15801561060257600080fd5b505af1158015610616573d6000803e3d6000fd5b50506040518392508591507f9fd4a33a7cbee3d9f21e207bf96003ffe9f38dc14e86ed40d90b5c57678be3f790600090a350505050565b610655610b9d565b84831415806106645750828114155b15610693576040516358744bdb60e01b81526004810186905260248101849052604481018290526064016103b6565b600354604051631759616b60e11b81526001600160a01b0390911690632eb2c2d6906106cd90339030908b908b908b908b90600401611128565b600060405180830381600087803b1580156106e757600080fd5b505af11580156106fb573d6000803e3d6000fd5b5050505060005b6001600160401b0381168611156107db57600460405180606001604052808989856001600160401b031681811061073b5761073b61107f565b9050602002013581526020018787856001600160401b03168181106107625761076261107f565b9050602002013581526020018585856001600160401b03168181106107895761078961107f565b60209081029290920135909252835460018181018655600095865294829020845160039092020190815590830151938101939093555060400151600290910155806107d3816110cb565b915050610702565b50604051839086907fcb87aa06d2795b703d649af7782f4a7af688683e63d3855f3bdb1092ae21495290600090a3505050505050565b610819610b9d565b6108236000610bf7565b565b806108435760405163f739ca4960e01b815260040160405180910390fd5b6002546040516323b872dd60e01b8152336004820152306024820152604481018390526000916001600160a01b0316906323b872dd906064016020604051808303816000875af115801561089b573d6000803e3d6000fd5b505050506040513d601f19601f820116820180604052508101906108bf9190611187565b9050806108df5760405163039053bf60e51b815260040160405180910390fd5b3360009081526005602090815260409182902082516060810184528154808252600183015493820193909352600290910154928101929092521561092c5761092633610331565b60408201525b828160000181815161093e9190611067565b90525042602080830191825233600090815260059091526040808220845181559251600184015580840151600290930192909255905184917ff3c756dc29398342d2e11fb528b2eca687af69d47cb5222de3ad764b27fee6bb91a2505050565b3360009081526005602090815260409182902082516060810184528154808252600183015493820193909352600290910154928101929092526109f45760405163f739ca4960e01b815260040160405180910390fd5b600254815160405163a9059cbb60e01b815233600482015260248101919091526000916001600160a01b03169063a9059cbb906044016020604051808303816000875af1158015610a49573d6000803e3d6000fd5b505050506040513d601f19601f82011682018060405250810190610a6d9190611187565b905080610a8d5760405163039053bf60e51b815260040160405180910390fd5b610a9633610331565b6040808401918252600080855242602080870191825233808452600590915283832087518155915160018301559351600290910181905591519192917ff74a79d13d6fdbdf26b2c779e6a24490a43e65d60cc7e064740f8d40b2b5ea2c9190a35050565b610b02610b9d565b6001600160a01b038116610b675760405162461bcd60e51b815260206004820152602660248201527f4f776e61626c653a206e6577206f776e657220697320746865207a65726f206160448201526564647265737360d01b60648201526084016103b6565b610b7081610bf7565b50565b8051600154600091610b8491611095565b6020830151610b9390426110b4565b6102f89190611095565b6000546001600160a01b031633146108235760405162461bcd60e51b815260206004820181905260248201527f4f776e61626c653a2063616c6c6572206973206e6f7420746865206f776e657260448201526064016103b6565b600080546001600160a01b038381166001600160a01b0319831681178455604051919092169283917f8be0079c531659141344cd1fd0a4f28419497f9722a3daafe3b4186f6b6457e09190a35050565b600060208284031215610c5957600080fd5b81356001600160e01b03198116811461038957600080fd5b80356001600160a01b0381168114610c8857600080fd5b919050565b600060208284031215610c9f57600080fd5b61038982610c71565b600060208284031215610cba57600080fd5b5035919050565b60008083601f840112610cd357600080fd5b5081356001600160401b03811115610cea57600080fd5b6020830191508360208260051b8501011115610d0557600080fd5b9250929050565b60008060008060408587031215610d2257600080fd5b84356001600160401b0380821115610d3957600080fd5b610d4588838901610cc1565b90965094506020870135915080821115610d5e57600080fd5b50610d6b87828801610cc1565b95989497509550505050565b60008060008060008060608789031215610d9057600080fd5b86356001600160401b0380821115610da757600080fd5b610db38a838b01610cc1565b90985096506020890135915080821115610dcc57600080fd5b610dd88a838b01610cc1565b90965094506040890135915080821115610df157600080fd5b50610dfe89828a01610cc1565b979a9699509497509295939492505050565b634e487b7160e01b600052604160045260246000fd5b604051601f8201601f191681016001600160401b0381118282101715610e4e57610e4e610e10565b604052919050565b600082601f830112610e6757600080fd5b813560206001600160401b03821115610e8257610e82610e10565b8160051b610e91828201610e26565b9283528481018201928281019087851115610eab57600080fd5b83870192505b84831015610eca57823582529183019190830190610eb1565b979650505050505050565b600082601f830112610ee657600080fd5b81356001600160401b03811115610eff57610eff610e10565b610f12601f8201601f1916602001610e26565b818152846020838601011115610f2757600080fd5b816020850160208301376000918101602001919091529392505050565b600080600080600060a08688031215610f5c57600080fd5b610f6586610c71565b9450610f7360208701610c71565b935060408601356001600160401b0380821115610f8f57600080fd5b610f9b89838a01610e56565b94506060880135915080821115610fb157600080fd5b610fbd89838a01610e56565b93506080880135915080821115610fd357600080fd5b50610fe088828901610ed5565b9150509295509295909350565b600080600080600060a0868803121561100557600080fd5b61100e86610c71565b945061101c60208701610c71565b9350604086013592506060860135915060808601356001600160401b0381111561104557600080fd5b610fe088828901610ed5565b634e487b7160e01b600052601160045260246000fd5b6000821982111561107a5761107a611051565b500190565b634e487b7160e01b600052603260045260246000fd5b60008160001904831182151516156110af576110af611051565b500290565b6000828210156110c6576110c6611051565b500390565b60006001600160401b03808316818114156110e8576110e8611051565b6001019392505050565b81835260006001600160fb1b0383111561110b57600080fd5b8260051b8083602087013760009401602001938452509192915050565b6001600160a01b0387811682528616602082015260a06040820181905260009061115590830186886110f2565b82810360608401526111688185876110f2565b8381036080909401939093525050600081526020019695505050505050565b60006020828403121561119957600080fd5b8151801515811461038957600080fdfea264697066735822122010b0b249a2ce8c6a515716ccdaee3487e0b43eb55bb2bac02c094720f54b272d64736f6c634300080a003368747470733a2f2f676174657761792e70696e6174612e636c6f75642f697066732f516d61507a4d5378586e4e7a6832324134586d53557066656e563536536a4c654651314b6a746e355131693253452f",
  "linkReferences": {},
  "deployedLinkReferences": {}
}